:100000000C941E010C9403190C94DC180C94751AB2
:100010000C94501A0C942B1A0C9446010C94460123
:100020000C9446010C9482190C9446010C944601E0
:100030000C9446010C9446010C9446010C94460124
:100040000C9492180C9446010C9450190C942A1993
:100050000C9446010C9446010C9446010C94460104
:100060000C949A1A0C944601084AD73B3BCE016E79
:1000700084BCBFFDC12F3D6C74319ABD56833DDAFF
:100080003D00C77F11BED9E4BB4C3E916BAAAABE0E
:10009000000000803F05A84CCDB2D44EB93836A937
:1000A000020C50B9918688083CA6AAAA2ABE000074
:1000B00000803F0000407A10F35A00A0724E1809E9
:1000C0000010A5D4E80000E87648170000E40B54BF
:1000D000020000CA9A3B000000E1F505000080968E
:1000E0009800000040420F000000A08601000000C0
:1000F000102700000000E80300000000640000007A
:1001000000000A00000000000100000000002C7642
:10011000D888DC674F0823DFC1DFAE59E1B1B7965D
:10012000E5E3E453C63AE651997696E8E6C28426BA
:10013000EB898C9B62ED407C6FFCEFBC9C9F40F296
:10014000BAA56FA5F490055A2AF75C936B6CF96712
:100150006DC11BFCE0E40D47FEF520E6B500D0EDD7
:10016000902E0300943577050080841E080000203F
:100170004E0A000000C80C333333330F986E1283DD
:100180001141EF8D2114893BE65516CFFEE6DB18B1
:10019000D1844B381BF77C1D901DA4BBE424203276
:1001A00084725E228100C9F124ECA1E53D275A4406
:1001B000410056544700524D4300475356004753A1
:1001C000540047534100474C4C0047474100CA0187
:1001D000C601C201BE01BA01B601B201AE01000002
:1001E0000000240027002A0000000008000201008F
:1001F00000030407000000000000000000000000F1
:10020000250028002B000000000023002600290004
:1002100004040404040404040202020202020303AC
:1002200003030303010204081020408001020408B4
:100230001020010204081020941C2C2F11241FBE32
:10024000CFEFD8E0DEBFCDBF25E0AEE9B1E001C021
:100250001D92A33FB207E1F711E0A0E0B1E0EAE9A7
:10026000FEE602C005900D92AE39B107D9F711E054
:10027000CDE1D1E004C02197FE010E94F835CC31D8
:10028000D107C9F70E94BB1D0C9440370C940000A5
:10029000FC018091520481111AC0118210821382D4
:1002A000128280915404826080935404109253040B
:1002B00091E06D3209F090E08091540490FB80F958
:1002C000809354046D3209F06EC080E008956C3262
:1002D00099F580915304811103C081E08093530408
:1002E00082819381892B99F05AE08091530491E0A7
:1002F000980F90935304481750F022813381529FF6
:10030000C001539F900D112493838283EECF90916F
:100310005404892F817090FF44C02281338131952C
:1003200021953109338322832081318131952195B3
:1003300031093183208308956E3221F481E0809366
:100340005304C3CF80915304811112C020813181A5
:100350004AE0429FC001439F900D1124062E000CDD
:10036000770B60537109680F791F71836083ADCF7C
:1003700091E0980F90935304481708F4A6CF228178
:1003800033814AE0429FC001439F900D1124062E05
:10039000000C770B60537109680F791F73836283B8
:1003A00094CF81E008956C3209F497CF6E3271F6E4
:1003B000C5CF813311F0813421F483E080934E0462
:1003C00008C0803321F08E3411F0863541F410924C
:1003D0004E0480914F04816080934F0408958233CE
:1003E00011F0843411F484E0E9CF833311F487E011
:1003F000E5CF843311F486E0E1CF853311F485E055
:10040000DDCF863311F0853449F781E0D7CF0895E9
:100410000F931F930091D1031091D2032091D30326
:100420003091D403012B022B032B91F0AB01682FE9
:10043000E091CB03F091CC0301E010E020E030E04C
:1004400087EC93E00995009729F08DEF9FEF02C0AC
:100450008BEF9FEF1F910F910895CF92DF92EF9254
:10046000FF920F931F93C090CD03D090CE03E090E6
:10047000CF03F090D003C416D506E606F70688F041
:10048000D9018A019B01682FE091C903F091CA0349
:10049000AD0187EC93E00995009729F08DEF9FEF70
:1004A00002C08BEF9FEF1F910F91FF90EF90DF90B5
:1004B000CF900895FC01538D448D252F30E0842F7B
:1004C00090E0821B930B541710F0CF96089501977C
:1004D0000895FC01918D828D981761F0A28DAE0F69
:1004E000BF2FB11D5D968C91928D9F5F9F73928FF0
:1004F00090E008958FEF9FEF0895FC01918D828D1C
:10050000981731F0828DE80FF11D858D90E00895E8
:100510008FEF9FEF0895FC01918D228D892F90E040
:10052000805C9F4F821B91098F7399270895FC016E
:10053000A48DA80FB92FB11DA35ABF4F2C91848D44
:1005400090E001968F739927848FA689B7892C93A1
:10055000A089B1898C91837080648C93938D848DF4
:10056000981306C00288F389E02D80818F7D8083F7
:100570000895EF92FF920F931F93CF93DF93EC01B7
:1005800081E0888F9B8D8C8D98131AC0E889F9893A
:10059000808185FF15C09FB7F894EE89FF8960833D
:1005A000E889F98980818370806480839FBF81E0BE
:1005B00090E0DF91CF911F910F91FF90EF90089500
:1005C000F62E0B8D10E00F5F1F4F0F731127E02EDB
:1005D0008C8D8E110CC00FB607FCFACFE889F98913
:1005E000808185FFF5CFCE010E949702F1CFEB8D80
:1005F000EC0FFD2FF11DE35AFF4FF0829FB7F894E7
:100600000B8FEA89FB8980818062CFCFCF93DF9304
:10061000EC01888D8823B9F0AA89BB89E889F9891A
:100620008C9185FD03C0808186FD0DC00FB607FC4F
:10063000F7CF8C9185FFF2CF808185FFEDCFCE0182
:100640000E949702E9CFDF91CF91089585E193E071
:100650000E948B0221E0892B09F420E0822F08956B
:1006600080E090E0892B29F00E94260381110C94F0
:100670000000089590E0FC01E851FE4F2491FC0138
:10068000EC5DFD4F3491FC01E05FFD4FE491EE2302
:10069000C9F0222339F0233001F1A8F4213019F1F7
:1006A000223029F1F0E0EE0FFF1FE450FE4FA5913C
:1006B000B4918FB7F894EC91611126C030953E2328
:1006C0003C938FBF08952730A9F02830C9F024301B
:1006D00049F7809180008F7D03C0809180008F77E3
:1006E00080938000DFCF84B58F7784BDDBCF84B566
:1006F0008F7DFBCF8091B0008F778093B000D2CFF9
:100700008091B0008F7DF9CF3E2BDACFCF93DF936E
:1007100090E0FC01EC5DFD4F2491805F9D4FFC015A
:1007200084918823D1F090E0880F991FFC01E25258
:10073000FE4FA591B491FC01E450FE4FC591D491B8
:1007400061110EC09FB7F8948C91E22FE0958E2333
:100750008C932881E223E8839FBFDF91CF91089596
:100760008FB7F894EC91E22BEC938FBFF6CFCF9339
:10077000DF93A0911303B0911403109709F443C0C1
:100780001C968C911C97EDE6F0E0883050F0EBE67B
:10079000F0E08E3030F0ECE6F0E0863110F0F0E082
:1007A000E0E05FB7F89410921403109213033097AF
:1007B00049F11C968C911C97C8E6D0E0863110F068
:1007C000D0E0C0E02881883008F46AC031E08E3083
:1007D00008F430E081E090E001C0880F3A95EAF734
:1007E00080958223888360811C964C91483008F064
:1007F00059C081E090E001C0880F4A95EAF78095E2
:10080000862380835FBF60E08091E7050E948603B6
:100810008091E70590E0FC01EC5DFD4FE491E093F1
:100820001203FC01E05FFD4FE491F0E0EE0FFF1FCB
:10083000EA5FFD4F859194919093EA058093E905D5
:100840008091E80590E0FC01EC5DFD4F2491209340
:100850001103FC01E05FFD4FE491F0E0EE0FFF1F9C
:10086000E450FE4FA591B491B0931003A0930F03F1
:10087000109719F0EC91E22BEC9361E08091E80580
:100880000E9486038091E7058830E0F08E3008F4FE
:100890005EC0ECE6F0E08631B8F0DF91CF910895CC
:1008A0008BEF9FCF242F30E04E3048F42850310991
:1008B00081E090E001C0880F2A95EAF7A0CF2E5082
:1008C0003109F6CFEDE6F0E08FEF80930E03109242
:1008D0000D0310920C038091EB059091EC058115AE
:1008E0002BE4920709F457C0A8F58038954209F423
:1008F00040C05FB7F89440819091E705983008F0C8
:1009000052C081E001C0880F9A95EAF7842B80835A
:100910008091E705E8E6F0E0863110F0F0E0E0E0F5
:100920009081883008F44EC021E08E3008F420E039
:1009300081E001C0880F2A95EAF7892B80838BED2F
:1009400095E090931403809313035FBFA6CFEBE66B
:10095000F0E0BACF82312AE79207A9F081159649D3
:1009600041F686E080930B038DE980930A0384E0CF
:1009700007C08AE180930B0387E280930A038AE031
:1009800080930903B6CF88E080930B0380E88093BF
:100990000A0385E0F5CF8DE080930B038EE480930E
:1009A0000A0386E0EDCF292F30E09E3040F4285036
:1009B000310981E001C0880F2A95EAF7A7CF2E50B0
:1009C0003109F7CF84E0B9CF8230910538F0880F34
:1009D000991F880F991F05970197F1F708953FB761
:1009E000F8948091B5029091B602A091B702B091AF
:1009F000B80226B5A89B05C02F3F19F00196A11D8E
:100A0000B11D3FBFBA2FA92F982F8827BC01CD0158
:100A1000620F711D811D911D42E0660F771F881FB7
:100A2000991F4A95D1F708958F929F92AF92BF92E6
:100A3000CF92DF92EF92FF920F931F93CF93DF93AA
:100A4000CDB7DEB729970FB6F894DEBF0FBECDBF86
:100A50008091DD038E010F5F1F4F21E030E040E009
:100A600050E081116EC06FE170E081E090E00E9483
:100A7000CB064C01898180618983A8016FE170E018
:100A800081E090E00E94B405882A992A811491049B
:100A900009F043C00E94EF047B018C0120E030E0AC
:100AA000A9016A83FB828C831D832E833F83488741
:100AB00059878E010F5F1F4F21E030E040E050E08A
:100AC00060E070E081E090E00E94CB064C01892B51
:100AD00021F50E94EF049B01AC0160E070E080E032
:100AE00090E0AA80BB80CC80DD80EE80FF8008850E
:100AF00019850E94FE35203432444F40510561056E
:100B000071058105910509F050F5898183FFD1CFE9
:100B10008091DD038F5F8093DD03C40129960FB6BA
:100B2000F894DEBF0FBECDBFDF91CF911F910F9123
:100B3000FF90EF90DF90CF90BF90AF909F908F90FD
:100B400008956FE170E081E090E00E94CB064C01D7
:100B5000898184FDDDCF88248A94982CD9CF8CEFAD
:100B6000882E99249A94D9CF8F929F92AF92BF9258
:100B7000CF92DF92EF92FF920F931F93CF93DF9369
:100B800000D0CDB7DEB74B015C016A018FE188165A
:100B9000910481E0A806B10409F45BC008F044C0E8
:100BA000ECEDF3E081149104A104B10409F44DC00B
:100BB000A0FC5EC019820E9414058C0189818823E3
:100BC00041F0BE016F5F7F4F89E70E940802082B4A
:100BD000192B8A82BE016E5F7F4F8AE70E9408024E
:100BE0007C01B6018BE70E9408026C018AE090E06C
:100BF0000E94E404898181112FC00E291F290C292C
:100C00001D290E943D06802B912B0F900F90DF91A4
:100C1000CF911F910F91FF90EF90DF90CF90BF90F9
:100C2000AF909F908F900895B0E28B169104B1E041
:100C3000AB06B104D1F0EBEDF3E081E2881691044C
:100C400081E0A806B10409F0B3CFD6018C9180836E
:100C5000AFCFE9EDF3E0F9CF1A82BE016E5F7F4FAF
:100C600089E70E9408028C01CCCFEAEDF3E0EDCFDA
:100C7000B601882D0E940802C8CF0F931F93CF930F
:100C8000DF931F92CDB7DEB78091DD038E010F5F3A
:100C90001F4F21E030E040E050E0813001F56FE18E
:100CA00070E081E090E00E94CB068C0189818F7E0C
:100CB0008983AE014F5F5F4F6FE170E081E090E0AC
:100CC0000E94B405802B912B2091DD0321502093AD
:100CD000DD030F90DF91CF911F910F9108956FE188
:100CE00070E081E090E00E94CB06298124FDECCFEA
:100CF0008FEF9FEFE9CFDF92EF92FF920F931F9359
:100D0000CF93DF9300D0CDB7DEB7D82E7B01998388
:100D10000E9414058C018981882341F0BE016F5F18
:100D20007F4F8CE70E940802082B192BDA82BE0144
:100D30006E5F7F4F8DE70E940802082B192B8AE017
:100D400090E00E94E404970141E050E060E070E030
:100D50008EE70E942D02082B192B8AE090E00E945A
:100D6000E4048981882349F01A82BE016E5F7F4FB7
:100D70008CE70E940802082B192B0E943D06802B4D
:100D8000912B0F900F90DF91CF911F910F91FF90BA
:100D9000EF90DF9008954F925F926F927F928F92C3
:100DA0009F92AF92BF92CF92DF92EF92FF920F93FA
:100DB0001F93CF93DF9300D000D000D0CDB7DEB724
:100DC0004B015C0129013A011E821D82C12CD12CEC
:100DD0007601DC01CB0188279927A170BB27898385
:100DE0009A83AB83BC83D501C4018C0D9D1DAE1DC0
:100DF000BF1D8F319105E1E0AE07B105D1F1D8F407
:100E0000ECEDF3E0892B8A2B8B2B11F189819A81F0
:100E1000AB81BC81892B8A2B8B2B71F5B801C60164
:100E2000880D991D0E947B06AD81BE81A82BB92B30
:100E3000BE83AD8310C08032910521E0A207B105C9
:100E400009F444C0EBEDF3E08197A140B105F1F660
:100E50008081D8018C93FFEFCF1ADF0AEF0AFF0AD7
:100E60000F5F1F4F4C145D046E047F0409F0BBCF6D
:100E700014C0E9EDF3E0ECCFB301A2014C195D0918
:100E80006E097F099801882D8C0D0E942D02ED813D
:100E9000FE81E82BF92BFE83ED838D819E812696C2
:100EA0000FB6F894DEBF0FBECDBFDF91CF911F917B
:100EB0000F91FF90EF90DF90CF90BF90AF909F90F9
:100EC0008F907F906F905F904F900895EAEDF3E0E0
:100ED000BFCFCF92DF92EF92FF920F931F93CF93EA
:100EE000DF931F92CDB7DEB71982AE014F5F5F4F20
:100EF0006CE770E081E090E00E94B4056C01AE0107
:100F00004F5F5F4F69E770E081E090E00E94B405B9
:100F1000C82AD92A8091D5039091D603A091D703EE
:100F2000B091D8030097A105B10541F58E010F5F7F
:100F30001F4F21E030E040E050E066E370E081E0E8
:100F400090E00E94CB068C018981837F8983AE016A
:100F50004F5F5F4F66E370E081E090E00E94B40570
:100F6000802B912B8C299D290F90DF91CF911F9180
:100F70000F91FF90EF90DF90CF9008958130910511
:100F8000A105B10539F584E08983AE014F5F5F4F5C
:100F900061E070E0CB010E94B4057C018E010F5F1F
:100FA0001F4F21E030E040E050E065E370E081E079
:100FB00090E00E94CB068E299F29C82AD92A8981D0
:100FC00083608983A80165E370E081E090E00E947E
:100FD000B405C8CF0297A105B10511F41982D5CF88
:100FE00085EF9FEFC1CFCF92DF92EF92FF921F93D9
:100FF000CF93DF93C82FD62F172FF8940E94EF04BA
:10100000C0908104D0908204E0908304F090840426
:1010100078946C197D098E099F09C0907804D0904E
:101020007904E0907A04F0907B046C157D058E05C0
:101030009F0550F08D2F912FDF91CF911F91FF9041
:10104000EF90DF90CF90089580917D048C1790F3FE
:10105000F8948C2F90E081509048880F991F209130
:101060007E0430917F04820F931FFC012081318127
:10107000789480917004909171044091740450911F
:101080007504BC01641B750B2617370798F2609135
:10109000720470917304460F571F4217530750F2A2
:1010A0002817390748F2C9016217730728F6CB01E0
:1010B000C3CF8F929F92AF92BF92CF92DF92EF9267
:1010C000FF924B015C010E94EF046B017C010E94C6
:1010D000EF046C197D098E099F09683E73408105F4
:1010E0009105A8F321E0821A9108A108B10888EEC1
:1010F000C80E83E0D81EE11CF11C81149104A104E8
:10110000B10429F7FF90EF90DF90CF90BF90AF90A0
:101110009F908F900895089508950895AF92BF927B
:10112000CF92DF92EF92FF920F931F93CF93DF93B3
:101130006C017B018B01040F151FEB015E01AE18E2
:10114000BF08C017D10759F06991D601ED91FC9104
:101150000190F081E02DC6010995892B79F7C50131
:10116000DF91CF911F910F91FF90EF90DF90CF9083
:10117000BF90AF900895FB0120813181803119F437
:10118000322723273227FA013183208308952F92B3
:101190003F924F925F926F927F928F929F92AF9207
:1011A000BF92CF92DF92EF92FF920F931F93CF9354
:1011B000DF93CDB7DEB7A2970FB6F894DEBF0FBEB0
:1011C000CDBF1C019C0128583F4F3C832B83D90184
:1011D0004D935D936D937C9313970E94EF04F101FF
:1011E000E859FF4F60837183828393833497008132
:1011F0001181228133816B017C01C01AD10AE20A7C
:10120000F30AD1019C960D911D912D913C919F97D0
:10121000C016D106E206F306F0F4B496608171813F
:1012200082819381A2960FB6F894DEBF0FBECDBF28
:10123000DF91CF911F910F91FF90EF90DF90CF90B2
:10124000BF90AF909F908F907F906F905F904F90E6
:101250003F902F9008956083718382839383AB8145
:10126000BC812D913D914D915C912D8B3E8B4F8B8F
:10127000588FF101EC57FF4F60817181828193811A
:101280000E9452336B837C838D839E83F101E459EA
:10129000FF4F6083718382839383709620813181B5
:1012A000428153816D897E898F89988D0E94523346
:1012B0006B017C01F101E058FF4FC082D182E282D4
:1012C000F382709720813181428153812D873E873F
:1012D0004F87588B6B817C818D819E810E94523318
:1012E0002B013C01F101EC58FF4F40825182628298
:1012F0007382D10196966D917C91072E000C880B1C
:10130000990B0E94B231698B7A8B8B8B9C8BF1018C
:1013100024A935A946A957A90E9411329B01AC0105
:10132000D10190968D919C91F101E457FF4FFA8F76
:10133000E98F892B09F01DC26B817C818D819E8193
:101340000E941132A98DBA8D6D937D938D939C93DC
:101350001397F101EC5BFF4F80809180A280B380F6
:101360003496B081B98321812A8332813F834381BE
:1013700048872B2F3A814F815885B401C5010E94BF
:10138000AB31882399F1B10164577F4F7A8F698F10
:10139000DB01BC91B987FB01F181FA87DB01129671
:1013A0001C91129713960C9129853F2F412F502F96
:1013B000B401C5010E943D35181684F029853A858F
:1013C000412F502F69817A818F8198850E94AB319E
:1013D00087FFDEC189809A80AF80B884C401D501BF
:1013E000E98DFA8D80839183A283B383D101D09656
:1013F0008D909D90AD90BC90D397DC962D913D91B2
:101400004D915C91DF9769897A898B899C890E94CB
:101410001132A50194010E9436349B01AC01505851
:10142000F10182A193A1B1016C567F4F7A8F698F30
:10143000892B09F0B2C1C301B2010E941132A98DFA
:10144000BA8D6D937D938D939C931397F101EC5A14
:10145000FF4F008111812281288733813F83349699
:1014600060804181498352815A837380262D342FB5
:10147000452F572DB80188859F810E94AB31882365
:1014800071F1210164E9460E511CD201CC901196F4
:10149000DC9011971296EC9012971396FC9096019F
:1014A000A701B80188859F810E943D3518167CF000
:1014B0009601A701662D79818A81972D0E94AB3113
:1014C00087FF76C1062D1981BA81B8877F82C8014E
:1014D000A885BF81F20180839183A283B383D10168
:1014E000D8962D913D914D915C91DB9769897A89D0
:1014F0008B899C890E941132A50194010E941132AE
:101500002B813C814D815E810E941132F101E057B7
:10151000FF4FFA8FE98F20813181428153810E94F0
:1015200053336B017C01A98DBA8DCD92DD92ED9282
:10153000FC921397F10184A195A1E45AFF4F2081F9
:10154000298331813A8342814F835381588734966E
:101550006081698771817A87A281AB87B381BC87FB
:10156000BC962081318142815381298F3A8F4B8FE4
:101570005C8F389640815181628173814D8F5E8F7F
:101580006F8F78A38130910509F020C129853A85B4
:10159000AD0169817A818F8198850E94AB31882362
:1015A00009F45CC0298D3A8D4B8D5C8DC701B60165
:1015B0000E9453332D8D3E8D4F8D58A10E94533381
:1015C000162F7AA389A3892E29813A814F815885C4
:1015D0000E94AB3187FDF0C029853A854B855C853B
:1015E000612F7AA189A1982D0E943D3518160CF41F
:1015F000E8C0912EAAA0B9A0082DB10160577F4F75
:101600007E876D87F101E05CFF4F2081318142814F
:10161000538169897A898B899C890E9411322B01B7
:101620003C01292D3A2D4B2D502F612F7AA189A1F4
:10163000982D0E9452339B01AC01C301B2010E945C
:1016400011329B01AC01C701B6010E945233AD8536
:10165000BE856D937D938D939C931397F101E45B0D
:10166000FF4F00811181B281B98B23812D87349680
:10167000A080B180928083809501492D582DB801BA
:101680008B2F9D850E94AB31882359F1310130E9C0
:10169000630E711CD301CC901196DC9011971296B9
:1016A000EC9012971396FC909601A701B8018989D6
:1016B0009D850E943D35181664F09601A701B5017D
:1016C000892D982D0E94AB3187FFC4C08501998A6E
:1016D0008D86C801A989BD85F30180839183A2838A
:1016E000B383F101E057FF4F208131814281538163
:1016F000698D7A8D8B8D9C8D0E9453332D8D3E8DFF
:101700004F8D58A10E9453337B018C0129853A8566
:101710004B855C8569817A818F8198850E94AB3188
:10172000910128573F4F3E872D87811197C0C701F0
:10173000D801F90180839183A283B383F101E05939
:10174000FF4F2B813C814D815E8120833183428319
:1017500053833C964D895E896F89788D4083518390
:1017600062837383AD85BE856D917D918D919C91D2
:1017700059CDC701B6010E9411329B01AC01E98D20
:10178000FA8D60817181828193810E945233DACD1A
:1017900089849A84A12EB02E21CEC701B6010E9461
:1017A0001132E98DFA8D60837183828393834ECEEB
:1017B0008601E886FF828BCE9980AA80BF8008854B
:1017C0001CCF9984AA84BB840C8517CF029709F09B
:1017D00045CF20E030E0A9016B817C818D819E8125
:1017E0000E94AB31882371F120E030E0A9016B81C8
:1017F0007C818D819E810E94AB3187FF0BC020E0F0
:1018000030E0A9016D857E858F8598890E943D35E0
:1018100087FF18C020E030E0A9016B817C818D81B9
:101820009E810E943D3518160CF018CF20E030E064
:10183000A9016D857E858F8598890E94AB31181628
:101840000CF40CCFF101E057FF4F1082118212828D
:10185000138204CF8601E98AFD863BCF29813A8134
:101860004F815885B701C8010E94AB3187FD13C075
:1018700029853A854B855C85B701C8010E943D35B5
:10188000181624F4E984FA840B851C85C701D80155
:10189000ED85FE854FCFE980FA800F811885F6CF60
:1018A000CF93DF93EC01FC01E459FF4F10821182CA
:1018B000128213823496108211821282138234961D
:1018C0001082118212821382349610821182128247
:1018D00013823496108211821282138234961082FF
:1018E0001182128213823C9610821182128213821C
:1018F00034961082118212821382349610821182E1
:10190000128213823C9710821182128213820E94EB
:10191000EF04FE01EC59FF4F608371838283938350
:10192000C859DF4F688379838A839B83DF91CF9186
:1019300008956B3C98E0790714F06AEC78E06E3E0D
:1019400092E0790714F46EEE72E0685071099B0121
:10195000220F232F221F330B90E0FC01EE0FFF1FFD
:10196000E80FF91FE75DFD4F2183660F60956283E5
:1019700008951F93CF93DF93EC01162F80912802D7
:10198000811122C0E9E2F2E081E492E03BE027E548
:101990003483258333968E179F07D1F78EE3809388
:1019A0002A021092270210922602109270001092C2
:1019B000B00082E08093B1001092B20081E087BB5A
:1019C000809370008093280288818823A1F061E0D1
:1019D000812F0E948603E8818E2F90E0FC01EE0F9C
:1019E000FF1FE80FF91FE75DFD4F1F716081607EEB
:1019F000612B606260838881DF91CF911F91089590
:101A00008EBD00000DB407FEFDCF8EB50895DF92A8
:101A1000EF92FF920F931F93CF93DF937C01062FDA
:101A2000C42FD0E08EE1289FC00DD11D112481E08C
:101A300080938E0460E0809188040E943A0384E0E1
:101A40000E94000D80918E040E94000D85E00E948E
:101A5000000D8D2F0E94000D86E00E94000D8C2F3E
:101A60000E94000DE70110E0CE018E199F0980173A
:101A7000910744F4D99087E00E94000D8D2D0E94BB
:101A8000000DF2CF87E00E94000D8FEF0E94000D45
:101A900061E080918804DF91CF911F910F91FF90B9
:101AA000EF90DF900C943A03CF93DF931F92CDB762
:101AB000DEB7242F8983462F61E0CE0101960E9474
:101AC000070D0F90DF91CF910895CF92DF92EF92A3
:101AD000FF92CF93DF93C091B203D091B303C98833
:101AE000DA88EB88FC880E94EF04698B7A8B8B8BF9
:101AF0009C8B49895A896B897C894C195D096E09CF
:101B00007F098E819F81B0E0A0E084179507A6072A
:101B1000B70740F4188ADF91CF91FF90EF90DF90E4
:101B2000CF90089598898D859817A8F7888990E0B7
:101B3000880F991F2E853F85820F931FFC015183CB
:101B4000408388898F5F888BE6CFE0911303F09103
:101B500014033097C1F00288F389E02D309709F023
:101B6000099420910C0330E0A9014F5F5F4F4F7340
:101B7000552790910D03941731F02B513E4FF901E9
:101B8000808340930C030895CF93DF93EC01309151
:101B90000E033F3F91F1AE85BF858C91909112036A
:101BA000892359F126B599E0931B80910903280FE9
:101BB0008091E401281B80910A03289F9001112441
:101BC000232F33272695269592171306B0F480917C
:101BD000E3012091E201915018F0822B220FFBCFFC
:101BE0008093E3012093E20190930E030E94A50DE0
:101BF00081E02A893B89232B09F080E0DF91CF9196
:101C00000895EF92FF920F931F93CF93DF93E6B463
:101C1000F0901203F82290910E039F3F91F4F1107F
:101C200009C010920E0381E08093E2011092E3015B
:101C3000E092E401DF91CF911F910F91FF90EF901F
:101C40000895C0910903CE0D8091E401C81B8091D5
:101C50000A03C89FE0011124CD2FDD27C695C69544
:101C600029E0291B022F10E00C171D0708F02C2F6C
:101C7000920F90930E034091E2018091E301F110E5
:101C800011C02150342F330F2F3F19F0842B432FD5
:101C9000F8CF8093E3013093E201983048F20E943C
:101CA000A50D13C02150330B01C0440F2A95EAF74C
:101CB0004093E201842B8093E301983008F4B8CF7D
:101CC0000E94A50D81E0F81621F00C171D0708F4FD
:101CD000A8CF8FEF80930E03ABCFCF92DF92EF921E
:101CE000FF920F931F93CF93DF938C01D62E809199
:101CF0000F0390911003892B09F454C0D8011C964E
:101D00009C91D4E0983048F081E09E3008F480E067
:101D1000D1E001C0DD0F8A95EAF7CFB6F894F6B4AA
:101D200090E0E12CE394E0910F03F0911003809197
:101D30001103BAE0EB1651F19923D9F09081892B68
:101D40008083C0910B03C63011F4E0FCC7E086B578
:101D50008F198C17B0F48BB38D2379F08BB38D2B47
:101D60008BBBD8011E96ED91FC9180810E94010EE3
:101D7000EECF908180958923E3CFC8010E94C40DE6
:101D8000E6CFFC0E9D2D9170D694CCCF9081892BFF
:101D90008083CFBE86B58F198C1778F4C8010E9456
:101DA000C40DF8CF90E080E0DF91CF911F910F91AB
:101DB000FF90EF90DF90CF90089581E090E0F4CF16
:101DC00020910D0380910C03821769F030E0F90136
:101DD000EB51FE4F80812F5F3F4F2F7333272093AE
:101DE0000D0390E008958FEF9FEF08959C0180917F
:101DF0000C0390910D03891B990B805C9F4F60E44D
:101E000070E00E94C535811105C0C901F8940E9497
:101E1000C40D789490E008958F929F92AF92BF92F4
:101E2000CF92DF92EF92FF926B017C01BC01A60181
:101E300082E076956795579547958A95D1F7D701B2
:101E4000C60124E0B695A795979587952A95D1F771
:101E5000840F951FA61FB71F4C015D0134E0B69497
:101E6000A794979487943A95D1F7880D991DAA1D48
:101E7000BB1D892E9A2EAB2EBB24880E991EAA1E3E
:101E8000BB1EC501AA27BB27880E991EAA1EBB1E12
:101E9000A3E0B0E0A50194010E940133A7019601DF
:101EA000261B370B480B590BABE0B0E00E94013307
:101EB000E5E09695879577956795EA95D1F7680D52
:101EC000791D8A1D9B1DFF90EF90DF90CF90BF90F2
:101ED000AF909F908F900895CF92DF92EF92FF92F4
:101EE0001F93CF93DF93EC01162F80915204811141
:101EF0000BC0188219821A821B821092530480919F
:101F000054048260809354041E3291F11C3209F013
:101F100064C080915304882359F180915304843024
:101F200009F07CC0288139814A815B81A4E6B0E058
:101F30000E940133688379838A839B83C880D98018
:101F4000EA80FB80C701B601660F771F881F991FC3
:101F50006F5F7F4F8F4F9F4F0E940C0FC60ED71E93
:101F6000E81EF91EC882D982EA82FB8281E02AC07B
:101F700081E0809353042981822F82958F702F7086
:101F80003AE0839F200D11248A8181112C59888188
:101F9000982F92959F708F703AE0939F800D112437
:101FA0009CE3299F90011124820F932F911D092EEC
:101FB000000CAA0BBB0B88839983AA83BB831E32B8
:101FC00049F480E0DF91CF911F91FF90EF90DF9077
:101FD000CF9008951C3209F4A0CF80915304811151
:101FE00043C088819981AA81BB8134E0880F991F01
:101FF000AA1FBB1F3A95D1F7412F110F550B405324
:102000005109052E000C660B770B842B952BA62B04
:10201000B72B88839983AA83BB83D3CF853039F4C8
:10202000288139814A815B81AAE0B0E081CF863086
:1020300009F484CF08F09ACF288139814A815B81E5
:10204000A8EEB3E0833009F473CF823019F4A0E135
:10205000B7E26ECF813009F071CF60EA76E881E0B7
:1020600090E00E94CF3266CF8F5F80935304873019
:10207000C0F4288139814A815B81AAE0B0E00E94E6
:102080000133212F110F330B205331096901330F15
:10209000EE08FF08DC01CB018C0D9D1DAE1DBF1DA0
:1020A000B8CF873009F08DCFC880D980EA80FB8017
:1020B000C701B601660F771F881F991F6F5F7F4F9B
:1020C0008F4F9F4F0E940C0F6C0D7D1D8E1D9F1D0D
:1020D00019334CF06E5F7F4F8F4F9F4F688379832A
:1020E0008A839B836ECF1433CCF36F5F7F4F8F4F08
:1020F0009F4FF4CF682F80912C04813029F08630D7
:1021000009F481C081E00895E0915104E250E83083
:10211000C8F7F0E0E257FF4E0C94F8351511961011
:10212000B8102C11CA10D2108210F01080915404F3
:1021300082FFE8CF809152048111E4CF633511F71B
:102140008091390490913A04A0913B04B0913C04F1
:10215000B095A095909581959F4FAF4FBF4F8093BD
:10216000390490933A04A0933B04B0933C04CACF43
:102170006C3249F480915204811105C0809154045D
:102180008B7F809354048091540482FFBBCF8DE3F6
:1021900094E05FC0809152048111B4CF862F0E94D9
:1021A000D901B0CF809154048E7F809354048091E4
:1021B000520481110CC06C3209F4A4CF60536093B7
:1021C0004D0480914F04806280934F049BCF6C320A
:1021D000C1F380914D049AE0899F600D1124EECFE8
:1021E00042E081E494E00E944801882309F48ACF08
:1021F00091E080915204811101C090E080914F04E0
:1022000090FB82F9E1CFE0915104E250E73008F011
:1022100079CFF0E0E25FFE4E0C94F835CA1015114C
:102220009610B8102C11541167118091520481112D
:102230000AC091E06C3209F490E08091540490FB64
:1022400082F9809354048091540482FF5BCF89E328
:1022500094E00E946C0F56CF8091540482FF52CFBD
:102260008091520481114ECF80914F0482608093FF
:102270004F04673509F046CF80913D0490913E04AC
:10228000A0913F04B0914004B095A09590958195A0
:102290009F4FAF4FBF4F80933D0490933E04A09358
:1022A0003F04B09340042ECF43E085E494E00E94C5
:1022B0004801882309F426CF91E0809152048111CE
:1022C00001C090E080914F0490FB83F97DCF42E004
:1022D00089E494E00E944801882309F413CF91E037
:1022E00080915204811101C090E080914F0490FBD5
:1022F00084F96ACF4F925F926F927F928F929F92F2
:10230000AF92BF92CF92DF92EF92FF92CF93DF9383
:1023100000D000D0CDB7DEB76B017C0149015A0176
:1023200082E0482E512C612C712CC701A30192012F
:102330000E94D93529833A834B835C83C501B4015C
:10234000A30192010E94D93549805A806B807C801C
:10235000421A530A640A750A411487E158068BE54C
:1023600068068AEC7806E4F4C818D908EA08FB087D
:10237000C701B6017C558C4699420F900F900F9083
:102380000F90DF91CF91FF90EF90DF90CF90BF90B3
:10239000AF909F908F907F906F905F904F90089537
:1023A00081E0481689EE580684EA680685E37806D7
:1023B00054F0C818D908EA08FB08C701B601745AD6
:1023C0008349964DDACFC701B601681979098A09A0
:1023D0009B09D3CF2091BF01260F3327331F213212
:1023E0003105ECF42091DF02FC0190E080E0243024
:1023F00069F082E00895A091BF012191AC0141569E
:102400005E4FA40FB52FB11D2C930196861798F33C
:102410008091BF01680F6093BF0180E0089581E063
:1024200008951092DF0281E08093DE021092B902DB
:1024300061E082E10E943A0361E083E10E943A0395
:10244000E9EBF0E080818E7F808380818D7F8083C7
:1024500088E48093B80085E48093BC000895CF930E
:10246000DF9391E090939E018823B9F0C091B8006A
:10247000D091BA008091BC008A7B8093BC0060E060
:1024800082E10E943A0360E083E10E943A030E94E5
:102490001112D093BA00C093B800DF91CF91089584
:1024A0008F929F92AF92BF92CF92DF92EF92FF9264
:1024B0000F931F93CF93DF93D0910803D13208F08D
:1024C000D7C0182FC09107030E94EF046B017C0155
:1024D0008091DF0281116BC082E08093DF02109354
:1024E000DE028FEF8093DD021092DC02D093DB02DC
:1024F000A7EEB2E0EBEBF2E080E0D81391C01092CF
:10250000BA028091BA02CC0FC82BC093BA02809154
:10251000B902813009F088C01092B9020E94EF041C
:102520006B017C018091BA028093BB008091E10233
:102530009091E202A091E302B091E402892B8A2BF0
:102540008B2BA1F00E94EF040091E1021091E202B6
:102550002091E3023091E4026C197D098E099F09F4
:10256000061717072807390708F442C08091BC00F6
:1025700083FDD8CF85EC8093BC000E94EF046B01F3
:102580007C018091DF02823009F450C08091DD022D
:102590008F3F09F46FC08091DD02803209F46CC076
:1025A0008091DD02803309F469C084E026C0809107
:1025B000E1029091E202A091E302B091E402892B42
:1025C0008A2B8B2B09F484CF0E94EF048090E102C8
:1025D0009090E202A090E302B090E4026C197D09B1
:1025E0008E099F0986169706A806B90608F070CFCF
:1025F0008091E0020E942F1285E01092E602109274
:1026000008031092E502DF91CF911F910F91FF9087
:10261000EF90DF90CF90BF90AF909F908F900895F4
:102620009D9191938F5F69CF85EEA5CF8091E10257
:102630009091E202A091E302B091E402892B8A2BEF
:102640008B2B09F49ECF0E94EF040091E1021091C0
:10265000E2022091E3023091E4026C197D098E09B7
:102660009F09061717072807390708F08ACFC0CF38
:1026700081E0C3CF80E0C1CF82E0BFCF83E0BDCF98
:102680008F929F92AF92BF92EF92FF920F931F9300
:10269000CF937A0148015901DC010D911C91F80199
:1026A00081819281208131E03093E50220930703FC
:1026B0001092E60210920803DC01ED91FC9101906A
:1026C000F081E02D0995C0E08C2F90E0B0E0A0E013
:1026D00088159905AA05BB0588F4F80181819281C6
:1026E000D701AC0FB11DFC0120813181F90120819E
:1026F00031816C91F9010995CF5FE6CF81E00E94AD
:10270000501290E080E0CF911F910F91FF90EF90D9
:10271000BF90AF909F908F9008950895E0916A02C6
:1027200080916902E81730F4F0E0EC5BFD4F8081A6
:1027300090E008958FEF9FEF089590916A02809145
:1027400069022FEF3FEF981748F4E92FF0E0EC5BB8
:10275000FD4F208130E09F5F90936A02C901089588
:102760008091690290916A02891B990B0895CF921A
:10277000DF92EF92FF920F931F93CF93DF937C0131
:10278000CB018A012091E502222389F0EB016B0144
:10279000C40ED51ECC15DD0569F06991D701ED9108
:1027A000FC910190F081E02DC7010995F3CF642FD2
:1027B0000E94EA11C801DF91CF911F910F91FF9004
:1027C000EF90DF90CF900895CF93DF931F92CDB716
:1027D000DEB769832091E5022223F9F020910803F6
:1027E000203258F021E030E0FC013383228390E076
:1027F00080E00F90DF91CF9108958091E602E82F5D
:10280000F0E0E951FD4F998190838F5F8093E6025C
:102810008093080381E090E0ECCF61E0CE01019667
:102820000E94EA11F7CF0F931F93CF93DF939C0180
:102830008B01EA01809185049FEF980F983018F47E
:10284000B9010E94990C809186049FEF980F9830EF
:1028500018F4B8010E94990C809187049FEF980F9B
:10286000983038F4BE01DF91CF911F910F910C94F5
:10287000990CDF91CF911F910F910895DF92EF9204
:10288000FF920F931F93CF93DF93409135045091A4
:10289000360460913704709138044F5F5F4F6F4F7B
:1028A0007F4F409335045093360460933704709300
:1028B00038048432E9F48091540484FF03C08F7E8D
:1028C000809354041092500410922C0481E0809361
:1028D000550410925204809154048D7F80935404C7
:1028E000DF91CF911F910F91FF90EF90DF900895AE
:1028F000C82F80915504823081F5CA3231F483E0CB
:102900008093550410925204EBCF80EE8C0F8F35DC
:1029100050F4809150048C27809350048C2F0E9497
:102920007A10811107C010924F0410922C0410925B
:102930005504D6CFCC3259F4809154048D7F8093C6
:102940005404809151048F5F80935104DBCF8091B8
:1029500052048F5F80935204C3CF813009F061C06D
:10296000909150049C2790935004CC3271F4909134
:102970002C049923D1F210924F04809351041092A9
:10298000520482E080935504ABCF90915204923070
:1029900008F432C1DEEFD90F80912C04882309F4AA
:1029A0003EC08150E82FF0E0EE0FFF1FE253FE4FD4
:1029B0002591349150E040E0AD2FB0E061E0680F28
:1029C00070E0F901EA0FFB1FE491CE1709F411C181
:1029D000CE170CF4AACFDD24D394D80E873009F497
:1029E000A4CFFB01E40FF51FEE0FFF1FE253FE4FD4
:1029F000E590F49010E000E00D1760F4F901E00FAD
:102A0000F11F8491F701E00FF11FE4910F5F1F4F59
:102A10008E1791F34F5F5F4F8D2D9701D2CF80E0DE
:102A2000C1CF833009F0D5C0C0628FE98C0F8630EA
:102A300040F5C7559091520480915004911123C0E4
:102A400091E09093520490E024E0959587952A9523
:102A5000E1F7C817190609F443CF8091310490912A
:102A60003204A0913304B09134040196A11DB11D2C
:102A70008093310490933204A0933304B0933404D0
:102A800052CFC053D7CF8F7021E08C1301C020E00C
:102A90008C13B6C08091540481FF09C08D7F809350
:102AA00054049F5F909352048CE20E947A108091AC
:102AB0002D0490912E04A0912F04B0913004019622
:102AC000A11DB11D80932D0490932E04A0932F047B
:102AD000B093300490912C0421E0963009F020E06E
:102AE0008091540420FB84F980935404109255047F
:102AF00020916D04211172C080914F0480FF0CC0A1
:102B000030916C0420914E0430FF04C030916B046E
:102B1000321710F420936B0481FF09C088E0E9E3C9
:102B2000F4E0A6E5B4E001900D928A95E1F780917A
:102B30004F0482FF10C040914104509142046091C3
:102B400043047091440440935E0450935F04609387
:102B500060047093610484FF10C040914904509157
:102B60004A0460914B0470914C0440936604509366
:102B70006704609368047093690483FF10C04091F8
:102B80004504509146046091470470914804409375
:102B9000620450936304609364047093650485FF3A
:102BA00004C080914D0480936A0480914F04209169
:102BB0006C04822B80936C04963009F091CE1092B5
:102BC0006F0480916D0481118BCE81E080936D0440
:102BD00087CE811185CE10922C0482CE886080939E
:102BE000540410926E0480916D04815080936D04A2
:102BF00083CF8F5F80932C049F5F9093520470CE9D
:102C000021112BCF6DCE90E080E00895FC0114825D
:102C10001582168217821082118212821382118607
:102C20001086138612861586148617861686118AD4
:102C3000108A138A128A148A158A168A08952F9286
:102C40003F924F925F926F927F928F929F92AF923C
:102C5000BF92CF92DF92EF92FF920F931F93CF9389
:102C6000DF9300D000D000D01F92CDB7DEB75C83D9
:102C70004B8348015901DC010D90BC91A02DBA8312
:102C8000A98311968D919C9112972C9131E03093EC
:102C9000E502209307031092E60210920803DC017C
:102CA000ED91FC910190F081E02D099580E00E946A
:102CB000501210E000E0A80170E060E048155905EE
:102CC0006A057B0508F017C1E981FA81F081FE836E
:102CD0000115110549F021E02093E502F093070367
:102CE0001092E6021092080375016401C41AD50A15
:102CF000E60AF70A31E2C316D104E104F10428F030
:102D000080E2C82ED12CE12CF12C16010E94EF0498
:102D10002B013C018091DF0281116AC0CD8241E02C
:102D20004093DF024093DE025FEF5093DD0210928A
:102D3000DC02CA94C092DB024093BA028091BA02CC
:102D40009E81990F982B9093BA028091B90281309D
:102D500009F09CC01092B9020E94EF046B017C0143
:102D60008091BA028093BB008091E1029091E202CF
:102D7000A091E302B091E402892B8A2B8B2BA1F066
:102D80000E94EF044090E1025090E2026090E30262
:102D90007090E4026C197D098E099F09461657064A
:102DA0006806790608F445C08091BC0083FDD8CF41
:102DB000A5ECA093BC000E94EF046B017C01809104
:102DC000DF02813009F466C08091DC02ED818E174C
:102DD00018F4F091DC02FD83ABEBB2E0E4E4F2E046
:102DE00080E02D81821751F19D9191938F5FF9CFF2
:102DF0008091E1029091E202A091E302B091E4029D
:102E0000892B8A2B8B2B09F485CF0E94EF0420910C
:102E1000E1023091E2024091E3025091E402641930
:102E2000750986099709261737074807590708F0D3
:102E300071CF8091E0020E942F121D8210926A02CF
:102E40003D81309369023215130409F050C0F12C12
:102E50004F2D50E05F834E8342155305E8F5A9815D
:102E6000BA8111968D919C91DC01ED91FC910284C7
:102E7000F385E02D0995EE81FF812B813C81E20FE6
:102E8000F31FE00FF11F8083F394E2CFB5EEB09310
:102E9000BC0091CF8091E1029091E202A091E30207
:102EA000B091E402892B8A2B8B2B09F488CF0E94E6
:102EB000EF044090E1025090E2026090E3027090D3
:102EC000E4026C197D098E099F09461657066806AB
:102ED000790608F074CFADCF020D131DA80170E084
:102EE00060E081E0481559056A057B0509F080E03E
:102EF0000E945012E0CE81E090E0481559056A0525
:102F00007B0511F490E080E09195819591092796D9
:102F10000FB6F894DEBF0FBECDBFDF91CF911F91EA
:102F20000F91FF90EF90DF90CF90BF90AF909F9068
:102F30008F907F906F905F904F903F902F9008956B
:102F4000DF92EF92FF920F931F93CF93DF9300973F
:102F5000A9F1FC01208110E0222331F01F5FFC0168
:102F6000E10FF11D2081F8CFD42EE62EEC01812F48
:102F700090E00E941B36082FF92E282FA82FB92F7A
:102F80008A2F821B811740F4999180EE890F8B352F
:102F900008F0892F8D93F4CF2D2D4E2D612F802F8A
:102FA0009F2D0E94070D802F9F2DDF91CF911F91A4
:102FB0000F91FF90EF90DF900C94B736DF91CF9197
:102FC0001F910F91FF90EF90DF9008954F925F92C5
:102FD0006F927F928F929F92AF92BF92CF92DF9229
:102FE000EF92FF920F931F93CF93DF932B013C013E
:102FF000F42E922E802EA02EB12C6501CE0CD11C69
:10300000C60102960E941B36EC018C0120E0482D7F
:10301000EE2021F041E04E0D480D2E2DC301B201EE
:103020000E94562FFE0120E38191803211F08D32F3
:1030300019F4DF0111972C93CF018C1B9D0BC8163F
:10304000D90694F720E030E0A901C301B2010E9443
:10305000AB3187FF02C08DE28883FE01E1101BC007
:10306000EA0DFB1D1082492D6F2DCE010E94A01785
:10307000CE01DF91CF911F910F91FF90EF90DF90E4
:10308000CF90BF90AF909F908F907F906F905F9008
:103090004F900C94B736EC0DFD1D1182E4CFFC016E
:1030A000A0916B02B0916C0298E101900D929A95FB
:1030B000E1F7089585ED8093BC008091E102909145
:1030C000E202A091E302B091E4020796A11DB11DB6
:1030D00023E0B695A795979587952A95D1F72091E6
:1030E000BC0024FD03C01092DF0208954091E1026C
:1030F0005091E2026091E3027091E402452B462B6D
:10310000472B69F30097A105B10541F02AE22A9502
:10311000F1F700C00197A109B109E1CF8091E00268
:103120000C942F121F920F920FB60F9211242F930F
:103130003F938F939F93AF93BF938091B1029091F0
:10314000B202A091B302B091B4023091B00223E078
:10315000230F2D3758F50196A11DB11D2093B00204
:103160008093B1029093B202A093B302B093B402E1
:103170008091B5029091B602A091B702B091B802C9
:103180000196A11DB11D8093B5029093B602A09344
:10319000B702B093B802BF91AF919F918F913F91C9
:1031A0002F910F900FBE0F901F90189526E8230FB8
:1031B0000296A11DB11DD2CF1F920F920FB60F9292
:1031C00011242F933F934F935F936F937F938F932C
:1031D0009F93AF93BF93EF93FF93E0911201F09110
:1031E00013010995FF91EF91BF91AF919F918F913D
:1031F0007F916F915F914F913F912F910F900FBEF3
:103200000F901F9018951F920F920FB60F921124D6
:103210002F933F934F935F936F937F938F939F93DE
:10322000AF93BF93EF93FF93E0911001F0911101E1
:103230000995FF91EF91BF91AF919F918F917F91F0
:103240006F915F914F913F912F910F900FBE0F9013
:103250001F9018951F920F920FB60F9211242F9363
:103260003F934F935F936F937F938F939F93AF930E
:10327000BF93EF93FF9385E193E00E949702FF9144
:10328000EF91BF91AF919F918F917F916F915F91DE
:103290004F913F912F910F900FBE0F901F90189557
:1032A0001F920F920FB60F9211242F938F939F931B
:1032B000EF93FF93E0912503F09126038081E09145
:1032C0002B03F0912C0382FD1BC0908180912E0373
:1032D0008F5F8F7320912F03821741F0E0912E03AF
:1032E000F0E0EB5EFC4F958F80932E03FF91EF9102
:1032F0009F918F912F910F900FBE0F901F90189557
:103300008081F4CF1F920F920FB60F9211242F934A
:103310003F934F935F936F937F938F939F93AF935D
:10332000BF93EF93FF93809126028F5F80932602D5
:10333000E0912702209126028E2F90E0FC01EE0FF3
:10334000FF1FE80FF91FE75DFD4F8181E091270224
:1033500082131DC08E2F90E0FC01EE0FFF1FE80FBF
:10336000F91FE75DFD4F82818093B200FF91EF91DD
:10337000BF91AF919F918F917F916F915F914F918D
:103380003F912F910F900FBE0F901F901895209195
:1033900026028E2F90E0FC01EE0FFF1FE80FF91FB1
:1033A000E75DFD4F8181821708F7E09127028E2F9C
:1033B00090E0FC01EE0FFF1FE80FF91FE75DFD4FE6
:1033C000808185FF10C0E09127028E2F90E0FC01E4
:1033D000EE0FFF1FE80FF91FE75DFD4F808160E0F2
:1033E0008F710E943A03809127028F5F809327029A
:1033F000109226021092B20080912702882319F1C0
:10340000809127028930F8F4E09127028E2F90E016
:10341000FC01EE0FFF1FE80FF91FE75DFD4F8081F4
:1034200085FFA4CFE09127028E2F90E0FC01EE0FE4
:10343000FF1FE80FF91FE75DFD4F808161E08F718D
:103440000E943A0393CF80912702893008F48ECFEF
:10345000109227028BCF1F920F920FB60F9211245A
:103460002F933F934F935F936F937F938F939F938C
:10347000AF93BF93EF93FF9389B10E94010EFF9129
:10348000EF91BF91AF919F918F917F916F915F91DC
:103490004F913F912F910F900FBE0F901F90189555
:1034A0001F920F920FB60F9211242F933F934F93B9
:1034B0005F936F937F938F939F93AF93BF93EF939C
:1034C000FF9386B10E94010EFF91EF91BF91AF91E2
:1034D0009F918F917F916F915F914F913F912F912C
:1034E0000F900FBE0F901F9018951F920F920FB65E
:1034F0000F9211242F933F934F935F936F937F937A
:103500008F939F93AF93BF93EF93FF9383B10E94E9
:10351000010EFF91EF91BF91AF919F918F917F919C
:103520006F915F914F913F912F910F900FBE0F9030
:103530001F9018951F920F920FB60F9211242F9380
:103540003F934F935F936F937F938F939F93AF932B
:10355000BF93EF93FF938091B900887F803609F481
:103560004AC0F0F5883209F4A7C018F5803109F493
:103570009BC0B8F4882309F4F9C0883009F494C0DA
:10358000FF91EF91BF91AF919F918F917F916F913B
:103590005F914F913F912F910F900FBE0F901F9011
:1035A0001895883109F488C0803251F78093DD0284
:1035B00014C0803409F49DC040F48033B9F38833DB
:1035C000F9F68093DD0285ECB0C0803509F485C042
:1035D000883509F496C0883499F60E945A18D0CFDD
:1035E000883909F48CC038F5883729F050F48836CA
:1035F00011F0803729F683E08093DF021092E10119
:1036000057C0883809F47BC0803919F0803809F038
:10361000B7CF8091E101803208F071C0E091E10103
:1036200081E08E0F8093E1018091BB00F0E0EF53C9
:10363000FE4F80833DC0803B39F0E0F4803A09F4CE
:1036400079C0883A09F09CCF84E08093DF02109221
:10365000C0011092BF01E0916502F09166020995E8
:103660008091BF0181110FC081E08093BF01109252
:103670009F0109C0803C09F4A6CF883C09F4A3CF80
:10368000883B09F07DCFE091C00181E08E0F8093EF
:10369000C001F0E0E156FE4F80818093BB00909125
:1036A000C0018091BF0129C08091BA028093BB0004
:1036B00085EC8093BC0064CF9091DC028091DB02AA
:1036C000981758F5E091DC0281E08E0F8093DC02C0
:1036D000F0E0E554FD4F8081E9CFE091DC0281E02C
:1036E0008E0F8093DC028091BB00F0E0E554FD4F2B
:1036F00080839091DC028091DB029817C8F285E804
:10370000D8CFE091DC0281E08E0F8093DC028091C3
:10371000BB00F0E0E554FD4F80838091DE02811113
:103720005CCF81E08093B90284EA8093BC00109260
:10373000DF0226CF85EC8093BC001092DF028091DF
:10374000E101803230F4E091E101F0E0EF53FE4F0F
:1037500010826091E10170E0E0916702F0916802EF
:1037600081EC91E009951092E1010ACF1092DD02FF
:1037700034CF0F931F93CF93DF931F92CDB7DEB754
:103780008E010F5F1F4F21E030E040E050E06FE11D
:1037900070E081E090E00E94CB068C018981806816
:1037A0008983AE014F5F5F4F6FE170E081E090E091
:1037B0000E94B405802B912B0F90DF91CF911F9128
:1037C0000F910895CF93DF93EC0184E0EAE1F1E0FB
:1037D000DE0101900D928A95E1F7FE0134968CE1AD
:1037E000DF011D928A95E9F719A218A281E090E005
:1037F0009BA38AA31DA21CA29FA38EA380E090E09E
:10380000A0E8BFE388A799A7AAA7BBA780EA96E884
:10381000A1E0B0E08CA79DA7AEA7BFA78DEC9CEC64
:10382000ACECBDE388AB99ABAAABBBAB1CAA1DAAA1
:103830001EAA1FAA18AE19AE1AAE1BAE1CAE1DAE44
:103840001EAE1FAEFC961082118212821382349635
:103850001082118212821382349610821182128297
:10386000138234961082118212821382349610824F
:103870001182128213823496108211821282138274
:103880003496108211821282138234961082118231
:103890001282138234961082118212821382CC59C2
:1038A000DF4F188219821A821B821C821D821E829F
:1038B0001F82188619861A861B861C861D861E8600
:1038C0001F86188A198A1A8A1B8A1C8A1D8A1E8AD0
:1038D0001F8A188E198E1A8E1B8E1C8E1D8E1E8EA0
:1038E0001F8E18A219A21AA21BA21CA21DA21EA200
:1038F0001FA218A619A61AA61BA61CA61DA61EA6C0
:103900001FA618AA19AA1AAA1BAADF91CF91089577
:10391000FC0190912502983028F49F5F9093250236
:10392000908308951082089510921803109217033F
:1039300088EE93E0A0E0B0E08093190390931A031F
:10394000A0931B03B0931C0323E631E030931603CE
:103950002093150325EC30E03093220320932103BC
:1039600024EC30E0309324032093230320EC30E058
:10397000309326032093250321EC30E03093280375
:103980002093270322EC30E030932A03209329036D
:1039900026EC30E030932C0320932B0310922E035F
:1039A00010922F0310923003109231031092B7033C
:1039B0001092B6038093B8039093B903A093BA030F
:1039C000B093BB0325E731E03093B5032093B403F4
:1039D0001092DE051092DD058093DF059093E005DF
:1039E000A093E105B093E20587E891E09093DC05B0
:1039F0008093DB0582E08093E7058FEF8093E805F5
:103A00001092EE051092ED0583E495E00E94E21B12
:103A10008BEA94E00E94E21B87E894E00E94881CF5
:103A200086E894E00E94881C85E894E00E94881C47
:103A300088EE93E0909371048093700480ED97E09A
:103A400090937304809372048AE090E090937504DD
:103A50008093740484E398E09093770480937604D1
:103A600080E291EAA7E0B0E0809378049093790433
:103A7000A0937A04B0937B0483E080937C0485E078
:103A800080937D041092800410928104109282042D
:103A900010928304109284048AE090E00E941B3606
:103AA000FC0190937F0480937E0411821082138224
:103AB000128215821482178216821186108660E0A7
:103AC00083E00E9486038091B2039091B303892B17
:103AD00091F480E794E09093B3038093B20385E67A
:103AE0009DE09093130180931201809169008C6096
:103AF00080936900E99A89E394E00E94061686E5BE
:103B000094E00E94061610922D0410922E0410923A
:103B10002F0410923004109231041092320410924B
:103B2000330410923404109235041092360410922B
:103B300037041092380489E394E00E94061610922C
:103B4000550485E194E00E94061684EB93E090937F
:103B5000C2038093C10388E68093C00380E89AE1A2
:103B6000A6E0B0E08093C3039093C403A093C50381
:103B7000B093C6030895CF93DF93CDB7DEB7CC578C
:103B8000D1090FB6F894DEBF0FBECDBF789484B5CF
:103B9000826084BD84B5816084BD85B5826085BD49
:103BA00085B5816085BD80916E00816080936E00D7
:103BB00010928100809181008260809381008091C9
:103BC000810081608093810080918000816080937A
:103BD00080008091B10084608093B1008091B0003A
:103BE00081608093B00080917A00846080937A0035
:103BF00080917A00826080937A0080917A0081605F
:103C000080937A0080917A00806880937A00109285
:103C1000C1001FB7F89480916402811127C0EAE1C6
:103C2000F2E08491EEE2F2E09491E82FF0E0EE0F02
:103C3000FF1FE252FE4FA591B491EC91E92321F4CC
:103C400061E08AE00E943A0361E08AE00E94860314
:103C50008CB580618CBD8CB580648CBD61E08DE0DD
:103C60000E94860361E08BE00E94860380916402DB
:103C70008F5F809364021FBF10926A0210926902E4
:103C80001092E602109208030E9411128BE898E04D
:103C900090936602809365028CE898E090936802A6
:103CA000809367026AEF70E080E090E00E9459081C
:103CB0008FB7F8942EE334E13093EE052093ED05B1
:103CC0008FBF8091EB059091EC058038954279F09B
:103CD00080E895E29093EC058093EB0580911303C7
:103CE000909114038B5D954011F40E94B7030E94DC
:103CF000B70384E690E0909375048093740488E998
:103D000098E0909377048093760410926A02109260
:103D100069021092E602109208030E9411128BE8C9
:103D200098E090936602809365028CE898E0909307
:103D30006802809367022091C3033091C4034091CD
:103D4000C5035091C60360E074E284EF90E00E94E6
:103D5000DF32205131094109510956954795379570
:103D600027952093B800E9EDF3E08CE3DF011D9285
:103D70008A95E9F780EC93E09093C8038093C7039A
:103D80008FE196E19093CA038093C90380E493E1A5
:103D90009093CC038093CB0380E09AE0A0E0B0E066
:103DA0008093CD039093CE03A093CF03B093D00321
:103DB0008093D1039093D203A093D303B093D40301
:103DC0001092D5031092D6031092D7031092D80305
:103DD00088EB9BE00E94E4041092DF031092DE0364
:103DE0001092DD030E9469076C011982AE014F5FDA
:103DF0005F4F6CE770E081E090E00E94B4058C01B9
:103E0000AE014F5F5F4F69E770E081E090E00E9494
:103E1000B405082B192B80E18983AE014F5F5F4FFA
:103E200062E070E081E090E00E94B405082B192B5D
:103E300088EE93E00E94E4040E9469077801E82A72
:103E4000F92A8E010F5F1F4F21E030E040E050E083
:103E50006AE370E081E090E00E94CB068701082BC6
:103E6000192B8981803111F0046F1F6F29ED33E028
:103E700041E050E060E070E08FE10E942D02082BED
:103E8000192B2AED33E041E050E060E070E080E281
:103E90000E942D023C012BED33E041E050E060E058
:103EA00070E081E20E942D022C016CED73E090E045
:103EB00080E00E947B061092DD030C291D29602AF8
:103EC000712A64287528682A792A8E010F5F1F4F8E
:103ED00021E030E040E050E065E370E081E090E018
:103EE0000E94CB062C01892B21F49981907190932B
:103EF0000104642875280E94140569969FAF8EAF4F
:103F000069978E010F5F1F4F21E030E040E050E0E5
:103F100063E070E080E090E00E94CB062C01898194
:103F20008F788983A80163E070E080E090E00E94D0
:103F3000B4051C0121E030E040E050E060E070E0BA
:103F4000CB010E94CB06A9969FAF8EAFA99789811E
:103F50008D7F8983A80160E070E0CB010E94B405E9
:103F60006D969FAF8EAF6D970E943D06A1969FAF55
:103F70008EAFA19721E030E040E050E060E070E0DB
:103F8000CB010E94CB06E1969FAF8EAFE19789816E
:103F900088608983A80160E070E0CB010E94B405CD
:103FA000AD969FAF8EAFAD9781E090E09093040403
:103FB000809303040E94140521E030E040E050E0CB
:103FC00065E370E081E090E00E94CB06ED969FAF44
:103FD0008EAFED9789818F7980648983A80165E32D
:103FE00070E081E090E00E94B405EB969FAF8EAF49
:103FF000EB9721E030E040E050E068E270E081E0E3
:1040000090E00E94CB06E9969FAF8EAFE997898139
:104010008C7F82608983A80168E270E081E090E093
:104020000E94B405E7969FAF8EAFE79721E030E09E
:1040300040E050E060E070E0CB010E94CB06E596E6
:104040009FAF8EAFE597898181608983A80160E089
:1040500070E0CB010E94B405A5969FAF8EAFA597E7
:1040600021E030E040E050E061E070E080E090E08E
:104070000E94CB064C018981807F87628983A801D9
:1040800061E070E080E090E00E94B4055C0181E0B6
:104090008983A80169E270E081E090E00E94B405A4
:1040A0006C010E943D067C0121E030E040E050E0E0
:1040B00062E070E080E090E00E94CB068C01898194
:1040C00081608983AE014F5F5F4F62E070E080E006
:1040D00090E00E94B4052FEF20930504209306047E
:1040E00020930704209308041092090410920A04F4
:1040F00010920B0410920C0420930D0420930E04D4
:1041000020930F04209310041092110410921204B3
:10411000109213041092140469962EAD3FAD699766
:10412000262937292429352922293329A9964EAC55
:104130005FACA997242935296D966EAC7FAC6D973D
:1041400026293729A1964EAC5FACA19724293529A1
:10415000E1966EAC7FACE19726293729AD964EAC3F
:104160005FACAD9724293529ED966EAC7FACED9709
:1041700026293729EB964EAC5FACEB9724293529DD
:10418000E9966EAC7FACE99726293729E7964EACC5
:104190005FACE79724293529E5966EAC7FACE597AF
:1041A00026293729A5964EAC5FACA5972429352939
:1041B000822A932AA828B928CA28DB28EC28FD28B7
:1041C0000E291F29082B192B012BA9F48FE498E144
:1041D0009093DF038093DE038E010F5F1F4F21E07A
:1041E00030E040E050E065E770E081E090E00E9460
:1041F000CB06892B09F0FFCF89818736E1F78E0145
:104200000F5F1F4F21E030E040E050E061E270E0DE
:1042100081E090E00E94CB06898180668983A801B5
:1042200061E270E081E090E00E94B40521E030E0BE
:1042300040E050E061E270E081E090E00E94CB0657
:104240008981807F89608983A80161E270E081E0D3
:1042500090E00E94B405085E1F4F21E030E040E08E
:1042600050E06FE170E081E090E00E94CB06898D24
:10427000282F2370F22E32E0231332C083FD30C08A
:104280008E010F5F1F4F21E030E040E050E061E21F
:1042900070E081E090E00E94CB0689818F7090E011
:1042A000B0E0A0E00597A109B109812C14EC912E92
:1042B00019E0A12EB12C8A309105A105B10558F461
:1042C000FC01EE0FFF1FE80FF91FE65CFE4F808137
:1042D0009181A2814C010E94B91BC4010E94E40497
:1042E0008E01075E1F4F21E030E040E050E06FE1BB
:1042F00070E081E090E00E94CB06898D8360898F19
:10430000A8016FE170E081E090E00E94B40588ECC4
:1043100090E00E94E404F1101AC08091030490918F
:104320000404892BA1F00E94EF048B019C0160938F
:104330000D0410930E0480930F0430931004109218
:1043400011041092120410921304109214048E019E
:104350000F5F1F4F21E030E040E050E060E270E08E
:1043600081E090E00E94CB06898180668983A80164
:1043700060E270E081E090E00E94B40521E030E06E
:1043800040E050E060E270E081E090E00E94CB0607
:104390008981807F89608983A80160E270E081E083
:1043A00090E00E94B405085E1F4F21E030E040E03D
:1043B00050E06FE170E081E090E00E94CB06898DD3
:1043C000482F4C70F42E982F9370923061F583FD36
:1043D0002AC00851110921E030E040E050E061E2DC
:1043E00070E081E090E00E94CB0689818F7090E0C0
:1043F000B0E0A0E00597A109B1098A309105A105B7
:10440000B10508F042C1FC01EE0FFF1FE80FF91FD4
:10441000E65CFE4F80819181A2814C010E94B91B14
:10442000C4010E94E4048E01075E1F4F21E030E0CA
:1044300040E050E06FE170E081E090E00E94CB0648
:10444000898D8C60898FA8016FE170E081E090E038
:104450000E94B40588EC90E00E94E404F1101AC0B8
:104460008091030490910404892BA1F00E94EF0431
:104470008B019C016093050410930604809307044C
:10448000309308041092090410920A0410920B044D
:1044900010920C0464E670E080E090E00E945908FD
:1044A0000E94EF0460937702709378028093790200
:1044B00090937A028AE0809388041092890487E4BA
:1044C00080938B0461E08AE00E94860361E08AE0C9
:1044D0000E943A0364E670E080E090E00E94590890
:1044E00060E0809188040E943A0380E00E94000D01
:1044F00082E480938A040E94000D61E08091880428
:104500000E943A0364EF71E080E090E00E94590855
:1045100060E0809188040E943A03F8E8EF2EF4E00E
:10452000FF2E10E182E0D7011F968C93812F0E940D
:10453000000DF70187850E94000DFFEFEF1AFF0ABB
:104540001F5F103279F784E080938A0480E00E9434
:10455000000D80918A040E94000D61E08091880422
:104560000E943A0384E380938C048CE180938D0451
:1045700060E0809188040E943A0382E00E94000D6E
:1045800080918C040E94000D83E00E94000D8091B8
:104590008D040E94000D61E0809188040E943A031E
:1045A00080918B048C608C7F80938B0460E0809181
:1045B00088040E943A0381E00E94000D80918B04E0
:1045C0000E94000D61E0809188040E943A0380916E
:1045D0008A048F7C80938A0460E0809188040E9422
:1045E0003A0380E00E94000D80918A040E94000D31
:1045F00061E0809188040E943A03809189048111CE
:104600001AC080918A048064886080938A0460E084
:10461000809188040E943A0380E00E94000D8091FE
:104620008A040E94000D61E0809188040E943A0390
:1046300081E08093890446E069E085E991E00E9489
:10464000A01760ED77E080E090E00E94590880912B
:104650008E04846080938E0460E0809188040E94C0
:104660003A0384E00E94000D80918E040E94000DA8
:1046700080918E0482FF10C084E80E94000D80E0CB
:104680000E94000D80938E04F3CF812CA4EC9A2E0F
:10469000A9E0AA2EB12CC2CE61E0809188040E94CC
:1046A0003A0380E090E0A0EAB1E48093770590932C
:1046B0007805A0937905B0937A058FE692E1A3E09F
:1046C000BBE380937B0590937C05A0937D05B0931D
:1046D0007E0580E090E0A0E0BFE380937F059093AB
:1046E0008005A0938105B093820580E090E0AAEF59
:1046F000B3EC80939F059093A005A093A105B09380
:10470000A20580E090E0AAEFB3E48093A305909324
:10471000A405A093A505B093A60580916905909185
:104720006A05019651F08FEF9FEF90936A05809391
:10473000690583E495E00E94500C809108019091F6
:104740000901A0910A01B0910B018093C7059093D4
:10475000C805A093C905B093CA0581E090E0909385
:1047600068058093670580916F0590917005A09111
:104770007105B091720580329E44A105B105E1F04A
:1047800080E29EE4A0E0B0E080936F059093700516
:10479000A0937105B09372058AE097EDA3EABCE39C
:1047A0008093730590937405A0937505B093760577
:1047B00083E495E00E94500C80E090E0A0EAB1E430
:1047C0008093DF049093E004A093E104B093E204AB
:1047D0008FE692E1A3E0BBE38093E3049093E404CB
:1047E000A093E504B093E60480E090E0A0E0BFE38E
:1047F0008093E7049093E804A093E904B093EA045B
:1048000080E090E0AAEFB3EC809307059093080551
:10481000A0930905B0930A0580E090E0AAEFB3E405
:1048200080930B0590930C05A0930D05B0930E0596
:104830008091D1049091D204019751F081E090E0F1
:104840009093D2048093D1048BEA94E00E94500CA0
:1048500080910C0190910D01A0910E01B0910F017A
:1048600080932F0590933005A0933105B0933205C6
:1048700081E090E09093D0048093CF048091D7049E
:104880009091D804A091D904B091DA0480329E446A
:10489000A105B105E1F080E29EE4A0E0B0E08093E4
:1048A000D7049093D804A093D904B093DA048AE093
:1048B00097EDA3EABCE38093DB049093DC04A09320
:1048C000DD04B093DE048BEA94E00E94500C60E0BB
:1048D00081E10E94860369E070E085E894E00E942F
:1048E000B90C66E070E086E894E00E94B90C65E0DF
:1048F00070E087E894E00E94B90C48EE53E06CED5C
:1049000075E08CED95E00E9413140E94EF04609313
:10491000AA027093AB028093AC029093AD028EE436
:1049200090E08C0F9D1F0296E5969FAF8EAFE597A6
:10493000A8E4B0E0AC0FBD1F1296E796BFAFAEAFD4
:10494000E797E9E1F0E0EC0FFD1FF0936C02E093D4
:104950006B028E010A5A1F4F21E030E040E050E028
:1049600069E370E081E090E00E94CB06892B09F0BA
:1049700074C067968FAD679780FF6FC002501109B2
:1049800022E030E040E050E069E070E081E090E05B
:104990000E94CB06AE014F5E5F4FB80180910104CB
:1049A0000E94BB080650110926E030E040E050E0CC
:1049B0006BE070E081E090E00E94CB06AE014B5FBF
:1049C0005F4FB801809101040E94BB08AE01495FAE
:1049D0005F4FE5966EAD7FADE597809101040E9433
:1049E000BB08AE01475F5F4FB8016C5F7F4F80919E
:1049F00001040E94BB080650110926E030E040E0A7
:104A000050E061E170E081E090E00E94CB06AE01F1
:104A1000455F5F4FB801809101040E94BB08AE0161
:104A2000435F5F4FE7966EAD7FADE79780910104DE
:104A30000E94BB08AE01415F5F4FB8016C5F7F4FC2
:104A4000809101040E94BB08E091DE03F091DF0336
:104A5000309719F0CE01019609950D8D1E8D10939A
:104A6000720200937102EF8CF8A0F0927402E0924F
:104A70007302C9A0DAA0D0927602C09275022BA070
:104A80003CA03092700220926F024DA05EA0699609
:104A90005FAE4EAE699750926E0240926D020E94D8
:104AA000EF044B015C018091770290917802A09114
:104AB0007902B0917A02A5019401281B390B4A0BA7
:104AC0005B0BCA01B9010E94B03120E034E244E737
:104AD00059E40E9436342B013C0180927702909277
:104AE0007802A0927902B0927A02B601DD0C880BAE
:104AF000990B0E94B2314B015C01B701FF0C880B8E
:104B0000990B0E94B2316B017C01A50194010E94B6
:104B1000D233A3966CAF7DAF8EAF9FAFA397A501A5
:104B20009401C501B4010E9411324B015C01A7013F
:104B30009601C701B6010E9411329B01AC01C5016B
:104B4000B4010E9453330E9458356B017C016627E3
:104B50007727601B710B072E000C880B990B0E94A6
:104B6000B231A70196010E94D2336B017C01B101E1
:104B7000330C880B990B0E94B23120E030E043E007
:104B800053E40E943634A30192010E941132209115
:104B90007F023091800240918102509182020E94F6
:104BA00053332EEE3CE74FE75FE30E9411324B0197
:104BB0005C0120E030E044E353E4A3966CAD7DADAE
:104BC0008EAD9FADA3970E9411322BED3FE049E4DB
:104BD00050E40E94363420E032E143E05BE30E947F
:104BE00011329B01AC01C501B4010E9453334B014A
:104BF0005C0180927F0290928002A0928102B0922A
:104C0000820269964EAD5FAD6997BA01550F880B68
:104C1000990B0E94B23120E030E043E053E40E945F
:104C20003634A30192010E94113220917B0230910F
:104C30007C0240917D0250917E020E9453332EEE01
:104C40003CE74FE75FE30E9411322B013C0120E07B
:104C500030E044E353E4C701B6010E9411322BED6A
:104C60003FE049E450E40E94363420E032E143E082
:104C70005BE30E9411329B01AC01C301B2010E94AF
:104C800053336B017C01C0927B02D0927C02E09294
:104C90007D02F0927E028091080190910901A0911D
:104CA0000A01B0910B018093C7059093C805A093AA
:104CB000C905B093CA0580910C0190910D01A09196
:104CC0000E01B0910F0180932F0590933005A093B2
:104CD0003105B0933205B501A40183E495E00E944B
:104CE000C7086093A2027093A3028093A4029093DA
:104CF000A502B701A6018BEA94E00E94C708609361
:104D0000A6027093A7028093A8029093A90270E074
:104D100060E085E00E94F3078C0184E090E00115DB
:104D20001105D1F16CED75E081E00E94F3079093DD
:104D30000701809306016CED75E082E00E94F307A5
:104D4000909305018093040168EE73E083E00E9474
:104D5000F307909303018093020168EE73E084E00F
:104D60000E94F3079093010180930001053155E003
:104D7000150748F0053AA6E01A0740F082E090E0F7
:104D8000013D174048F090E080E006C0853A96402B
:104D900008F4DBC383E090E09093AF028093AE020F
:104DA00080916D04882309F483C2CE01C1960E94CC
:104DB000061680916D048823E1F0F89480916D04CB
:104DC000815080936D0480916E0427E1289FC0017B
:104DD0001124FC01EA5AFB4FDE01D19601900D929D
:104DE0002A95E1F78A5A9B4F0E94061610926E048C
:104DF000789487E1FE01F196A5E1B4E001900D926F
:104E00008A95E1F7809129048630D0F18091A10242
:104E1000811136C088E0E5E1F4E0A7E8B2E0019056
:104E20000D928A95E1F760911F0470912004072E7E
:104E3000000C880B990B0E94B2312AE037ED43E257
:104E40005CE30E9411326B017C0160911D04709142
:104E50001E04072E000C880B990B0E94B2319B0197
:104E6000AC01C701B6010E94533360938302709373
:104E70008402809385029093860281E08093A10250
:104E80008091A102882309F413C220911904309162
:104E90001A0440911B0450911C0460918B02709184
:104EA0008C0280918D0290918E020E947A114B01AA
:104EB0005C01409087025090880260908902709057
:104EC0008A02A3964CAE5DAE6EAE7FAEA3974090C5
:104ED00015045090160460901704709018046F9693
:104EE0004CAE5DAE6EAE7FAE6F97A3966CAD7DADF2
:104EF0008EAD9FADA39764197509860997096B015B
:104F00007C0197FF07C0CC24DD247601C61AD70A9E
:104F1000E80AF90A95018401B7FE07C000271127A6
:104F20009801081919092A093B0926013701400E81
:104F3000511E621E731EE3964CAE5DAE6EAE7FAE2A
:104F4000E3970E94B231AF966CAF7DAF8EAF9FAF4B
:104F5000AF9725E33AEF4EE85CE30E94113225E972
:104F60003FEB46ED53E30E9411326B017C0120E0E0
:104F700030E040E05FE30E9411322B013C01C501AB
:104F8000B4010E94B231AB966CAF7DAF8EAF9FAFD4
:104F9000AB9725E33AEF4EE85CE30E94113225E936
:104FA0003FEB46ED53E30E9411326B966CAF7DAF41
:104FB0008EAF9FAF6B976F966CAD7DAD8EAD9FAD95
:104FC0006F970E94B2314B015C0125E33AEF4EE846
:104FD0005CE30E94113225E93FEB46ED53E30E946A
:104FE00011326F966CAF7DAF8EAF9FAF6F97E39628
:104FF0002CAD3DAD4EAD5FADE397283E334041054E
:1050000051050CF0A5C26F962CAD3DAD4EAD5FAD18
:105010006F97C301B2010E9453330E9431349B0148
:10502000AC016B966CAD7DAD8EAD9FAD6B970E9464
:1050300011329B01AC010E9411324B015C01A701AE
:105040009601C701B6010E9411329B01AC01C50156
:10505000B4010E9453330E94583522E138E147ECF5
:1050600055E40E94113220E030E04AE754E40E9407
:1050700011322B013C0140929302509294026092B3
:1050800095027092960260911F0470912004072E81
:10509000000C880B990B0E94B2312AE037ED43E2F5
:1050A0005CE30E9411326B017C0160911D047091E0
:1050B0001E04072E000C880B990B0E94B2319B0135
:1050C000AC01C701B6010E94533320918302309195
:1050D000840240918502509186020E94523360936F
:1050E0009B0270939C0280939D0290939E026F9608
:1050F0006CAD7DAD8EAD9FAD6F970E943134A7969C
:105100006CAF7DAF8EAF9FAFA797E3962CAD3DAD53
:105110004EAD5FADE397283E3340410551050CF09D
:105120009CC2A7962CAD3DAD4EAD5FADA797AB969B
:105130006CAD7DAD8EAD9FADAB970E9411329B01E2
:10514000AC01AF966CAD7DAD8EAD9FADAF970E94BB
:10515000D2339B01AC016BED7FE089EC9FE30E94B1
:1051600052336B017C0120E030E0A9010E94AB3199
:1051700087FF0AC02BED3FE049EC50E4C701B601C0
:105180000E9453336B017C0120EE3EE245E652E47F
:10519000C701B6010E9411326B017C0160912704A6
:1051A00070912804072E000C880B990B0E94B231D5
:1051B0002AE037ED43E25CE30E9411324B015C01CF
:1051C0006091250470912604072E000C880B990B22
:1051D0000E94B2319B01AC01C501B4010E9453335E
:1051E0009B01AC01C701B6010E9452336B017C01E7
:1051F00020E030E044E353E40E943D3518160CF4FF
:10520000ABC2C0929702D0929802E0929902F092BB
:105210009A02C0909702D0909802E0909902F09084
:105220009A0220E030E044E353ECC701B6010E944B
:10523000AB3187FF10C020E030E044EB53E4C701FE
:10524000B6010E9453336093970270939802809343
:10525000990290939A0220E030E040EA51E4C301C1
:10526000B2010E94AB3187FD88C2C0909702D090F6
:105270009802E0909902F0909A0220E030E040E03D
:1052800051E4C701B6010E943D3518160CF478C2EE
:1052900001E010E020E030E040E051ECC701B60151
:1052A0000E94AB3187FF00E000939F021093A002A1
:1052B0008091540483FF03C0877F8093540483E468
:1052C00080937C0080917A00806480937A00809142
:1052D0007A0086FDFCCF6091780070917900072EEE
:1052E000000C880B990B0E94B23120E030E040EABC
:1052F00050E40E94113220E030E040E85AE30E947E
:10530000113226E636E646E15FE30E94363420E0BD
:1053100030E040E05FE30E94533360938F0270936C
:105320009002809391029093920260911504709183
:10533000160480911704909118040E94B23125E957
:105340003FEB46ED53E30E941132E5E0EE2E04E020
:1053500020E040E00E94E6176091190470911A0461
:1053600080911B0490911C040E94B23125E93FEB0F
:1053700046ED53E30E94113220E040E10E94E6171F
:1053800040E06BE086EB0E94540D6091290470E0D0
:1053900090E080E00E94B031E12C02E020E04CE09F
:1053A0000E94E6178091A102882309F4EBC186E8E8
:1053B00041E06CE00E94540D8091AE029091AF02EA
:1053C00001978430910508F0DFC1885A9E4FDC01B7
:1053D0008C9141E060E00E94540D46E060E087E877
:1053E0000E94540D60919B0270919C0280919D02DD
:1053F00090919E02E12C03E026E041E00E94E61736
:1054000046E069E18BEC0E94540D60912304709199
:105410002404072E000C880B990B0E94B2312FE652
:1054200032E143E85AE30E9411326B017C01609142
:10543000210470912204072E000C880B990B0E9406
:10544000B2319B01AC01C701B6010E94533326E57E
:105450003EE04DEE5FE30E941132E12C02E026E0D7
:1054600047E10E94E61780919F029091A002019768
:105470008330910508F08BC1845A9E4FFC018081D6
:105480004DE06CE00E94540D4DE069E189E80E9416
:10549000540D6091930270919402809195029091C5
:1054A0009602E12C04E02DE045E10E94E6174DE074
:1054B00064E087E90E94540D60918F027091900220
:1054C0008091910290919202EE24E39402E02DE00B
:1054D00040E00E94E6178091AE029091AF028230C8
:1054E000910509F4B3C208F055C1009709F4CBC186
:1054F000019709F409C20E94EF040091AA021091D9
:10550000AB022091AC023091AD02601B710B820B9B
:10551000930B603A7F408105910568F30E94EF0488
:105520006093AA027093AB028093AC029093AD0299
:1055300080E090E0892B09F404CA0E9426038823A6
:1055400009F4FFC90E940000FCC981E090E024CC6E
:10555000C301B2010E944A352B013C0120E030E03A
:1055600040E05FE36B966CAD7DAD8EAD9FAD6B970C
:105570000E9411320E944A356B017C0125E93FEB04
:1055800046ED53E3C501B4010E94113225E33AEF21
:105590004EE85CE30E9411320E9431344B015C0101
:1055A000A3966CAD7DAD8EAD9FADA3970E94B23139
:1055B00025E93FEB46ED53E30E94113225E33AEF34
:1055C0004EE85CE30E9411320E943134A7966CAF22
:1055D0007DAF8EAF9FAFA797A7019601C701B60118
:1055E0000E9411326B017C01A7962CAD3DAD4EADF2
:1055F0005FADA797C501B4010E9411329B01AC01B8
:10560000C701B6010E9411326B017C01A301920116
:10561000C301B2010E9411329B01AC01C701B60166
:105620000E9453336B017C01AC019B0160E070E090
:1056300080E89FE30E9452330E9458354B015C0181
:10564000C701B6010E945835A50194010E94D233CA
:105650009B01AC010E94533300CDA3966CAD7DAD90
:105660008EAD9FADA3970E94B23125E33AEF4EE88D
:105670005CE30E94113225E93FEB46ED53E30E94C3
:1056800011326B017C010E9431344B015C016B963D
:105690006CAD7DAD8EAD9FAD6B970E944A35A396E4
:1056A0006CAF7DAF8EAF9FAFA397C701B6010E94CD
:1056B0004A356B017C016F966CAD7DAD8EAD9FADB3
:1056C0006F970E944A356F966CAF7DAF8EAF9FAFDC
:1056D0006F976B966CAD7DAD8EAD9FAD6B970E9455
:1056E00031346B966CAF7DAF8EAF9FAF6B97A701D8
:1056F0009601A7966CAD7DAD8EAD9FADA7970E942C
:1057000011326B017C016F962CAD3DAD4EAD5FAD9E
:105710006F97C501B4010E9411326B962CAD3DAD5F
:105720004EAD5FAD6B970E9411329B01AC01C7017A
:10573000B6010E9452336B017C01A3962CAD3DADA6
:105740004EAD5FADA397C501B4010E941132A70110
:1057500096010E94D23305CD20E030E044EB53E4C3
:10576000C701B6010E94523360939702709398026A
:105770008093990290939A024CCD03E010E094CD6F
:1057800002E0FCCF85E814CE83EB90E022CE8BEDD7
:1057900090E076CE8330910509F4E6C2049709F0D3
:1057A000AACE412C512C80E4682E80EC782E4092B9
:1057B0000C0150920D0160920E0170920F0180E079
:1057C00090E0A0E0B1E48093080190930901A093D8
:1057D0000A01B0930B012091A6023091A7024091DB
:1057E000A8025091A90260E070E88BEB94E40E945B
:1057F00052336B017C0120E030E04AE754E40E9420
:10580000AB3108EE13E087FD11C020E030E04AEF35
:1058100054E4C701B6010E943D3500ED17E01816AB
:105820002CF0C701B6010E94A8348B0120E030E8BB
:105830004BEB54E46091A2027091A3028091A40208
:105840009091A5020E9453336B017C0120E030E06F
:105850004AE754E40E94AB3168EE73E087FD10C064
:1058600020E030E04AEF54E4C701B6010E943D3524
:1058700060ED77E0181624F0C701B6010E94A83445
:1058800048EE53E0E1C0412C512C50E4652E50EC21
:10589000752E40920C0150920D0160920E01709293
:1058A0000F0180E090E0A0E0B1E4809308019093C4
:1058B0000901A0930A01B0930B014091020150919C
:1058C00003016091040170910501613D27E07207B9
:1058D00010F060ED77E0683E33E0730710F468EE97
:1058E00073E08091060190910701813DA7E09A073E
:1058F00010F080ED97E0883EB3E09B0710F488EE4F
:1059000093E00E941314F7CD412C512C40E4642EF7
:1059100040EC742E40920C0150920D0160920E01E9
:1059200070920F0180E090E0A0E0B1E48093080164
:1059300090930901A0930A01B0930B010091060115
:1059400010910701B8016C5D754077FF03C0719538
:1059500061957109072E000C880B990B0E94B231DA
:1059600020E030E04AEF53E40E9436349B01AC0162
:1059700060E070E080E89FE30E9452332091A6022D
:105980003091A7024091A8025091A9020E941132C1
:105990006B017C01B80190E080E00E94B0319B0176
:1059A000AC01C701B6010E9453336B017C0120E0BA
:1059B00030E04AE754E40E94AB3108EE13E087FD83
:1059C00011C020E030E04AEF54E4C701B6010E9464
:1059D0003D3500ED17E018162CF0C701B6010E9406
:1059E000A8348B01609104017091050190E080E082
:1059F0000E94B0312091A2023091A3024091A402F2
:105A00005091A5020E9453336B017C0120E030E0ED
:105A10004AE754E40E94AB3168EE73E087FD10C0A2
:105A200020E030E04AEF54E4C701B6010E943D3562
:105A300060ED77E0181624F0C701B6010E94A83483
:105A40004091020150910301C8015BCF8091A102F6
:105A5000882309F482C12091A6023091A7024091C7
:105A6000A8025091A90260E070E88BEB94E40E94D8
:105A700052336B017C0180919F029091A0020397A9
:105A800009F062C020E030E040E451E420930C01D2
:105A900030930D0140930E0150930F0180E090E090
:105AA000A0E0B1E48093080190930901A0930A015A
:105AB000B0930B0120E030E04AE754E4C701B6019F
:105AC0000E94AB3108EE13E087FD11C020E030E00A
:105AD0004AEF54E4C701B6010E943D3500ED17E0DE
