:100000000C941E010C9471180C944A180C94E3196A
:100010000C94BE190C9499190C9446010C94460149
:100020000C9446010C94F0180C9446010C94460173
:100030000C9446010C9446010C9446010C94460124
:100040000C9400180C9446010C94BE180C9498184B
:100050000C9446010C9446010C9446010C94460104
:100060000C94081A0C944601084AD73B3BCE016E0B
:1000700084BCBFFDC12F3D6C74319ABD56833DDAFF
:100080003D00C77F11BED9E4BB4C3E916BAAAABE0E
:10009000000000803F05A84CCDB2D44EB93836A937
:1000A000020C50B9918688083CA6AAAA2ABE000074
:1000B00000803F0000407A10F35A00A0724E1809E9
:1000C0000010A5D4E80000E87648170000E40B54BF
:1000D000020000CA9A3B000000E1F505000080968E
:1000E0009800000040420F000000A08601000000C0
:1000F000102700000000E80300000000640000007A
:1001000000000A00000000000100000000002C7642
:10011000D888DC674F0823DFC1DFAE59E1B1B7965D
:10012000E5E3E453C63AE651997696E8E6C28426BA
:10013000EB898C9B62ED407C6FFCEFBC9C9F40F296
:10014000BAA56FA5F490055A2AF75C936B6CF96712
:100150006DC11BFCE0E40D47FEF520E6B500D0EDD7
:10016000902E0300943577050080841E080000203F
:100170004E0A000000C80C333333330F986E1283DD
:100180001141EF8D2114893BE65516CFFEE6DB18B1
:10019000D1844B381BF77C1D901DA4BBE424203276
:1001A00084725E228100C9F124ECA1E53D275A4406
:1001B000410056544700524D4300475356004753A1
:1001C000540047534100474C4C0047474100CA0187
:1001D000C601C201BE01BA01B601B201AE01000002
:1001E0000000240027002A0000000008000201008F
:1001F00000030407000000000000000000000000F1
:10020000250028002B000000000023002600290004
:1002100004040404040404040202020202020303AC
:1002200003030303010204081020408001020408B4
:100230001020010204081020331BAA2711241FBE1E
:10024000CFEFD8E0DEBFCDBF25E0A6E7B1E001C02B
:100250001D92AF37B207E1F711E0A0E0B1E0E2E9AB
:10026000FFE502C005900D92A637B107D9F711E05E
:10027000CDE1D1E004C02197FE010E947D2ECC315A
:10028000D107C9F70E94321D0C94BC2F0C940000BA
:10029000FC018091A60481111AC011821082138280
:1002A00012828091A80482608093A8041092A7040F
:1002B00091E06D3209F090E08091A80490FB80F904
:1002C0008093A8046D3209F06EC080E008956C320E
:1002D00099F58091A704811103C081E08093A70460
:1002E00082819381892B99F05AE08091A70491E053
:1002F000980F9093A704481750F022813381529FA2
:10030000C001539F900D112493838283EECF90916F
:10031000A804892F817090FF44C0228133813195D8
:1003200021953109338322832081318131952195B3
:1003300031093183208308956E3221F481E0809366
:10034000A704C3CF8091A704811112C020813181FD
:100350004AE0429FC001439F900D1124062E000CDD
:10036000770B60537109680F791F71836083ADCF7C
:1003700091E0980F9093A704481708F4A6CF228124
:1003800033814AE0429FC001439F900D1124062E05
:10039000000C770B60537109680F791F73836283B8
:1003A00094CF81E008956C3209F497CF6E3271F6E4
:1003B000C5CF813311F0813421F483E08093A2040E
:1003C00008C0803321F08E3411F0863541F410924C
:1003D000A2048091A30481608093A30408958233D2
:1003E00011F0843411F484E0E9CF833311F487E011
:1003F000E5CF843311F486E0E1CF853311F485E055
:10040000DDCF863311F0853449F781E0D7CF0895E9
:10041000FC01538D448D252F30E0842F90E0821B0A
:10042000930B541710F0CF96089501970895FC018F
:10043000918D828D981761F0A28DAE0FBF2FB11DE7
:100440005D968C91928D9F5F9F73928F90E008953F
:100450008FEF9FEF0895FC01918D828D981731F0F9
:10046000828DE80FF11D858D90E008958FEF9FEF4D
:100470000895FC01918D228D892F90E0805C9F4F23
:10048000821B91098F7399270895FC01A48DA80FF1
:10049000B92FB11DA35ABF4F2C91848D90E00196C6
:1004A0008F739927848FA689B7892C93A089B189E6
:1004B0008C91837080648C93938D848D981306C087
:1004C0000288F389E02D80818F7D80830895EF92EB
:1004D000FF920F931F93CF93DF93EC0181E0888FFE
:1004E0009B8D8C8D98131AC0E889F989808185FFCE
:1004F00015C09FB7F894EE89FF896083E889F98970
:1005000080818370806480839FBF81E090E0DF9171
:10051000CF911F910F91FF90EF900895F62E0B8DC4
:1005200010E00F5F1F4F0F731127E02E8C8D8E117F
:100530000CC00FB607FCFACFE889F989808185FFE6
:10054000F5CFCE010E944502F1CFEB8DEC0FFD2FD0
:10055000F11DE35AFF4FF0829FB7F8940B8FEA89A1
:10056000FB8980818062CFCFCF93DF93EC01888DB0
:100570008823B9F0AA89BB89E889F9898C9185FD1E
:1005800003C0808186FD0DC00FB607FCF7CF8C91AC
:1005900085FFF2CF808185FFEDCFCE010E9445021D
:1005A000E9CFDF91CF91089584EE92E00E94390265
:1005B00021E0892B09F420E0822F089580E090E06B
:1005C000892B29F00E94D40281110C940000089517
:1005D00090E0FC01E851FE4F2491FC01EC5DFD4FE1
:1005E0003491FC01E05FFD4FE491EE23C9F022233A
:1005F00039F0233001F1A8F4213019F1223029F12A
:10060000F0E0EE0FFF1FE450FE4FA591B4918FB7BD
:10061000F894EC91611126C030953E233C938FBF36
:1006200008952730A9F02830C9F0243049F7809187
:1006300080008F7D03C0809180008F778093800041
:10064000DFCF84B58F7784BDDBCF84B58F7DFBCFC3
:100650008091B0008F778093B000D2CF8091B000AE
:100660008F7DF9CF3E2BDACFCF93DF9390E0FC0163
:10067000EC5DFD4F2491805F9D4FFC0184918823A8
:10068000D1F090E0880F991FFC01E252FE4FA59136
:10069000B491FC01E450FE4FC591D49161110EC09C
:1006A0009FB7F8948C91E22FE0958E238C9328814C
:1006B000E223E8839FBFDF91CF9108958FB7F8942D
:1006C000EC91E22BEC938FBFF6CFCF93DF93A09109
:1006D0006C02B0916D02109709F443C01C968C9186
:1006E0001C97EDE6F0E0883050F0EBE6F0E08E305D
:1006F00030F0ECE6F0E0863110F0F0E0E0E05FB7DB
:10070000F89410926D0210926C02309749F11C9689
:100710008C911C97C8E6D0E0863110F0D0E0C0E0A4
:100720002881883008F46AC031E08E3008F430E067
:1007300081E090E001C0880F3A95EAF78095822326
:10074000888360811C964C91483008F059C081E044
:1007500090E001C0880F4A95EAF780958623808350
:100760005FBF60E0809173050E9434038091730540
:1007700090E0FC01EC5DFD4FE491E0936B02FC0125
:10078000E05FFD4FE491F0E0EE0FFF1FEA5FFD4FE9
:100790008591949190937605809375058091740569
:1007A00090E0FC01EC5DFD4F249120936A02FC0176
:1007B000E05FFD4FE491F0E0EE0FFF1FE450FE4FCD
:1007C000A591B491B0936902A0936802109719F0B3
:1007D000EC91E22BEC9361E0809174050E9434036C
:1007E000809173058830E0F08E3008F45EC0ECE64E
:1007F000F0E08631B8F0DF91CF9108958BEF9FCF75
:10080000242F30E04E3048F42850310981E090E048
:1008100001C0880F2A95EAF7A0CF2E503109F6CFF4
:10082000EDE6F0E08FEF809367021092660210927F
:100830006502809177059091780581152BE49207E8
:1008400009F457C0A8F58038954209F440C05FB755
:10085000F894408190917305983008F052C081E07F
:1008600001C0880F9A95EAF7842B808380917305E5
:10087000E8E6F0E0863110F0F0E0E0E090818830CA
:1008800008F44EC021E08E3008F420E081E001C081
:10089000880F2A95EAF7892B808387E695E0909365
:1008A0006D0280936C025FBFA6CFEBE6F0E0BACF9B
:1008B00082312AE79207A9F08115964941F686E030
:1008C000809364028DE98093630284E007C08AE12B
:1008D0008093640287E2809363028AE080936202DD
:1008E000B6CF88E08093640280E88093630285E05D
:1008F000F5CF8DE0809364028EE48093630286E0FE
:10090000EDCF292F30E09E3040F42850310981E0AE
:1009100001C0880F2A95EAF7A7CF2E503109F7CFEB
:1009200084E0B9CF3FB7F89480915E0290915F0266
:10093000A0916002B091610226B5A89B05C02F3F2F
:1009400019F00196A11DB11D3FBFBA2FA92F982FF5
:100950008827BC01CD01620F711D811D911D42E0F0
:10096000660F771F881F991F4A95D1F708950F9337
:100970001F93CF93C82FF8940E9492040091D5043E
:100980001091D6042091D7043091D8047894601B3C
:10099000710B820B930B0091CC041091CD0420912C
:1009A000CE043091CF04601771078207930730F0AF
:1009B00090E080E0CF911F910F9108958091D10434
:1009C0008C17B0F3F8948C2F90E081509048880FEA
:1009D000991F2091D2043091D304820F931FFC0100
:1009E0002081318178948091C4049091C504409114
:1009F000C8045091C904BC01641B750B2617370746
:100A0000B8F26091C6047091C704460F571F421791
:100A1000530770F22817390768F2C9016217730784
:100A200048F6CB01C7CF8F929F92AF92BF92CF92E1
:100A3000DF92EF92FF924B015C010E9492046B01E6
:100A40007C010E9492046C197D098E099F09683E01
:100A5000734081059105A8F321E0821A9108A1084D
:100A6000B10888EEC80E83E0D81EE11CF11C811489
:100A70009104A104B10429F7FF90EF90DF90CF908B
:100A8000BF90AF909F908F90089508950895089516
:100A9000AF92BF92CF92DF92EF92FF920F931F938C
:100AA000CF93DF936C017B018B01040F151FEB01CA
:100AB0005E01AE18BF08C017D10759F06991D60181
:100AC000ED91FC910190F081E02DC6010995892BF3
:100AD00079F7C501DF91CF911F910F91FF90EF90B2
:100AE000DF90CF90BF90AF9008958EBD00000DB401
:100AF00007FEFDCF8EB50895DF92EF92FF920F9320
:100B00001F93CF93DF937C01062FC42FD0E08EE19B
:100B1000289FC00DD11D112481E080934A0560E01B
:100B2000809144050E94E80284E00E94750580914E
:100B30004A050E94750585E00E9475058D2F0E946B
:100B4000750586E00E9475058C2F0E947505E701EA
:100B500010E0CE018E199F098017910744F4D990B7
:100B600087E00E9475058D2D0E947505F2CF87E004
:100B70000E9475058FEF0E94750561E08091440524
:100B8000DF91CF911F910F91FF90EF90DF900C9428
:100B9000E802CF93DF931F92CDB7DEB7242F89836E
:100BA000462F61E0CE0101960E947C050F90DF91F7
:100BB000CF910895CF93DF93EC012881222349F050
:100BC0000E9492046D837E838F839887DF91CF91FB
:100BD00008952FB7F89440916E0250916F02609182
:100BE0007002709171022FBF4D835E836F8378878F
:100BF000EDCF2F923F924F925F926F927F928F92A2
:100C00009F92AF92BF92CF92DF92EF92FF920F939B
:100C10001F93CF93DF93CDB7DEB761970FB6F894EC
:100C2000DEBF0FBECDBF1C019C012A593F4F3A8346
:100C30002983D9018C91882309F45DC20E94920412
:100C4000AB01BC01E981FA8185819681A781B085DC
:100C5000481759076A077B0708F059C28C019D01A4
:100C60000095109520953095400F511F621F731FFE
:100C70004183528363837483E981FA814181528184
:100C8000638174810185128523853485401751075E
:100C90006207730708F416C2800F911FA21FB31FCB
:100CA00085839683A783B087F101EE59FF4F80813A
:100CB0009181019709F006C29101285B3F4F3F8760
:100CC0002E87F10184AD95ADA6ADB7ADF901808356
:100CD0009183A283B3833897408051806280738070
:100CE0002C5F3F4F3A832983C101805B9F4F9C83D8
:100CF0008B83411551056105710509F40FC2CB01C4
:100D0000BA010E942E2A20E030E04AE754E40E9413
:100D1000B42C6B017C01A30192010E948F2AA9814E
:100D2000BA816D937D938D939C931397A701960140
:100D3000F101EC5BFF4F60817181828193810E94A0
:100D4000B42CEB81FC816083718382839383F101F6
:100D5000EC59FF4F80819181019719F5EB81FC815E
:100D600080819181A281B381EE85FF85408151818F
:100D70006281738170584083518362837383E981F8
:100D8000FA8140815181628173817058408351831F
:100D900062837383B058EB81FC8180839183A2834B
:100DA000B383D1019C968D909D90AD90BC909F9700
:100DB000F10180AE91AEA2AEB3AE80A591A5A2A581
:100DC000B3A584AB95ABA6ABB7AB84A195A1A6A107
:100DD000B7A18D839E83AF83B88780AB91ABA2AB65
:100DE000B3AB02811381D8012D913D914D915C915E
:100DF00024A735A746A757A70680F781E02D608175
:100E0000718182819381D10198966D937D938D93A9
:100E10009C939B970E94D02B6B017C01F101C4A293
:100E2000D5A2E6A2F7A2A5019401D8016D917D910A
:100E30008D919C910E94D02B4B015C01F101E05AF5
:100E4000FF4F8081918181010C5A1F4F009709F05B
:100E500073C1A7019601EE85FF8560817181828152
:100E600093810E948F2AD8016D937D938D939C93DB
:100E70001397EB81FC81608171818281938190580D
:100E8000A50194010E948F2A4B015C01F101E45AF3
:100E9000FF4F80829182A282B38220E030E0A901DC
:100EA000C301B2010E94292A9101285A3F4F3F876E
:100EB0002E87882309F44DC1A70196016D817E819B
:100EC0008F8198850E94D12B20E030E040E05FE3E5
:100ED0000E948F2AA981BA812D913D914D915C91FB
:100EE0000E948F2AEE85FF852081318142815381C6
:100EF0000E94D12B3B018B839983D1015896CC90D2
:100F000058975996DC9059975A96EC905A975B9659
:100F1000FC9093014B815981B601C7010E94C22DFB
:100F200018168CF0F101C488D588E688F7889601F8
:100F3000A701B3018B8199810E94C22D18161CF064
:100F40006301EB80F980D8012D913D914D915C9129
:100F5000F10160857185828593850E94D12BA50161
:100F600094010E94D12B2B013C01D1011C96BC9114
:100F7000BA87F101F585FB87D1011E96BC91BC872C
:100F8000F101F785FD87AC019B016A857B858B2F7D
:100F90009F2F0E94D02B4B018D83998720E030E05A
:100FA000A9010E94292A87FDD9C094014D81598544
:100FB0006A857B858C859D850E94292A87FF06C0CE
:100FC0008A849B842C852D833D853987D101509659
:100FD000BC91B983F101F189FB83D1015296AC90A8
:100FE00052975396BC90A301920169817F2FC5014E
:100FF0000E94D02B8B01898B988B9B01AC0169815E
:101000007B81C5010E94C22D18160CF4ACC020E0F3
:1010100030E0A901B801898998890E94C22D18166B
:1010200024F400E010E0198A188A98014989588947
:10103000B601C7010E94292A87FD0FC094014D8186
:101040005985B601C7010E94C22D18160CF090C038
:101050008401BD81B98BE985E88BC801A989B8896C
:10106000EE85FF8580839183A283B3839801AD01D0
:10107000C301B2010E94D12B8B0189879D839B0103
:10108000AC0169817B81C5010E94C22D18167CF0DC
:10109000980149855D816A857B858C859D850E9447
:1010A000292A87FD69C009831B83A984BD80D101DA
:1010B0001496ED91FC9189819B81D5018083918368
:1010C000A283B38361960FB6F894DEBF0FBECDBF87
:1010D000DF91CF911F910F91FF90EF90DF90CF9014
:1010E000BF90AF909F908F907F906F905F904F9048
:1010F0003F902F9008958FB7F89440916E025091D1
:101100006F0260917002709171028FBF9BCD481B7E
:10111000590B6A0B7B0BE981FA81AACDA981BA81AF
:101120001D921D921D921C921397EB81FC811082DF
:101130001182128213820BCE019709F09ACEEE85AE
:10114000FF8560817181828193819058A50194010E
:1011500088CE612C712C1B821982CFCE812C912CD0
:101160001D82198633CF09811B81A98AB88A5DCF78
:101170008601E98AF88A71CFFA85F9832B852B835A
:10118000AC84BD8494CFFC0114A215A216A217A2B0
:1011900010A611A612A613A614A615A616A617A683
:1011A00010AA11AA12AA13AA14AA15AA16AA17AA53
:1011B00010AE11AE12AE13AEDC01AC5ABF4F1D9291
:1011C0001D921D921C92139714961D921D921D92B2
:1011D0001C92139714961D921D921D921C921397A8
:1011E0008A599F4F0C94DA052F923F924F925F924B
:1011F0006F927F928F929F92AF92BF92CF92DF9227
:10120000EF92FF920F931F93CF93DF9300D0CDB750
:10121000DEB73C01F8018F89988D9A838983098D07
:101220001A8DD30113967C936E93129715965C9347
:101230004E93149717963C932E93169720803180E7
:101240004280538020E030E0A901C201B1010E9438
:10125000C22D87FD35C020E030E0A901F701608193
:101260007181828193810E94C22D87FD29C020E077
:1012700030E0A901D6016D917D918D919C910E94E4
:10128000C22D87FD1DC0F30124AE35AE46AE57AE6C
:10129000F70180819181A281B381F301E05CFF4F6E
:1012A00080839183A283B383F60180819181A2819F
:1012B000B381F301EC5BFF4F80839183A283B383FF
:1012C000D5018D919C91F301E05AFF4F918380836A
:1012D000F80180819181A281B381F3018087918798
:1012E000A287B387D4018D919C91EC59FF4F9183D4
:1012F000808383010E591F4FF801808191810197EE
:1013000019F4C3010E94C308A981BA814D915C916F
:1013100070E060E0C3018A599F4FFC011082418751
:101320005287638774870E94DA05C3010E94C3084D
:10133000F801808191810197D9F081E090E091835B
:101340008083C3010F900F90DF91CF911F910F9178
:10135000FF90EF90DF90CF90BF90AF909F908F90D5
:101360007F906F905F904F903F902F900C94C308A8
:101370000F900F90DF91CF911F910F91FF90EF9001
:10138000DF90CF90BF90AF909F908F907F906F90A5
:101390005F904F903F902F900895DC01EC918FEF7C
:1013A0008E0F8830F8F4CB016B3C784014F08AEC57
:1013B00098E08E3E22E0920714F48EEE92E00897B9
:1013C000AC01440F452F441F550B2E2F30E0F9017F
:1013D000EE0FFF1FE20FF31FEF5FFD4F4183880FFA
:1013E0008095828308951F93CF93DF93EC01162F8E
:1013F00080910002811122C0E1E0F2E089E192E0F7
:101400003BE027E53483258333968E179F07D1F77A
:101410008EE3809302021092FF011092FE0110925F
:1014200070001092B00082E08093B1001092B20080
:1014300081E087BB809370008093000288818823BD
:10144000A1F061E0812F0E943403E8818E2F90E0AB
:10145000FC01EE0FFF1FE80FF91FEF5FFD4F1F713B
:101460006081607E612B606260838881DF91CF91B3
:101470001F910895CF92DF92EF92FF92CF93DF9367
:10148000C0918103D0918203C988DA88EB88FC88F7
:101490000E949204698B7A8B8B8B9C8B49895A8929
:1014A0006B897C894C195D096E097F098E819F814A
:1014B000B0E0A0E084179507A607B70740F4188AA4
:1014C000DF91CF91FF90EF90DF90CF9008959889B2
:1014D0008D859817A8F7888990E0880F991F2E8529
:1014E0003F85820F931FFC015183408388898F5F62
:1014F000888BE6CFE0916C02F0916D023097C1F0DD
:101500000288F389E02D309709F009942091650253
:1015100030E0A9014F5F5F4F4F73552790916602EE
:10152000941731F023543E4FF901808340936502B4
:101530000895CF93DF93EC01309167023F3F91F123
:10154000AE85BF858C9190916B02892359F126B5A8
:1015500099E0931B80916202280F8091BC01281BA7
:1015600080916302289F90011124232F3327269511
:10157000269592171306B0F48091BB012091BA0111
:10158000915018F0822B220FFBCF8093BB01209348
:10159000BA01909367020E947A0A81E02A893B8906
:1015A000232B09F080E0DF91CF910895EF92FF9215
:1015B0000F931F93CF93DF93E6B4F0906B02F82262
:1015C000909167029F3F91F4F11009C01092670259
:1015D00081E08093BA011092BB01E092BC01DF91DF
:1015E000CF911F910F91FF90EF900895C0916202EB
:1015F000CE0D8091BC01C81B80916302C89FE001A1
:101600001124CD2FDD27C695C69529E0291B022F71
:1016100010E00C171D0708F02C2F920F9093670213
:101620004091BA018091BB01F11011C02150342FBB
:10163000330F2F3F19F0842B432FF8CF8093BB013A
:101640003093BA01983048F20E947A0A13C02150B0
:10165000330B01C0440F2A95EAF74093BA01842B5B
:101660008093BB01983008F4B8CF0E947A0A81E0D9
:10167000F81621F00C171D0708F4A8CF8FEF809300
:101680006702ABCFCF92DF92EF92FF920F931F933F
:10169000CF93DF938C01D62E8091680290916902DE
:1016A000892B09F454C0D8011C969C91D4E0983041
:1016B00048F081E09E3008F480E0D1E001C0DD0F09
:1016C0008A95EAF7CFB6F894F6B490E0E12CE3946B
:1016D000E0916802F091690280916A02BAE0EB162B
:1016E00051F19923D9F09081892B8083C0916402B4
:1016F000C63011F4E0FCC7E086B58F198C17B0F442
:101700008BB38D2379F08BB38D2B8BBBD8011E96B9
:10171000ED91FC9180810E94D60AEECF9081809558
:101720008923E3CFC8010E94990AE6CFFC0E9D2DC4
:101730009170D694CCCF9081892B8083CFBE86B513
:101740008F198C1778F4C8010E94990AF8CF90E09D
:1017500080E0DF91CF911F910F91FF90EF90DF908C
:10176000CF90089581E090E0F4CF209166028091BF
:101770006502821769F030E0F901E354FE4F808181
:101780002F5F3F4F2F7333272093660290E0089519
:101790008FEF9FEF08959C01809165029091660202
:1017A000891B990B805C9F4F60E470E00E944A2E79
:1017B000811105C0C901F8940E94990A789490E0BB
:1017C00008958F929F92AF92BF92CF92DF92EF9245
:1017D000FF926B017C01BC01A60182E076956795C2
:1017E000579547958A95D1F7D701C60124E0B6955C
:1017F000A795979587952A95D1F7840F951FA61FD2
:10180000B71F4C015D0134E0B694A7949794879478
:101810003A95D1F7880D991DAA1DBB1D892E9A2EC8
:10182000AB2EBB24880E991EAA1EBB1EC501AA277B
:10183000BB27880E991EAA1EBB1EA3E0B0E0A5011F
:1018400094010E947F2BA7019601261B370B480BA2
:10185000590BABE0B0E00E947F2BE5E096958795B1
:1018600077956795EA95D1F7680D791D8A1D9B1DBF
:10187000FF90EF90DF90CF90BF90AF909F908F90B0
:101880000895CF92DF92EF92FF921F93CF93DF9351
:10189000EC01162F8091A60481110BC018821982C9
:1018A0001A821B821092A7048091A8048260809300
:1018B000A8041E3291F11C3209F064C08091A70483
:1018C000882359F18091A704843009F07CC02881D5
:1018D00039814A815B81A4E6B0E00E947F2B688356
:1018E00079838A839B83C880D980EA80FB80C70183
:1018F000B601660F771F881F991F6F5F7F4F8F4F4D
:101900009F4F0E94E10BC60ED71EE81EF91EC8822B
:10191000D982EA82FB8281E02AC081E08093A70419
:101920002981822F82958F702F703AE0839F200D3E
:1019300011248A8181112C598881982F92959F704A
:101940008F703AE0939F800D11249CE3299F9001B2
:101950001124820F932F911D092E000CAA0BBB0B93
:1019600088839983AA83BB831E3249F480E0DF9188
:10197000CF911F91FF90EF90DF90CF9008951C3290
:1019800009F4A0CF8091A704811143C08881998177
:10199000AA81BB8134E0880F991FAA1FBB1F3A950B
:1019A000D1F7412F110F550B40535109052E000C53
:1019B000660B770B842B952BA62BB72B88839983EB
:1019C000AA83BB83D3CF853039F4288139814A81FA
:1019D0005B81AAE0B0E081CF863009F484CF08F0C3
:1019E0009ACF288139814A815B81A8EEB3E08330A8
:1019F00009F473CF823019F4A0E1B7E26ECF8130E1
:101A000009F071CF60EA76E881E090E00E944D2B0A
:101A100066CF8F5F8093A7048730C0F42881398117
:101A20004A815B81AAE0B0E00E947F2B212F110F39
:101A3000330B205331096901330FEE08FF08DC0135
:101A4000CB018C0D9D1DAE1DBF1DB8CF873009F099
:101A50008DCFC880D980EA80FB80C701B601660FB0
:101A6000771F881F991F6F5F7F4F8F4F9F4F0E9477
:101A7000E10B6C0D7D1D8E1D9F1D19334CF06E5FAB
:101A80007F4F8F4F9F4F688379838A839B836ECF6D
:101A90001433CCF36F5F7F4F8F4F9F4FF4CF682F7E
:101AA00080918004813029F0863009F481C081E082
:101AB0000895E091A504E250E830C8F7F0E0ED5950
:101AC000F24F0C947D2EEA0D6B0D8D0D010E9F0DC6
:101AD000A70D570DC50D8091A80482FFE8CF809116
:101AE000A6048111E4CF633511F780918D049091A4
:101AF0008E04A0918F04B0919004B095A09590951C
:101B000081959F4FAF4FBF4F80938D0490938E046C
:101B1000A0938F04B0939004CACF6C3249F48091A3
:101B2000A604811105C08091A8048B7F8093A8042E
:101B30008091A80482FFBBCF81E994E05FC08091CF
:101B4000A6048111B4CF862F0E94D901B0CF809115
:101B5000A8048E7F8093A8048091A60481110CC0F4
:101B60006C3209F4A4CF60536093A1048091A30464
:101B700080628093A3049BCF6C32C1F38091A10457
:101B80009AE0899F600D1124EECF42E085E994E050
:101B90000E944801882309F48ACF91E08091A6042D
:101BA000811101C090E08091A30490FB82F9E1CF04
:101BB000E091A504E250E73008F079CFF0E0ED5174
:101BC000F24F0C947D2E9F0DEA0D6B0D8D0D010EC5
:101BD000290E3C0E8091A60481110AC091E06C325E
:101BE00009F490E08091A80490FB82F98093A80406
:101BF0008091A80482FF5BCF8DE894E00E94410CA5
:101C000056CF8091A80482FF52CF8091A604811103
:101C10004ECF8091A30482608093A304673509F0BE
:101C200046CF8091910490919204A0919304B09139
:101C30009404B095A095909581959F4FAF4FBF4F5D
:101C40008093910490939204A0939304B09394048E
:101C50002ECF43E089E994E00E944801882309F4EB
:101C600026CF91E08091A604811101C090E080917F
:101C7000A30490FB83F97DCF42E08DE994E00E94BC
:101C80004801882309F413CF91E08091A6048111C3
:101C900001C090E08091A30490FB84F96ACF4F9239
:101CA0005F926F927F928F929F92AF92BF92CF92EC
:101CB000DF92EF92FF92CF93DF9300D000D0CDB7A9
:101CC000DEB76B017C0149015A0182E0482E512C9C
:101CD000612C712CC701A30192010E945E2E298301
:101CE0003A834B835C83C501B401A30192010E9436
:101CF0005E2E49805A806B807C80421A530A640AA7
:101D0000750A411487E158068BE568068AEC780667
:101D1000E4F4C818D908EA08FB08C701B6017C55E5
:101D20008C4699420F900F900F900F90DF91CF91BA
:101D3000FF90EF90DF90CF90BF90AF909F908F90EB
:101D40007F906F905F904F90089581E0481689EEE4
:101D5000580684EA680685E3780654F0C818D9085E
:101D6000EA08FB08C701B601745A8349964DDACFD9
:101D7000C701B601681979098A099B09D3CF209157
:101D80009701260F3327331F21323105ECF42091C0
:101D9000DE02FC0190E080E0243069F082E00895EA
:101DA000A09197012191AC0149585E4FA40FB52F26
:101DB000B11D2C930196861798F380919701680FB7
:101DC0006093970180E0089581E008951092DE020B
:101DD00081E08093BD021092B80261E082E10E942E
:101DE000E80261E083E10E94E802E9EBF0E0808133
:101DF0008E7F808380818D7F808388E48093B8008C
:101E000085E48093BC000895CF93DF9391E0909395
:101E100076018823B9F0C091B800D091BA008091C2
:101E2000BC008A7B8093BC0060E082E10E94E802F3
:101E300060E083E10E94E8020E94E60ED093BA00BF
:101E4000C093B800DF91CF910895CF92DF92EF92C7
:101E5000FF920F931F93CF93DF93D82FC62F61323A
:101E600008F098C00E9492046B017C018091DE0210
:101E700081116BC081E08093DE028093BD029FEFF1
:101E80009093BC021092BB029C0F9093BA02809375
:101E9000B9028091B902DD0FD82BD093B90280919D
:101EA000B802813009F078C01092B8020E94920402
:101EB0006B017C018091B9028093BB008091E002AC
:101EC0009091E102A091E202B091E302892B8A2B6A
:101ED0008B2BA1F00E9492040091E0021091E1028C
:101EE0002091E2023091E3026C197D098E099F096D
:101EF000061717072807390708F448C08091BC0067
:101F000083FDD8CF85EC8093BC000E9492046B01C6
:101F10007C018091DE02813009F440C08091BB02D7
:101F20008C1710F4C091BB02E8E9F2E0AEEBB2E02E
:101F300080E08C1355C08C2FDF91CF911F910F91B2
:101F4000FF90EF90DF90CF9008958091E002909104
:101F5000E102A091E202B091E302892B8A2B8B2B44
:101F600009F484CF0E9492040091E0021091E102F2
:101F70002091E2023091E3026C197D098E099F09DC
:101F8000061717072807390708F070CF8091DF027E
:101F90000E94040FC0E0CFCF85EEB5CF8091E00264
:101FA0009091E102A091E202B091E302892B8A2B89
:101FB0008B2B09F4AECF0E9492040091E0021091A5
:101FC000E1022091E2023091E3026C197D098E0951
:101FD0009F09061717072807390708F09ACFD6CFA9
:101FE00091919D938F5FA5CF8F929F92AF92BF9259
:101FF000CF92DF92EF92FF920F931F93CF93DF93D5
:10200000D0919702D13208F0D7C0182FC091960214
:102010000E9492046B017C018091DE0281116BC0F1
:1020200082E08093DE021093BD028FEF8093BC02AA
:102030001092BB02D093BA02A6E7B2E0E8E9F2E060
:1020400080E0D81391C01092B9028091B902CC0FF0
:10205000C82BC093B9028091B802813009F088C0C2
:102060001092B8020E9492046B017C018091B90227
:102070008093BB008091E0029091E102A091E20286
:10208000B091E302892B8A2B8B2BA1F00E94920442
:102090000091E0021091E1022091E2023091E3020E
:1020A0006C197D098E099F0906171707280739073C
:1020B00008F442C08091BC0083FDD8CF85EC8093AA
:1020C000BC000E9492046B017C018091DE02823090
:1020D00009F450C08091BC028F3F09F46FC0809119
:1020E000BC02803209F46CC08091BC02803309F4D8
:1020F00069C084E026C08091E0029091E102A09145
:10210000E202B091E302892B8A2B8B2B09F484CF56
:102110000E9492048090E0029090E102A090E2027E
:10212000B090E3026C197D098E099F098616970607
:10213000A806B90608F070CF8091DF020E94040F54
:1021400085E0109275021092970210927402DF914E
:10215000CF911F910F91FF90EF90DF90CF90BF90A4
:10216000AF909F908F9008959D9191938F5F69CFCD
:1021700085EEA5CF8091E0029091E102A091E2026C
:10218000B091E302892B8A2B8B2B09F49ECF0E94FE
:1021900092040091E0021091E1022091E20230915C
:1021A000E3026C197D098E099F0906171707280796
:1021B000390708F08ACFC0CF81E0C3CF80E0C1CF1C
:1021C00082E0BFCF83E0BDCF1F93CF93DF93162F65
:1021D000C5EED4E0A981BA819B8121E020937402ED
:1021E000909396021092750210929702ED91FC91D5
:1021F00011970190F081E02D682FCD01099589811B
:102200009A81DC01ED91FC910190F081E02D612F2C
:10221000099581E0DF91CF911F910C94F40F0895FF
:10222000E091730280917202E81730F4F0E0E2541A
:10223000FD4F808190E008958FEF9FEF089590917A
:102240007302809172022FEF3FEF981748F4E92F45
:10225000F0E0E254FD4F208130E09F5F90937302E5
:10226000C90108958091720290917302891B990BA4
:102270000895CF92DF92EF92FF920F931F93CF9327
:10228000DF937C01CB018A0120917402222389F023
:10229000EB016B01C40ED51ECC15DD0569F069910B
:1022A000D701ED91FC910190F081E02DC7010995D6
:1022B000F3CF642F0E94BF0EC801DF91CF911F9111
:1022C0000F91FF90EF90DF90CF900895CF93DF9321
:1022D0001F92CDB7DEB76983209174022223F9F0F3
:1022E00020919702203258F021E030E0FC01338346
:1022F000228390E080E00F90DF91CF91089580914C
:102300007502E82FF0E0EA58FD4F998190838F5FC6
:10231000809375028093970281E090E0ECCF61E0BA
:10232000CE0101960E94BF0EF7CFCF93C62F90919A
:10233000240121E02093740290939602109275027A
:1023400010929702682F89ED94E00E9466116C2F1D
:1023500089ED94E00E94661181E0CF910C94F40F16
:10236000DF92EF92FF920F931F93CF93DF934091F1
:10237000890450918A0460918B0470918C044F5FA2
:102380005F4F6F4F7F4F4093890450938A0460934F
:102390008B0470938C048432E9F48091A80484FF48
:1023A00003C08F7E8093A8041092A404109280042E
:1023B00081E08093A9041092A6048091A8048D7FE7
:1023C0008093A804DF91CF911F910F91FF90EF9020
:1023D000DF900895C82F8091A904823081F5CA3218
:1023E00031F483E08093A9041092A604EBCF80EE31
:1023F0008C0F8F3550F48091A4048C278093A40413
:102400008C2F0E944F0D811107C01092A3041092CF
:1024100080041092A904D6CFCC3259F48091A8043C
:102420008D7F8093A8048091A5048F5F8093A5047D
:10243000DBCF8091A6048F5F8093A604C3CF813049
:1024400009F061C09091A4049C279093A404CC321D
:1024500071F4909180049923D1F21092A304809397
:10246000A5041092A60482E08093A904ABCF9091BA
:10247000A604923008F432C1DEEFD90F80918004B7
:10248000882309F43EC08150E82FF0E0EE0FFF1FD3
:10249000E253FE4F2591349150E040E0AD2FB0E083
:1024A00061E0680F70E0F901EA0FFB1FE491CE17BD
:1024B00009F411C1CE170CF4AACFDD24D394D80EA1
:1024C000873009F4A4CFFB01E40FF51FEE0FFF1FC7
:1024D000E253FE4FE590F49010E000E00D1760F439
:1024E000F901E00FF11F8491F701E00FF11FE49172
:1024F0000F5F1F4F8E1791F34F5F5F4F8D2D970129
:10250000D2CF80E0C1CF833009F0D5C0C0628FE95F
:102510008C0F863040F5C7559091A6048091A40495
:10252000911123C091E09093A60490E024E095954A
:1025300087952A95E1F7C817190609F443CF8091CA
:10254000850490918604A0918704B0918804019637
:10255000A11DB11D8093850490938604A0938704E8
:10256000B093880452CFC053D7CF8F7021E08C1323
:1025700001C020E08C13B6C08091A80481FF09C07F
:102580008D7F8093A8049F5F9093A6048CE20E94A5
:102590004F0D8091810490918204A0918304B091A9
:1025A00084040196A11DB11D80938104909382043F
:1025B000A0938304B09384049091800421E096302A
:1025C00009F020E08091A80420FB84F98093A804FE
:1025D0001092A9042091C104211172C08091A3041A
:1025E00080FF0CC03091C0042091A20430FF04C0D1
:1025F0003091BF04321710F42093BF0481FF09C04B
:1026000088E0EDE8F4E0AAEAB4E001900D928A9542
:10261000E1F78091A30482FF10C04091950450918E
:10262000960460919704709198044093B20450937B
:10263000B3046093B4047093B50484FF10C0409158
:102640009D0450919E0460919F047091A00440935A
:10265000BA045093BB046093BC047093BD0483FF21
:1026600010C04091990450919A0460919B0470911C
:102670009C044093B6045093B7046093B8047093DD
:10268000B90485FF04C08091A1048093BE048091A9
:10269000A3042091C004822B8093C004963009F0DB
:1026A00091CE1092C3048091C10481118BCE81E040
:1026B0008093C10487CE811185CE1092800482CE92
:1026C00088608093A8041092C2048091C104815054
:1026D0008093C10483CF8F5F809380049F5F90932A
:1026E000A60470CE21112BCF6DCE90E080E008952E
:1026F000FC011482158216821782108211821282C6
:102700001382118610861386128615861486178604
:102710001686118A108A138A128A148A158A168AD2
:102720000895DF92EF92FF920F931F93CF93DF9361
:102730000097A9F1FC01208110E0222331F01F5FF6
:10274000FC01E10FF11D2081F8CFD42EE62EEC0123
:10275000812F90E00E94972E082FF92E282FA82F66
:10276000B92F8A2F821B811740F4999180EE890F2F
:102770008B3508F0892F8D93F4CF2D2D4E2D612FA1
:10278000802F9F2D0E947C05802F9F2DDF91CF9160
:102790001F910F91FF90EF90DF900C94332FDF91FA
:1027A000CF911F910F91FF90EF90DF9008954F927E
:1027B0005F926F927F928F929F92AF92BF92CF92D1
:1027C000DF92EF92FF920F931F93CF93DF932B0132
:1027D0003C01F42E922E802EA02EB12C6501CE0C41
:1027E000D11CC60102960E94972EEC018C0120E0BC
:1027F000482DEE2021F041E04E0D480D2E2DC30155
:10280000B2010E94D427FE0120E38191803211F0B1
:102810008D3219F4DF0111972C93CF018C1B9D0B86
:10282000C816D90694F720E030E0A901C301B2012F
:102830000E94292A87FF02C08DE28883FE01E110F1
:102840001BC0EA0DFB1D1082492D6F2DCE010E9489
:102850009113CE01DF91CF911F910F91FF90EF90D7
:10286000DF90CF90BF90AF909F908F907F906F90B0
:102870005F904F900C94332FEC0DFD1D1182E4CF2F
:102880004F925F926F927F928F929F92AF92BF9280
:10289000CF92DF92EF92FF920F931F93CF93DF932C
:1028A000CDB7DEB76A970FB6F894DEBF0FBECDBFC7
:1028B0008091E6049091E7042091E80431E03093A0
:1028C0007402209396021092750210929702DC0116
:1028D000ED91FC910190F081E02D6BE3099580E092
:1028E0000E94F40F6EE08091E8040E94250F109280
:1028F0007302809372028E010F5F1F4F6E01BFE063
:10290000CB0ED11C8091E6049091E704DC01ED919F
:10291000FC910284F385E02D0995B82E8091E604A0
:102920009091E704DC01ED91FC910284F385E02DA8
:102930000995E12C8E299B29F801819391938F01B0
:10294000CE16DF06F9F64090ED045090EE0460904C
:10295000EF047090F00469817A81072E000C880BD7
:10296000990B0E94302AA30192010E94B42C20915D
:10297000FD043091FE044091FF04509100050E9437
:10298000D02B6B017C01C0920D05D0920E05E09218
:102990000F05F09210056B817C81072E000C880BCF
:1029A000990B0E94302AA30192010E94B42C20911D
:1029B00001053091020540910305509104050E94E4
:1029C000D02B4B015C018092110590921205A092D0
:1029D0001305B09214058091E50461E06827681B37
:1029E000770B072E000C880B990B0E94302A6F87FB
:1029F000788B898B9A8B6D817E81072E000C880BDA
:102A0000990B0E94302A9B01AC016F8578898989D6
:102A10009A890E948F2AA30192010E94B42C2091CE
:102A200005053091060540910705509108050E9463
:102A3000D02B2B013C014092150550921605609257
:102A40001705709218056F817885072E000C880B8A
:102A5000990B0E94302A20E030EF41E456E40E94B6
:102A6000D12B20E030E04AEA53E40E94B42C60937A
:102A7000090570930A0580930B0590930C0520912E
:102A8000E9043091EA044091EB045091EC042F8763
:102A9000388B498B5A8B69857A85072E000C880BF9
:102AA000990B0E94302A2F85388949895A890E94BA
:102AB000B42C2091F1043091F2044091F304509130
:102AC000F4040E94D02B6093190570931A0580932B
:102AD0001B0590931C056B857C85072E000C880BCD
:102AE000990B0E94302A2F85388949895A890E947A
:102AF000B42C2091F5043091F6044091F7045091E4
:102B0000F8040E94D02B60931D0570931E058093DE
:102B10001F05909320056D857E85072E000C880B80
:102B2000990B0E94302A2F85388949895A890E9439
:102B3000B42C2091F9043091FA044091FB04509197
:102B4000FC040E94D02B6093210570932205809392
:102B500023059093240520E030E0A901C301B201D0
:102B60000E94292A87FDC5C080E090E0A0E8BFE36D
:102B70008F87988BA98BBA8BA3019201C301B201F5
:102B80000E948F2A2B013C01A7019601C701B601C3
:102B90000E948F2AA30192010E94D12B0E94DD2D59
:102BA0002F85388949895A890E948F2A9B01AC0157
:102BB000C501B4010E94502C21EE3EE245E652E4EC
:102BC0000E948F2A60932505709326058093270520
:102BD00090932805A5019401C501B4010E948F2A94
:102BE000A30192010E94D12B0E94DD2D9B01AC011B
:102BF000C701B6010E94502C905821EE3EE245E6F6
:102C000052E40E948F2A6093290570932A058093CD
:102C10002B0590932C058FB7F894C0906E02D0903E
:102C20006F02E0907002F09071028FBF80913905C1
:102C300090913A05A0913B05B0913C05A701960102
:102C4000281B390B4A0B5B0BCA01B9010E942E2AC3
:102C50002FE632E143E85AE30E948F2A4B015C01E0
:102C6000C0923905D0923A05E0923B05F0923C05BE
:102C700040903D0550903E0560903F0570904005A6
:102C80008091250590912605A0912705B0912805F2
:102C90008B8B9C8BAD8BBE8B2091190530911A05C7
:102CA00040911B0550911C05C501B4010E948F2A5B
:102CB00020912D0530912E0540912F055091300522
:102CC0000E94D12B2B893C894D895E890E94D02B93
:102CD0006B017C0120E030E044E353E40E94C22D0C
:102CE000181684F420E030E044EB53E4C701B60149
:102CF000EDCF20E030E040E85FEB2F87388B498B49
:102D00005A8B3ACF20E030E044E353ECC701B601E0
:102D10000E94292A87FF0BC020E030E044EB53E4F7
:102D2000C701B6010E94D12B6B017C01EBCFA3013F
:102D3000920160E070E080E89FE30E94D02B6F8BEF
:102D4000788F898F9A8FA70196016B897C898D89ED
:102D50009E890E94D12BA30192010E948F2A6B01B0
:102D60007C012F89388D498D5A8D6B897C898D899D
:102D70009E890E948F2A9B01AC01C701B6010E9467
:102D8000D12B6B017C0120E030E044E353E40E944E
:102D9000C22D18164CF420E030E044EB53E4C70198
:102DA000B6010E94D02BEDCF20E030E044E353EC9D
:102DB000C701B6010E94292A87FF0BC020E030E03E
:102DC00044EB53E4C701B6010E94D12B6B017C0197
:102DD000EBCFC0922D05D0922E05E0922F05F092F8
:102DE00030052091290530912A0540912B055091FD
:102DF0002C052B8B3C8B4D8B5E8B20911D053091D0
:102E00001E0540911F05509120056F85788989899D
:102E10009A890E948F2AA50194010E948F2A2091ED
:102E200031053091320540913305509134050E94AF
:102E3000D12B2B893C894D895E890E94D02B6B0157
:102E40007C0120E030E044EB52E40E94C22D1816D1
:102E50003CF420E030E044E353E4C701B601EDCF99
:102E600020E030E044EB52ECC701B6010E94292A71
:102E700087FF0BC020E030E044E353E4C701B60114
:102E80000E94D12B6B017C01EBCFA70196016B89CE
:102E90007C898D899E890E94D12BA30192010E9479
:102EA0008F2A6B017C012B893C894D895E896F8952
:102EB000788D898D9A8D0E948F2A9B01AC01C70164
:102EC000B6010E94D12B6B017C0120E030E044EB85
:102ED00052E40E94C22D18164CF420E030E044E386
:102EE00053E4C701B6010E94D02BEDCF20E030E0C3
:102EF00044EB52ECC701B6010E94292A87FF0BC0A0
:102F000020E030E044E353E4C701B6010E94D12B36
:102F10006B017C01EBCFC0923105D0923205E0927B
:102F20003305F0923405209121053091220540911E
:102F3000230550912405C501B4010E948F2A2091D8
:102F400035053091360540913705509138050E947E
:102F5000D12B609335057093360580933705909398
:102F600038056A960FB6F894DEBF0FBECDBFDF916D
:102F7000CF911F910F91FF90EF90DF90CF90BF9076
:102F8000AF909F908F907F906F905F904F9008953B
:102F900085ED8093BC008091E0029091E102A091C8
:102FA000E202B091E3020796A11DB11D23E0B695A0
:102FB000A795979587952A95D1F72091BC0024FD78
:102FC00003C01092DE0208954091E0025091E102A8
:102FD0006091E2027091E302452B462B472B69F387
:102FE0000097A105B10541F02AE22A95F1F700C04A
:102FF0000197A109B109E1CF8091DF020C94040F80
:103000001F920F920FB60F9211242F933F938F931D
:103010009F93AF93BF9380916E0290916F02A091A6
:103020007002B091710230915D0223E0230F2D37C1
:1030300058F50196A11DB11D20935D0280936E028B
:1030400090936F02A0937002B093710280915E0220
:1030500090915F02A0916002B09161020196A11D62
:10306000B11D80935E0290935F02A0936002B093C3
:103070006102BF91AF919F918F913F912F910F90DE
:103080000FBE0F901F90189526E8230F0296A11DE2
:10309000B11DD2CF1F920F920FB60F9211242F9312
:1030A0003F934F935F936F937F938F939F93AF93D0
:1030B000BF93EF93FF93E0912701F09128010995C9
:1030C000FF91EF91BF91AF919F918F917F916F9100
:1030D0005F914F913F912F910F900FBE0F901F90D6
:1030E00018951F920F920FB60F9211242F933F93B2
:1030F0004F935F936F937F938F939F93AF93BF9300
:10310000EF93FF93E0912501F09126010995FF913E
:10311000EF91BF91AF919F918F917F916F915F914F
:103120004F913F912F910F900FBE0F901F901895C8
:103130001F920F920FB60F9211242F933F934F932C
:103140005F936F937F938F939F93AF93BF93EF930F
:10315000FF9384EE92E00E944502FF91EF91BF91B0
:10316000AF919F918F917F916F915F914F913F911F
:103170002F910F900FBE0F901F9018951F920F92D6
:103180000FB60F9211242F938F939F93EF93FF937A
:10319000E091F402F091F5028081E091FA02F09161
:1031A000FB0282FD1BC090818091FD028F5F8F73B7
:1031B0002091FE02821741F0E091FD02F0E0EC5117
:1031C000FD4F958F8093FD02FF91EF919F918F911D
:1031D0002F910F900FBE0F901F9018958081F4CF04
:1031E0001F920F920FB60F9211242F933F934F937C
:1031F0005F936F937F938F939F93AF93BF93EF935F
:10320000FF938091FE018F5F8093FE01E091FF01AB
:103210002091FE018E2F90E0FC01EE0FFF1FE80FC2
:10322000F91FEF5FFD4F8181E091FF0182131DC007
:103230008E2F90E0FC01EE0FFF1FE80FF91FEF5FEC
:10324000FD4F82818093B200FF91EF91BF91AF91CA
:103250009F918F917F916F915F914F913F912F91AE
:103260000F900FBE0F901F9018952091FE018E2F8A
:1032700090E0FC01EE0FFF1FE80FF91FEF5FFD4F1D
:103280008181821708F7E091FF018E2F90E0FC0109
:10329000EE0FFF1FE80FF91FEF5FFD4F808185FFE5
:1032A00010C0E091FF018E2F90E0FC01EE0FFF1F98
:1032B000E80FF91FEF5FFD4F808160E08F710E9482
:1032C000E8028091FF018F5F8093FF011092FE0161
:1032D0001092B2008091FF01882319F18091FF01C3
:1032E0008930F8F4E091FF018E2F90E0FC01EE0FA1
:1032F000FF1FE80FF91FEF5FFD4F808185FFA4CF0F
:10330000E091FF018E2F90E0FC01EE0FFF1FE80F10
:10331000F91FEF5FFD4F808161E08F710E94E8022D
:1033200093CF8091FF01893008F48ECF1092FF0176
:103330008BCF1F920F920FB60F9211242F933F93B2
:103340004F935F936F937F938F939F93AF93BF93AD
:10335000EF93FF9389B10E94D60AFF91EF91BF913D
:10336000AF919F918F917F916F915F914F913F911D
:103370002F910F900FBE0F901F9018951F920F92D4
:103380000FB60F9211242F933F934F935F936F9338
:103390007F938F939F93AF93BF93EF93FF9386B1E8
:1033A0000E94D60AFF91EF91BF91AF919F918F91AB
:1033B0007F916F915F914F913F912F910F900FBE31
:1033C0000F901F9018951F920F920FB60F92112415
:1033D0002F933F934F935F936F937F938F939F931D
:1033E000AF93BF93EF93FF9383B10E94D60AFF91EF
:1033F000EF91BF91AF919F918F917F916F915F916D
:103400004F913F912F910F900FBE0F901F901895E5
:103410001F920F920FB60F9211242F933F934F9349
:103420005F936F937F938F939F93AF93BF93EF932C
:10343000FF938091B900887F803609F44AC0F0F587
:10344000883209F4A7C018F5803109F49BC0B8F49C
:10345000882309F4F9C0883009F494C0FF91EF91F2
:10346000BF91AF919F918F917F916F915F914F919C
:103470003F912F910F900FBE0F901F90189588319C
:1034800009F488C0803251F78093BC0214C08034A4
:1034900009F49DC040F48033B9F38833F9F6809382
:1034A000BC0285ECB0C0803509F485C0883509F4CC
:1034B00096C0883499F60E94C817D0CF883909F48D
:1034C0008CC038F5883729F050F4883611F08037F1
:1034D00029F683E08093DE021092B90157C0883844
:1034E00009F47BC0803919F0803809F0B7CF80919A
:1034F000B901803208F071C0E091B90181E08E0F0E
:103500008093B9018091BB00F0E0E756FE4F8083C5
:103510003DC0803B39F0E0F4803A09F479C0883A44
:1035200009F09CCF84E08093DE0210929801109203
:103530009701E0911F02F091200209958091970177
:1035400081110FC081E0809397011092770109C02B
:10355000803C09F4A6CF883C09F4A3CF883B09F04E
:103560007DCFE091980181E08E0F80939801F0E08B
:10357000E958FE4F80818093BB0090919801809123
:10358000970129C08091B9028093BB0085EC80939C
:10359000BC0064CF9091BB028091BA02981758F595
:1035A000E091BB0281E08E0F8093BB02F0E0E85611
:1035B000FD4F8081E9CFE091BB0281E08E0F8093C7
:1035C000BB028091BB00F0E0E856FD4F80839091F4
:1035D000BB028091BA029817C8F285E8D8CFE09173
:1035E000BB0281E08E0F8093BB028091BB00F0E0B4
:1035F000E856FD4F80838091BD0281115CCF81E050
:103600008093B80284EA8093BC001092DE0226CF39
:1036100085EC8093BC001092DE028091B90180326B
:1036200030F4E091B901F0E0E756FE4F108260916E
:10363000B90170E0E0911D02F0911E0289E991E06C
:1036400009951092B9010ACF1092BC0234CFFC0147
:103650009091FD01983028F49F5F9093FD01908335
:103660000895108208950F931F931092E70210920D
:10367000E60288EE93E0A0E0B0E08093E802909349
:10368000E902A093EA02B093EB0223E331E0309326
:10369000E5022093E40225EC30E03093F102209320
:1036A000F00224EC30E03093F3022093F20220EC9D
:1036B00030E03093F5022093F40221EC30E03093B7
:1036C000F7022093F60222EC30E03093F9022093C7
:1036D000F80226EC30E03093FB022093FA021092BD
:1036E000FD021092FE021092FF021092000310924F
:1036F000DC041092DB048093DD049093DE04A0933D
:10370000DF04B093E00425E431E03093DA04209341
:10371000D90410926A051092690580936B05909305
:103720006C05A0936D05B0936E058FE591E09093C5
:1037300068058093670582E0809373058FEF80931F
:10374000740510927A051092790583E495E00E9441
:10375000271B82E495E00E94271B81E495E00E94EC
:10376000271B1092E50488E68093E80489ED94E035
:103770009093E7048093E60488E491EEAAE7BFE320
:1037800080933D0590933E05A0933F05B09340057F
:103790001092F1041092F2041092F3041092F404C7
:1037A0001092F5041092F6041092F7041092F804A7
:1037B0001092F9041092FA041092FB041092FC0487
:1037C0001092FD041092FE041092FF041092000566
:1037D0001092010510920205109203051092040543
:1037E0001092050510920605109207051092080523
:1037F00088EE93E09093C5048093C40480ED97E035
:103800009093C7048093C6048AE090E09093C90423
:103810008093C80484E398E09093CB048093CA0417
:1038200080E291EAA7E0B0E08093CC049093CD04CD
:10383000A093CE04B093CF0483E08093D00485E0BE
:103840008093D1041092D4041092D5041092D6041F
:103850001092D7041092D8048AE090E00E94972E2C
:10386000FC019093D3048093D204118210821382BE
:10387000128215821482178216821186108660E0E9
:1038800083E00E9434038091810390918203892B0D
:1038900091F484EC94E090938203809381038AE313
:1038A0009AE09093280180932701809169008C60B1
:1038B00080936900E99A8DE894E00E9478138AEA7F
:1038C00094E00E9478131092810410928204109266
:1038D000830410928404109285041092860410923E
:1038E0008704109288041092890410928A0410921E
:1038F0008B0410928C048DE894E00E94781310924F
:10390000A90489E694E00E947813E7E5F1E0F093DA
:10391000F703E093F60300E010E02FE733E40093B1
:1039200002041093030420930404309305041092BE
:10393000060410920704109208041092090440E053
:1039400050E06AE774E440930A0450930B046093D8
:103950000C0470930D0480E090E0AAE7B4EC80932F
:103960000E0490930F04A0931004B09311041092CE
:103970001204109213041092140410921504109261
:103980001604109217041092180410921904109241
:103990005C0410925D0410925E0410925F04109219
:1039A00060041092610410926204109263041092F9
:1039B00064041092650410926604109267041092D9
:1039C0006804F0938403E093830300938F031093C0
:1039D00090032093910330939203109293031092DB
:1039E000940310929503109296034093970350937B
:1039F00098036093990370939A0380939B03909329
:103A00009C03A0939D03B0939E0310929F0310927A
:103A1000A0031092A1031092A2031092A30310928C
:103A2000A4031092A5031092A6031092E90310922A
:103A3000EA031092EB031092EC031092ED03109244
:103A4000EE031092EF031092F0031092F103109224
:103A5000F2031092F3031092F4031092F5031F91F6
:103A60000F910895CF93DF93CDB7DEB7ED970FB6E3
:103A7000F894DEBF0FBECDBF789484B5826084BD5C
:103A800084B5816084BD85B5826085BD85B5816062
:103A900085BD80916E00816080936E0010928100E0
:103AA000809181008260809381008091810081609B
:103AB000809381008091800081608093800080915C
:103AC000B10084608093B1008091B00081608093E8
:103AD000B00080917A00846080937A0080917A00AF
:103AE000826080937A0080917A00816080937A006E
:103AF00080917A00806880937A001092C100FFB6AE
:103B0000F89480911C02811127C0EAE1F2E08491CF
:103B1000EEE2F2E09491E82FF0E0EE0FFF1FE252A8
:103B2000FE4FA591B491EC91E92321F461E08AE084
:103B30000E94E80261E08AE00E9434038CB5806153
:103B40008CBD8CB580648CBD61E08DE00E94340337
:103B500061E08BE00E94340380911C028F5F8093B0
:103B60001C02FFBE10927302109272021092750234
:103B7000109297020E94E60E85E495E09093200251
:103B800080931F0286E495E090931E0280931D02AD
:103B900060E08EE00E94340361E084E00E94340320
:103BA00061E087E00E94340369E070E081E495E021
:103BB0000E94F30966E070E082E495E00E94F30958
:103BC00065E070E083E495E00E94F3098FB7F89414
:103BD00020EB31E130937A05209379058FBF8091F6
:103BE0007705909178058038954279F080E895E2E4
:103BF000909378058093770580916C0290916D0287
:103C00008756954011F40E9465030E94650384E67F
:103C100090E09093C9048093C80488E998E0909359
:103C2000CB048093CA048AE0809344051092450532
:103C300087E48093470561E08AE00E94340361E0F5
:103C40008AE00E94E80264E670E080E090E00E9472
:103C5000130560E0809144050E94E80280E00E9424
:103C6000750582E4809346050E94750561E08091A8
:103C700044050E94E80264EF71E080E090E00E9459
:103C8000130560E0809144050E94E802A4E4EA2E56
:103C9000A5E0FA2E10E182E0D7011F968C93812FC8
:103CA0000E947505F70187850E947505FFEFEF1AE1
:103CB000FF0A1F5F103279F784E08093460580E0A9
:103CC0000E947505809146050E94750561E080910E
:103CD00044050E94E80284E3809348058CE18093C8
:103CE000490560E0809144050E94E80282E00E945C
:103CF0007505809148050E94750583E00E94750551
:103D0000809149050E94750561E0809144050E94FB
:103D1000E802809147058C608C7F8093470560E0C6
:103D2000809144050E94E80281E00E94750580911F
:103D300047050E94750561E0809144050E94E802F4
:103D40008091450581111AC0809146058064886084
:103D50008093460560E0809144050E94E80280E07F
:103D60000E947505809146050E94750561E080916D
:103D700044050E94E80281E0809345058091460554
:103D80008F7C8093460560E0809144050E94E802A4
:103D900080E00E947505809146050E94750561E0EE
:103DA000809144050E94E80219821A821B821C82BB
:103DB000198E188E1B8E1A8E1D8E1C8E9E012F5FE3
:103DC0003F4F29013F932F933E0138E1630E711C51
:103DD0007F926F92AE01465E5F4F4A01CE014C96D4
:103DE0005C01E0E1CE2EE1E0DE2EF4E1EF2EF1E029
:103DF000FF2E08E111E02DE332E047E452E063E5F5
:103E000072E086EF93E00E94F40880E090E0AAEF71
:103E1000B3E48093020490930304A0930404B0934A
:103E2000050480E090E0AAEFB3EC80930604909341
:103E30000704A0930804B0930904E0905804F0909C
:103E400059040F900F900F900F9091E0E916F10434
:103E500041F5C090FA03D090FB03D6018D909D9060
:103E6000AD90BC9020E030E04AEF53ECC501B401C6
:103E70000E94292A87FDD3C120E030E04AEF53E4B5
:103E8000C501B4010E94C22D181634F4812C912C66
:103E90007AEFA72E73E4B72EF60180829182A28278
:103EA000B3821092FE031092FF031092000410924E
:103EB000010480E090E0A0EFB1E480930A049093C5
:103EC0000B04A0930C04B0930D0480E090E0A0EFED
:103ED000B1EC80930E0490930F04A0931004B09360
:103EE0001104EA94EF2851F081E090E09093590496
:103EF0008093580486EF93E00E94C30819821A82C7
:103F00001B821C82198E188E1B8E1A8E1D8E1C8E83
:103F10005F924F927F926F929E01265E3F4F4901C2
:103F2000AE01445E5F4F5A0140E0C42E41E0D42E02
:103F300054E0E52E51E0F52E08E011E02CE031E0F0
:103F400043E452E06FE472E083E893E00E94F408F7
:103F50008091E7039091E8030F900F900F900F90DE
:103F6000009709F063C181E090E09093E8038093AB
:103F7000E7038091E5039091E603019721F483E83C
:103F800093E00E94C30810928F0310929003109246
:103F900091031092920380E090E0AAEFB3EC80933B
:103FA000930390939403A0939503B0939603E090AA
:103FB000E503F090E60351E0E516F10421F5C09029
:103FC0008703D0908803D6018D909D90AD90BC90D2
:103FD00020E030E04AEF53ECC501B4010E94292AE9
:103FE00087FD2CC120E030E0A901C501B4010E9489
:103FF000C22D18161CF4812C912C5401F6018082DC
:104000009182A282B38280E090E0A8ECB2EC80932F
:104010008B0390938C03A0938D03B0938E0380E069
:1040200090E0A0EFB1E48093970390939803A0935E
:104030009903B0939A0380E090E0A0EFB1EC8093F5
:104040009B0390939C03A0939D03B0939E03EA94DB
:10405000EF2851F081E090E09093E6038093E50330
:1040600083E893E00E94C30861E08BE00E94951111
:104070006DE189E00E9495110E94920460933102E3
:1040800070933202809333029093340261E08BE6A6
:104090000E94E41060E089E10E94E41060E08AE19F
:1040A0000E94E41080E090E0A3E8B2E48093E90489
:1040B0009093EA04A093EB04B093EC0468E08BE1E6
:1040C0000E94E41080E090E0A0E0B5E48093ED046D
:1040D0009093EE04A093EF04B093F00468E18CE1B8
:1040E0000E94E4100E9440148091250590912605BD
:1040F000A0912705B091280580932D0590932E055A
:10410000A0932F05B09330058091290590912A0541
:10411000A0912B05B0912C05809331059093320529
:10412000A0933305B09334052FB7F89480916E02B5
:1041300090916F02A0917002B09171022FBF809395
:10414000390590933A05A0933B05B0933C0568EE82
:1041500073E080E090E00E94130561E084E00E943B
:10416000E8026CE271E080E090E00E94130560E0FC
:1041700084E00E94E80261E087E00E94E8026CE2CD
:1041800071E080E090E00E94130560E087E00E940B
:10419000E8026CE271E080E090E00E94130561E0CB
:1041A00084E00E94E8026CE271E080E090E00E940E
:1041B000130560E084E00E94E80261E087E00E946D
:1041C000E8026CE271E080E090E00E94130560E09C
:1041D00087E00E94E8026CE271E080E090E00E94DB
:1041E000130580914A05846080934A0560E08091C0
:1041F00044050E94E80284E00E94750580914A050A
:104200000E94750580914A0582FF1FC084E80E94C4
:10421000750580E00E94750580934A05F3CF812CD7
:10422000912C6AEFA62E63ECB62E36CE019709F0DC
:10423000A0CE1092E8031092E7039BCE812C912C24
:104240003AEFA32E33ECB32ED9CE61E08091440532
:104250000E94E80281E00E94B70490931F018093BE
:104260001E0182E00E94B70490931D0180931C01FF
:1042700083E00E94B704909321018093200184E0A1
:104280000E94B70485E00E94B704909323018093B5
:10429000220160E087E00E94E8028091C104882347
:1042A00009F4F1C161E087E00E94E802CE010196C5
:1042B0000E9478138091C1048823E1F0F8948091E2
:1042C000C10481508093C1048091C20427E1289FDA
:1042D000C0011124FC01E655FB4FDE01119601904F
:1042E0000D922A95E1F786559B4F0E947813109204
:1042F000C204789487E1FE013196A9E6B4E001900A
:104300000D928A95E1F780917D04853008F44CC0C8
:104310008091350290913602A0913702B091380217
:10432000892B8A2B8B2B09F03FC080913902909109
:104330003A02A0913B02B0913C02892B8A2B8B2B35
:1043400099F5E0907104F09072046091730470919B
:10435000740488E0E9E6F4E0A5E3B2E001900D9290
:104360008A95E1F7072E000C880B990B0E94302AE2
:104370002AE037ED43E25CE30E948F2A4B015C01A7
:10438000B701FF0C880B990B0E94302A9B01AC01EE
:10439000C501B4010E94D12B6093210270932202C7
:1043A000809323029093240220916D0430916E0437
:1043B00040916F04509170046091390270913A02FB
:1043C00080913B0290913C020E944F0E4B015C0198
:1043D00020913502309136024091370250913802D7
:1043E0002EA33FA348A759A78091690490916A041E
:1043F000A0916B04B0916C048E8F9F8FA8A3B9A37A
:10440000CA01B9012E8D3F8D48A159A1621B730BC2
:10441000840B950B2B013C0197FF07C044245524C6
:104420003201461A570A680A790A75016401B7FE13
:1044300007C0CC24DD247601C818D908EA08FB0897
:10444000A30192012C0D3D1D4E1D5F1D2EA73FA700
:1044500048AB59AB0E94302A6EAB7FAB88AF99AFA7
:1044600025E33AEF4EE85CE30E948F2A25E93FEB13
:1044700046ED53E30E948F2A6B017C0120E030E07F
:1044800040E05FE30E948F2A2B013C01C501B4018B
:104490000E94302A6AAB7BAB8CAB9DAB25E33AEF35
:1044A0004EE85CE30E948F2A25E93FEB46ED53E39B
:1044B0000E948F2A6AA37BA38CA39DA36E8D7F8D00
:1044C00088A199A10E94302A4B015C0125E33AEFB3
:1044D0004EE85CE30E948F2A25E93FEB46ED53E36B
:1044E0000E948F2A6E8F7F8F88A399A38EA59FA588
:1044F000A8A9B9A9883E9340A105B1050CF046C30F
:104500002E8D3F8D48A159A1C301B2010E94D12B2C
:104510000E94AF2C9B01AC016AA17BA18CA19DA143
:104520000E948F2A9B01AC010E948F2A4B015C01E3
:10453000A7019601C701B6010E948F2A9B01AC0119
:10454000C501B4010E94D12B0E94DD2D22E138E18A
:1045500047EC55E40E948F2A6AA77BA78CA79DA7EA
:104560006093290270932A0280932B0290932C026D
:104570006E8D7F8D88A199A10E94AF2C2B013C01EB
:104580002EA53FA548A959A9283E3340410551050C
:104590000CF079C3A30192016AA97BA98CA99DA9FA
:1045A0000E948F2A9B01AC016EA97FA988AD99ADAD
:1045B0000E94502C9B01AC016BED7FE089EC9FE3E6
:1045C0000E94D02B4B015C0120E030E0A9010E9449
:1045D000292A87FF0AC02BED3FE049EC50E4C501D2
:1045E000B4010E94D12B4B015C01C0907904D090A2
:1045F0007A04E0907B04F0907C04609173047091E5
:104600007404072E000C880B990B0E94302A2AE0B4
:1046100037ED43E25CE30E948F2A2B013C0160915D
:10462000710470917204072E000C880B990B0E9484
:10463000302A9B01AC01C301B2010E94D12B209111
:1046400021023091220240912302509124020E94C3
:10465000D02B60932D0270932E0280932F029093A3
:10466000300220E030E040EF51E46AA57BA58CA544
:104670009DA50E94292A87FF6DC381E090E0909359
:104680004202809341028091A80483FF03C0877F88
:104690008093A8040E9440148091240191E090939B
:1046A000740280939602109275021092970260E055
:1046B00089ED94E00E94661181E00E94F40F66E0AB
:1046C000809124010E94250F109273028093720240
:1046D00089ED94E00E941F1190935C0280935B022D
:1046E00089ED94E00E941F118BAF1AAE80915B029E
:1046F00090915C02EAADFBAD8E2B9F2B90935C02F8
:1047000080935B0289ED94E00E941F1190935A02FE
:104710008093590289ED94E00E941F118DAF1CAE69
:104720008091590290915A022CAD3DAD822B932B72
:1047300090935A028093590289ED94E00E941F11D0
:10474000909358028093570289ED94E00E941F11C4
:10475000382E212C8091570290915802822993295A
:10476000909358028093570280912D0590912E05C9
:10477000A0912F05B091300580935302909354027D
:10478000A0935502B0935602809131059091320565
:10479000A0913305B091340580934F02909350025D
:1047A000A0935102B093520260915B0270915C023F
:1047B000072E000C880B990B0E94302A6B017C019C
:1047C0006091590270915A02072E000C880B990BC8
:1047D0000E94302AA70196010E94502C20E030E070
:1047E00044E353E40E948F2A2BED3FE049E450E478
:1047F0000E94B42C6B017C0120E030E0A9010E94F2
:10480000292A87FF0AC020E030E044EB53E4C701C7
:10481000B6010E94D12B6B017C01C0924B02D09259
:104820004C02E0924D02F0924E0280E480937C00B4
:1048300080917A00806480937A0080917A0086FD6E
:10484000FCCF6091780070917900072E000C880BE6
:10485000990B0E94302A20E030E040EA50E40E94A8
:104860008F2A20E030E040E85AE30E948F2A2CE8AB
:104870003EE24AEB5DE30E94B42C2AE939E949E1C2
:104880005EE30E94D12B60932502709326028093F1
:104890002702909328026091350270913602809130
:1048A00037029091380220E432E44FE050E00E9459
:1048B0005E2ECA01B9010E94302A25E0E22E04E0F2
:1048C00020E040E00E94D7136091390270913A02D3
:1048D00080913B0290913C0220E432E44FE050E0B2
:1048E0000E945E2ECA01B9010E94302A20E040E1F8
:1048F0000E94D71340E06BE086EB0E94C9056091EF
:104900007D0470E090E080E00E942E2AE12C02E01D
:1049100020E04CE00E94D71346E060E087E80E9468
:10492000C90560912D0270912E0280912F02909105
:10493000300203E026E041E00E94D71341E06BE043
:1049400080ED0E94C90560914B0270914C028091EC
:104950004D0290914E0221E04CE00E94D71347E0B7
:1049600060E08DE691E00E94911360915302709196
:104970005402809155029091560202E027E041E0F6
:104980000E94D71348E060E081E791E00E94911314
:1049900060914F02709150028091510290915202A9
:1049A00028E041E00E94D7138091220190912301D9
:1049B000843135E0930708F03FC241E060E083EBCB
:1049C0000E94C90546E069E18BEC0E94C90560912F
:1049D000770470917804072E000C880B990B0E94C5
:1049E000302A2FE632E143E85AE30E948F2A6B0116
:1049F0007C016091750470917604072E000C880B81
:104A0000990B0E94302A9B01AC01C701B6010E949C
:104A1000D12B26E53EE04DEE5FE30E948F2AE12C8C
:104A200002E026E047E10E94D7134DE069E189E802
:104A30000E94C9056091290270912A0280912B027F
:104A400090912C0204E02DE045E10E94D7134DE047
:104A500064E087E90E94C9056091250270912602F1
:104A60008091270290912802EE24E39402E02DE049
:104A700040E00E94D71386EF93E00E94F90583E897
:104A800093E00E94F90580912201909123018431E5
:104A900055E0950708F0DBC160E084E00E94E80281
:104AA00010924702109248021092490210924A0254
:104AB0001092430210924402109245021092460254
:104AC000109242021092410260911E0170911F01EA
:104AD00090E080E00E942E2A209147023091480207
:104AE0004091490250914A020E94D12B0E94262DEA
:104AF00081E495E00E94CD0960911C0170911D0137
:104B000090E080E00E942E2A2091430230914402DE
:104B100040914502509146020E94D12B0E94262DC1
:104B200082E495E00E94CD096091200170912101FD
:104B300083E495E00E94CD090E949204C090310266
:104B4000D0903202E0903302F09034026C197D096B
:104B50008E099F09603A7F408105910568F30E94A4
:104B600092046093310270933202809333029093E7
:104B7000340280E090E0892B09F46CCB0E94D402CF
:104B8000882309F467CB0E94000064CBC301B20103
:104B90000E94CF2D2B013C0120E030E040E05FE39C
:104BA0006AA17BA18CA19DA10E948F2A0E94CF2D7A
:104BB0006B017C0125E93FEB46ED53E3C501B401F0
:104BC0000E948F2A25E33AEF4EE85CE30E948F2A89
:104BD0000E94AF2C4B015C016EA17FA188A599A515
:104BE0000E94302A25E93FEB46ED53E30E948F2ACD
:104BF00025E33AEF4EE85CE30E948F2A0E94AF2C37
:104C00006AA77BA78CA79DA7A7019601C701B6013C
:104C10000E948F2A6B017C012AA53BA54CA55DA5AE
:104C2000C501B4010E948F2A9B01AC01C701B601E6
:104C30000E948F2A6B017C01A3019201C301B20182
:104C40000E948F2A9B01AC01C701B6010E94D12BA3
:104C50006B017C01AC019B0160E070E080E89FE3A8
:104C60000E94D02B0E94DD2D4B015C01C701B601D3
:104C70000E94DD2DA50194010E94502C9B01AC01E6
:104C80000E94D12B63CC6EA17FA188A599A50E941B
:104C9000302A25E33AEF4EE85CE30E948F2A25E9AB
:104CA0003FEB46ED53E30E948F2A6B017C010E948B
:104CB000AF2C4B015C016AA17BA18CA19DA10E943C
:104CC000CF2D6EA37FA388A799A7C701B6010E9425
:104CD000CF2D6B017C016E8D7F8D88A199A10E94E3
:104CE000CF2D6E8F7F8F88A399A36AA17BA18CA102
:104CF0009DA10E94AF2C6AA37BA38CA39DA3A701B7
:104D00009601C301B2010E948F2A6B017C012E8D96
:104D10003F8D48A159A1C501B4010E948F2A2AA143
:104D20003BA14CA15DA10E948F2A9B01AC01C70150
:104D3000B6010E94D02B6B017C012EA13FA148A59A
:104D400059A5C501B4010E948F2AA70196010E94AE
:104D5000502C38CC20EE3EE245E652E4C501B401C9
:104D60000E948F2A20E030E044EB53E40E94D12BD4
:104D70004B015C01B701FF0C880B990B0E94302A94
:104D80002AE037ED43E25CE30E948F2A2B013C01CD
:104D9000B601DD0C880B990B0E94302A9B01AC01F7
:104DA000C301B2010E94D12B9B01AC01C501B4012A
:104DB0000E94D02B0E94262DCB0168E671E00E9454
:104DC0004A2E9C012F5031092A34A1E03A0718F0ED
:104DD00082E090E054CCAC014B5351404E31510530
:104DE00038F4E6E0F0E0F0934202E09341024BCC6D
:104DF0002E31310538F425E030E030934202209323
:104E0000410241CC9C012F5F31092C33310538F42C
:104E100044E050E0509342024093410234CC8D97DD
:104E2000CC9718F483E090E02ACCA7E0B0E0B093F0
:104E30004202A093410227CC853A964020F041E0FF
:104E400060E08AECBDCD41E060E086ECB9CD853A0A
:104E5000964008F46EC080E090E0A0EFB1E480934B
:104E60003D0290933E02A0933F02B0934002809196
:104E7000350290913602A0913702B0913802892B09
:104E80008A2B8B2BA9F48091390290913A02A09140
:104E90003B02B0913C02892B8A2B8B2B49F4109258
:104EA00021011092200161E084E00E94E8020CCE12
:104EB00080914102909142028430910559F190F421
:104EC0008130910511F1039771F780E090E0A0E245
:104ED000B1E480933D0290933E02A0933F02B093D1
:104EE0004002E1CF86309105F9F0C8F020E030E0D3
:104EF00048EC51E40797B9F620933D0230933E0207
:104F000040933F0250934002CECF20E030E040EA91
:104F100051E4F2CF20E030E040E251ECEDCF80E010
:104F200090E0A0EAB0E4D5CF80E090E0A0EAB0EC59
:104F3000D0CF61E084E00E94E80210924202109219
:104F4000410210923D0210923E0210923F021092D6
:104F50004002BACD8091D004823009F1833061F4EF
:104F6000E99881E090E0880F991FFC01EB5DFE4F0E
:104F700087E495E0918380838091810390918203FF
:104F8000845C944021F410928203109281038091FA
:104F9000D2049091D304009731F00C94332FE89809
:104FA00090E080E0E0CF0895EF920F931F93CF93AE
:104FB000DF93E80134E047FD34E1042E000C550B8B
:104FC00057FF03C0519541955109E32E022F242F1D
:104FD000AE010E94F227CE01DF91CF911F910F9178
:104FE000EF900895A9E0B0E0E8EFF7E20C94902B81
:104FF0006A01F22EB02E102FFBE3AF2EA01608F49C
:105000001BE31F5F012F27E0AE014F5F5F4F0E9440
:105010005129BC018981982F9970913009F43FC0C2
:105020009BE2E1FC04C09E2D9170E0FC3AC05E2D35
:105030005071E82FE87083FF46C084E0911101C0F1
:1050400083E0EF2DE81B8F1508F0E0E0D6018E2FEE
:1050500020E2552351F1992329F0D6019C93C601F2
:1050600001966C0196012D5F3F4FE2FE24C08EE455
:10507000D6018C9391E411969C93119712968C9380
:10508000D9018E2F90E281111BC0E20FF32FF11D89
:1050900010828EEF9FEF2996ECE00C94AC2B9DE2F2
:1050A000C6CF90E2C4CF2D9381508111FCCFCE0E9C
:1050B000D11CE0E0D0CF8EE6D6018C9391E6DBCF19
:1050C0009D938150E0CF482F447082FF3DC084E023
:1050D000911101C083E08F1510F4EF2DE81BD6016C
:1050E0008E2F20E2552309F1992329F0D6019C93B4
:1050F000C60101966C0196012D5F3F4FE2FE1BC079
:1051000089E4D6018C938EE411968C93119786E4F2
:1051100012968C93D9018E2F90E2882309F4B5CF93
:105120009D938150FACF2D9381508111FCCFCE0EEB
:10513000D11CE0E0D9CF89E6D6018C938EE611969A
:105140008C93119786E6E4CF9B0177FF02C030E095
:1051500020E0A1E0B0E0911102C0B0E0A0E0F901D0
:105160003196AE0FBF1F8B2C912CBB2009F461C070
:105170005401EFEFAE1ABE0AAA0DBB1DFA161B06AC
:1051800019F014F04F2D4A1B511188C0E3FC59C08F
:105190007601A42FB0E2A1114FC0C40ED11C9923F7
:1051A00009F45BC040E0D6011196F60190836D01D1
:1051B000552309F448C0012F060F9A81582F5071CA
:1051C00084FF03C0913309F4015010160CF047C05E
:1051D000093008F008E0EEE2FE2E5B01A01AB108EB
:1051E00085019194819491082F3F320729F4D601CB
:1051F000FC92F60131966F016217730794F1021762
:1052000013077CF5DB01A21BB30BAA24A394B12CDA
:10521000AC0EBD1EAA0DBB1D11968C9121503109FB
:10522000D601119628153905F4F0F60180836D0139
:10523000DBCFB12CA12CA0CFF701B1937F01A150FE
:10524000AACF9111B0CFD601942F50E302C05D9345
:1052500091509111FCCFC40ED11C40E0ACCF01E0C5
:10526000BACF80E3DBCF6217730731F4963388F44B
:10527000953311F4552369F0F6018083FD01842FE5
:1052800090E2811108C0A40FB11D1C9290E080E053
:1052900002CF81E3F1CF91938150F3CF911183CF6E
:1052A0008ACF283008F027E03327DA01990F311D23
:1052B00087FD916000966105710539F432602E5FBB
:1052C0003D9330E32A95E1F708959F3F30F0803811
:1052D0007105610509F03C5F3C5F3D93913008F03A
:1052E0008068911DDF93CF931F930F93FF92EF92EE
:1052F000192F987F9695E92F96959695E90FFF2798
:10530000E25FFE4F99273327EE24FF24A701E70130
:1053100005900894079428F4360FE71EF81E491FDD
:10532000511D660F771F881F991F0694A1F70590DE
:10533000079428F4E70EF81E491F561FC11D770F6A
:10534000881F991F661F0694A1F70590079428F4FB
:10535000F80E491F561FC71FD11D880F991F661FC2
:10536000771F0694A1F70590079420F4490F561F64
:10537000C71FD81F990F661F771F881F0694A9F7AC
:1053800084911095177041F0D695C795579547951C
:10539000F794E7941A95C1F7E4EBF0E06894159060
:1053A000159135916591959105907FE27395E1187E
:1053B000F10A430B560BC90BD009C0F7E10CF11EE3
:1053C000431F561FC91FD01D7EF4703311F48A95F8
:1053D000E6CFE894015030F0080F0AF400270217D6
:1053E00008F4202F2395022F7A3328F079E37D9358
:1053F0002A95E9F710C07D932A9589F6069497952A
:105400006795379517951794E118F10A430B560BDA
:10541000C90BD00998F023957E9173957A3308F0E3
:1054200070E37C932013B8F77E9170617D9330F028
:10543000839571E37D9370E32A95E1F71124EF9052
:10544000FF900F911F91CF91DF91992787FD909544
:1054500008950E946B2A08F481E00895E89409C039
:1054600097FB3EF490958095709561957F4F8F4F97
:105470009F4F9923A9F0F92F96E9BB279395F695AD
:10548000879577956795B795F111F8CFFAF4BB0F2B
:1054900011F460FF1BC06F5F7F4F8F4F9F4F16C08F
:1054A000882311F096E911C0772321F09EE8872F19
:1054B000762F05C0662371F096E8862F70E060E0D5
:1054C0002AF09A95660F771F881FDAF7880F96954E
:1054D000879597F90895990F0008550FAA0BE0E8F2
:1054E000FEEF16161706E807F907C0F012161306A6
:1054F000E407F50798F0621B730B840B950B39F4E6
:105500000A2661F0232B242B252B21F408950A264B
:1055100009F4A140A6958FEF811D811D08950E9479
:10552000A22A0C94132B0E94052B38F00E940C2BFE
:1055300020F0952311F00C94FC2A0C94022B1124DA
:105540000C94472B0E94242B70F3959FC1F3950F69
:1055500050E0551F629FF001729FBB27F00DB11DF7
:10556000639FAA27F00DB11DAA1F649F6627B00D87
:10557000A11D661F829F2227B00DA11D621F739F70
:10558000B00DA11D621F839FA00D611D221F749F7E
:105590003327A00D611D231F849F600D211D822FC5
:1055A000762F6A2F11249F5750409AF0F1F08823EC
:1055B0004AF0EE0FFF1FBB1F661F771F881F915019
:1055C0005040A9F79E3F510580F00C94FC2A0C94A2
:1055D000472B5F3FE4F3983ED4F386957795679524
:1055E000B795F795E7959F5FC1F7FE2B880F911D43
:1055F0009695879597F9089597F99F6780E870E0E9
:1056000060E008959FEF80EC089500240A94161638
:10561000170618060906089500240A9412161306A0
:10562000140605060895092E0394000C11F488232E
:1056300052F0BB0F40F4BF2B11F460FF04C06F5F4A
:105640007F4F8F4F9F4F089557FD9058440F551F20
:1056500059F05F3F71F04795880F97FB991F61F0F4
:105660009F3F79F087950895121613061406551F6B
:10567000F2CF4695F1DF08C0161617061806991FD7
:10568000F1CF86957105610508940895E894BB27CC
:1056900066277727CB0197F90895DB018F939F93B6
:1056A0000E947F2BBF91AF91A29F800D911DA39F60
:1056B000900DB29F900D11240895A1E21A2EAA1BFD
:1056C000BB1BFD010DC0AA1FBB1FEE1FFF1FA217B2
:1056D000B307E407F50720F0A21BB30BE40BF50BAF
:1056E000661F771F881F991F1A9469F76095709538
:1056F000809590959B01AC01BD01CF0108950E945A
:10570000C12BA59F900DB49F900DA49F800D911D5E
:10571000112408952F923F924F925F926F927F9241
:105720008F929F92AF92BF92CF92DF92EF92FF92B1
:105730000F931F93CF93DF93CDB7DEB7CA1BDB0B5D
:105740000FB6F894DEBF0FBECDBF09942A88398802
:1057500048885F846E847D848C849B84AA84B98409
:10576000C884DF80EE80FD800C811B81AA81B98115
:10577000CE0FD11D0FB6F894DEBF0FBECDBFED0129
:105780000895A29FB001B39FC001A39F700D811D1A
:105790001124911DB29F700D811D1124911D08953A
:1057A0005058BB27AA270E94E82B0C94132B0E9469
:1057B000052B38F00E940C2B20F039F49F3F19F490
:1057C00026F40C94022B0EF4E095E7FB0C94FC2AD3
:1057D000E92F0E94242B58F3BA1762077307840736
:1057E000950720F079F4A6F50C94462B0EF4E0957D
:1057F0000B2EBA2FA02D0B01B90190010C01CA018B
:10580000A0011124FF27591B99F0593F50F4503E35
:1058100068F11A16F040A22F232F342F4427585F27
:10582000F3CF469537952795A795F0405395C9F73F
:105830007EF41F16BA0B620B730B840BBAF09150F7
:10584000A1F0FF0FBB1F661F771F881FC2F70EC096
:10585000BA0F621F731F841F48F487957795679569
:10586000B795F7959E3F08F0B0CF9395880F08F055
:105870009927EE0F9795879508950E94052B60F064
:1058800080E891E009F49EEF0E940C2B28F040E89C
:1058900051E071F45EEF0CC00C94022B0C94462B7B
:1058A000E92FE0780E94242B40F3092E052AB1F35A
:1058B000261737074807590738F00E2E07F8E02556
:1058C00069F0E025E0640AC0EF6307F8009407FA86
:1058D000DB01B9019D01DC01CA01AD01EF930E941A
:1058E000CB2C0E94132B0E94802C5F91552339F002
:1058F0002BED3FE049E450FD49EC0C94D12B089589
:10590000DF93DD27B92FBF7740E85FE31616170650
:1059100048075B0718F4D92F0E94C72D9F938F93D8
:105920007F936F930E941D2EE8E6F0E00E945C2DAD
:105930000E94132B2F913F914F915F910E94A22AB9
:10594000DD2351F09058A2EA2AED3FE049EC5FE3F5
:10595000D0785D270E94E82BDF910C94132B0E94D6
:10596000852DE3950C94AE2D0E94C82C0C94132B1E
:105970000E940C2B58F00E94052B40F029F45F3F49
:1059800029F00C94FC2A51110C94472B0C94022BF7
:105990000E94242B68F39923B1F3552391F3951BAF
:1059A000550BBB27AA2762177307840738F09F5F40
:1059B0005F4F220F331F441FAA1FA9F335D00E2EAD
:1059C0003AF0E0E832D091505040E695001CCAF71A
:1059D0002BD0FE2F29D0660F771F881FBB1F2617DD
:1059E00037074807AB07B0E809F0BB0B802DBF01B4
:1059F000FF2793585F4F3AF09E3F510578F00C9483
:105A0000FC2A0C94472B5F3FE4F3983ED4F3869531
:105A100077956795B795F7959F5FC9F7880F911DA3
:105A20009695879597F90895E1E0660F771F881F8F
:105A3000BB1F621773078407BA0720F0621B730B42
:105A4000840BBA0BEE1F88F7E09508950E942D2D68
:105A50006894B1110C94472B08950E942C2B88F068
:105A60009F5798F0B92F9927B751B0F0E1F0660F22
:105A7000771F881F991F1AF0BA95C9F714C0B13063
:105A800091F00E94462BB1E008950C94462B672FAD
:105A9000782F8827B85F39F0B93FCCF38695779592
:105AA0006795B395D9F73EF490958095709561957B
:105AB0007F4F8F4F9F4F0895DF93CF931F930F9387
:105AC000FF92EF92DF927B018C01689406C0DA2E80
:105AD000EF010E94A22AFE01E894A591259135913B
