:100000000C941E010C94C9150C94A2150C943B176A
:100010000C9416170C94F1160C9446010C9446019E
:100020000C9446010C9448160C9446010C9446011D
:100030000C9446010C9446010C9446010C94460124
:100040000C9458150C9446010C9416160C94F0154B
:100050000C9446010C9446010C9446010C94460104
:100060000C9460170C944601084AD73B3BCE016EB6
:1000700084BCBFFDC12F3D6C74319ABD56833DDAFF
:100080003D00C77F11BED9E4BB4C3E916BAAAABE0E
:10009000000000803F05A84CCDB2D44EB93836A937
:1000A000020C50B9918688083CA6AAAA2ABE000074
:1000B00000803F0000407A10F35A00A0724E1809E9
:1000C0000010A5D4E80000E87648170000E40B54BF
:1000D000020000CA9A3B000000E1F505000080968E
:1000E0009800000040420F000000A08601000000C0
:1000F000102700000000E80300000000640000007A
:1001000000000A00000000000100000000002C7642
:10011000D888DC674F0823DFC1DFAE59E1B1B7965D
:10012000E5E3E453C63AE651997696E8E6C28426BA
:10013000EB898C9B62ED407C6FFCEFBC9C9F40F296
:10014000BAA56FA5F490055A2AF75C936B6CF96712
:100150006DC11BFCE0E40D47FEF520E6B500D0EDD7
:10016000902E0300943577050080841E080000203F
:100170004E0A000000C80C333333330F986E1283DD
:100180001141EF8D2114893BE65516CFFEE6DB18B1
:10019000D1844B381BF77C1D901DA4BBE424203276
:1001A00084725E228100C9F124ECA1E53D275A4406
:1001B000410056544700524D4300475356004753A1
:1001C000540047534100474C4C0047474100CA0187
:1001D000C601C201BE01BA01B601B201AE01000002
:1001E0000000240027002A0000000008000201008F
:1001F00000030407000000000000000000000000F1
:10020000250028002B000000000023002600290004
:1002100004040404040404040202020202020303AC
:1002200003030303010204081020408001020408B4
:100230001020010204081020C418022611241FBE39
:10024000CFEFD8E0DEBFCDBF25E0AEE6B1E001C024
:100250001D92A13AB207E1F711E0A0E0B1E0E2E4BB
:10026000FCE502C005900D92AE36B107D9F711E05A
:10027000CDE1D1E004C02197FE010E94D52CCC3104
:10028000D107C9F70E94D9190C94142E0C940000C0
:10029000FC018091D70381111AC011821082138250
:1002A00012828091D90382608093D9031092D8037F
:1002B00091E06D3209F090E08091D90390FB80F9D4
:1002C0008093D9036D3209F06EC080E008956C32DE
:1002D00099F58091D803811103C081E08093D80300
:1002E00082819381892B99F05AE08091D80391E023
:1002F000980F9093D803481750F022813381529F72
:10030000C001539F900D112493838283EECF90916F
:10031000D903892F817090FF44C0228133813195A8
:1003200021953109338322832081318131952195B3
:1003300031093183208308956E3221F481E0809366
:10034000D803C3CF8091D803811112C0208131819D
:100350004AE0429FC001439F900D1124062E000CDD
:10036000770B60537109680F791F71836083ADCF7C
:1003700091E0980F9093D803481708F4A6CF2281F4
:1003800033814AE0429FC001439F900D1124062E05
:10039000000C770B60537109680F791F73836283B8
:1003A00094CF81E008956C3209F497CF6E3271F6E4
:1003B000C5CF813311F0813421F483E08093D303DE
:1003C00008C0803321F08E3411F0863541F410924C
:1003D000D3038091D40381608093D4030895823342
:1003E00011F0843411F484E0E9CF833311F487E011
:1003F000E5CF843311F486E0E1CF853311F485E055
:10040000DDCF863311F0853449F781E0D7CF0895E9
:100410009091E2028091E1022FEF3FEF981748F4AC
:10042000E92FF0E0EF53FD4F208130E09F5F909384
:10043000E202C90108959091E2028091E1022FEF5A
:100440003FEF981748F4E92FF0E0EF53FD4F20817C
:1004500030E09F5F9093E202C9010895FC01538D43
:10046000448D252F30E0842F90E0821B930B54178E
:1004700010F0CF96089501970895FC01918D828D1B
:10048000981761F0A28DAE0FBF2FB11D5D968C91B4
:10049000928D9F5F9F73928F90E008958FEF9FEFF3
:1004A0000895FC01918D828D981731F0828DE80FAF
:1004B000F11D858D90E008958FEF9FEF0895FC0169
:1004C000918D228D892F90E0805C9F4F821B910936
:1004D0008F7399270895FC01A48DA80FB92FB11D22
:1004E000A35ABF4F2C91848D90E001968F7399276A
:1004F000848FA689B7892C93A089B1898C91837048
:1005000080648C93938D848D981306C00288F38940
:10051000E02D80818F7D80830895EF92FF920F936D
:100520001F93CF93DF93EC0181E0888F9B8D8C8D9F
:1005300098131AC0E889F989808185FF15C09FB793
:10054000F894EE89FF896083E889F9898081837056
:10055000806480839FBF81E090E0DF91CF911F9105
:100560000F91FF90EF900895F62E0B8D10E00F5F26
:100570001F4F0F731127E02E8C8D8E110CC00FB6FC
:1005800007FCFACFE889F989808185FFF5CFCE0194
:100590000E946B02F1CFEB8DEC0FFD2FF11DE35AA2
:1005A000FF4FF0829FB7F8940B8FEA89FB89808117
:1005B0008062CFCFCF93DF93EC01888D8823B9F091
:1005C000AA89BB89E889F9898C9185FD03C080815E
:1005D00086FD0DC00FB607FCF7CF8C9185FFF2CFDB
:1005E000808185FFEDCFCE010E946B02E9CFDF91C4
:1005F000CF9108958FEE92E00E945F0221E0892B57
:1006000009F420E0822F089580E090E0892B29F002
:100610000E94FA0281110C940000089590E0FC0100
:10062000E851FE4F2491FC01EC5DFD4F3491FC013B
:10063000E05FFD4FE491EE23C9F0222339F023302F
:1006400001F1A8F4213019F1223029F1F0E0EE0F88
:10065000FF1FE450FE4FA591B4918FB7F894EC9131
:10066000611126C030953E233C938FBF08952730FB
:10067000A9F02830C9F0243049F7809180008F7D9F
:1006800003C0809180008F7780938000DFCF84B596
:100690008F7784BDDBCF84B58F7DFBCF8091B00099
:1006A0008F778093B000D2CF8091B0008F7DF9CF4B
:1006B0003E2BDACFCF93DF9390E0FC01EC5DFD4F52
:1006C0002491805F9D4FFC0184918823D1F090E0BC
:1006D000880F991FFC01E252FE4FA591B491FC01D5
:1006E000E450FE4FC591D49161110EC09FB7F894AC
:1006F0008C91E22FE0958E238C932881E223E8836E
:100700009FBFDF91CF9108958FB7F894EC91E22BC2
:10071000EC938FBFF6CFCF93DF93A091ED02B09112
:10072000EE02109709F443C01C968C911C97EDE6DD
:10073000F0E0883050F0EBE6F0E08E3030F0ECE6A0
:10074000F0E0863110F0F0E0E0E05FB7F89410924E
:10075000EE021092ED02309749F11C968C911C9795
:10076000C8E6D0E0863110F0D0E0C0E028818830C3
:1007700008F46AC031E08E3008F430E081E090E0A7
:1007800001C0880F3A95EAF78095822388836081BB
:100790001C964C91483008F059C081E090E001C0AF
:1007A000880F4A95EAF78095862380835FBF60E0D3
:1007B000809195050E945A038091950590E0FC0177
:1007C000EC5DFD4FE491E093EC02FC01E05FFD4F36
:1007D000E491F0E0EE0FFF1FEA5FFD4F85919491E9
:1007E00090939805809397058091960590E0FC0181
:1007F000EC5DFD4F24912093EB02FC01E05FFD4F87
:10080000E491F0E0EE0FFF1FE450FE4FA591B4918C
:10081000B093EA02A093E902109719F0EC91E22B51
:10082000EC9361E0809196050E945A0380919505B2
:100830008830E0F08E3008F45EC0ECE6F0E08631FF
:10084000B8F0DF91CF9108958BEF9FCF242F30E048
:100850004E3048F42850310981E090E001C0880F03
:100860002A95EAF7A0CF2E503109F6CFEDE6F0E059
:100870008FEF8093E8021092E7021092E6028091D7
:10088000990590919A0581152BE4920709F457C0B8
:10089000A8F58038954209F440C05FB7F8944081CC
:1008A00090919505983008F052C081E001C0880F02
:1008B0009A95EAF7842B808380919505E8E6F0E02D
:1008C000863110F0F0E0E0E09081883008F44EC00E
:1008D00021E08E3008F420E081E001C0880F2A95E5
:1008E000EAF7892B808389E895E09093EE02809364
:1008F000ED025FBFA6CFEBE6F0E0BACF82312AE788
:100900009207A9F08115964941F686E08093E502A9
:100910008DE98093E40284E007C08AE18093E502D8
:1009200087E28093E4028AE08093E302B6CF88E016
:100930008093E50280E88093E40285E0F5CF8DE0C6
:100940008093E5028EE48093E40286E0EDCF292FC8
:1009500030E09E3040F42850310981E001C0880F1A
:100960002A95EAF7A7CF2E503109F7CF84E0B9CF07
:100970003FB7F89480916D0290916E02A0916F0242
:10098000B091700226B5A89B05C02F3F19F00196C3
:10099000A11DB11D3FBFBA2FA92F982F8827BC01D9
:1009A000CD01620F711D811D911D42E0660F771F01
:1009B000881F991F4A95D1F70895CF92DF92EF9241
:1009C000FF921F93CF93DF93C82FD62F172FF89442
:1009D0000E94B804C0900604D0900704E090080478
:1009E000F090090478946C197D098E099F09C090D4
:1009F000FD03D090FE03E090FF03F09000046C151F
:100A00007D058E059F0550F08D2F912FDF91CF91A1
:100A10001F91FF90EF90DF90CF9008958091020496
:100A20008C1790F3F8948C2F90E081509048880FA9
:100A3000991F2091030430910404820F931FFC013D
:100A40002081318178948091F5039091F603409153
:100A5000F9035091FA03BC01641B750B2617370785
:100A600098F26091F7037091F803460F571F4217F1
:100A7000530750F22817390748F2C9016217730764
:100A800028F6CB01C3CF8F929F92AF92BF92CF92A5
:100A9000DF92EF92FF924B015C010E94B8046B0160
:100AA0007C010E94B8046C197D098E099F09683E7B
:100AB000734081059105A8F321E0821A9108A108ED
:100AC000B10888EEC80E83E0D81EE11CF11C811429
:100AD0009104A104B10429F7FF90EF90DF90CF902B
:100AE000BF90AF909F908F900895089508950895B6
:100AF000AF92BF92CF92DF92EF92FF920F931F932C
:100B0000CF93DF936C017B018B01040F151FEB0169
:100B10005E01AE18BF08C017D10759F06991D60120
:100B2000ED91FC910190F081E02DC6010995892B92
:100B300079F7C501DF91CF911F910F91FF90EF9051
:100B4000DF90CF90BF90AF900895CF93DF93EC01EB
:100B50002881222349F00E94B8046D837E838F830D
:100B60009887DF91CF9108952FB7F894409169024B
:100B700050916A0260916B0270916C022FBF4D839D
:100B80005E836F837887EDCF6F927F928F929F9273
:100B9000AF92BF92CF92DF92EF92FF920F931F938B
:100BA000CF93DF935C01EB01FA0180809180C280DA
:100BB000D380288139814A815B81B401C6010E94BA
:100BC0001A2C1816C4F5C401D601F501848795873F
:100BD000A687B787E880F9800A811B81C701D80101
:100BE000808B918BA28BB38BEE59FF4F80819181CB
:100BF000019709F5F501C481D58168807980AA80C3
:100C0000BB809301A501B701C8010E941A2C1816D8
:100C100064F09301A501B401C6010E94812873010B
:100C2000850187FF02C074018601C701D80188834E
:100C30009983AA83BB83DF91CF911F910F91FF907E
:100C4000EF90DF90CF90BF90AF909F908F907F906C
:100C50006F9008952F923F924F925F926F927F9282
:100C60008F929F92AF92BF92CF92DF92EF92FF92BC
:100C70000F931F93CF93DF93CDB7DEB761970FB676
:100C8000F894DEBF0FBECDBF1C019C012A593F4F17
:100C90003A832983D9018C91882309F45DC20E948B
:100CA000B804AB01BC01E981FA8185819681A781F5
:100CB000B085481759076A077B0708F059C28C01AD
:100CC0009D010095109520953095400F511F621F92
:100CD000731F4183528363837483E981FA81418165
:100CE0005281638174810185128523853485401783
:100CF00051076207730708F416C2800F911FA21FE5
:100D0000B31F85839683A783B087F101EE59FF4F08
:100D100080819181019709F006C29101285B3F4FC4
:100D20003F872E87F10184AD95ADA6ADB7ADF90132
:100D300080839183A283B3833897408051806280FF
:100D400073802C5F3F4F3A832983C101805B9F4FA3
:100D50009C838B83411551056105710509F40FC210
:100D6000CB01BA010E94862820E030E04AE754E433
:100D70000E940C2B6B017C01A30192010E94E728C9
:100D8000A981BA816D937D938D939C931397A7014D
:100D90009601F101EC5BFF4F60817181828193814B
:100DA0000E940C2BEB81FC8160837183828393838F
:100DB000F101EC59FF4F80819181019719F5EB8189
:100DC000FC8180819181A281B381EE85FF85408184
:100DD0005181628173817058408351836283738330
:100DE000E981FA8140815181628173817058408329
:100DF000518362837383B058EB81FC81808391833C
:100E0000A283B383D1019C968D909D90AD90BC90B0
:100E10009F97F10180AE91AEA2AEB3AE80A591A531
:100E2000A2A5B3A584AB95ABA6ABB7AB84A195A1A6
:100E3000A6A1B7A18D839E83AF83B88780AB91AB0A
:100E4000A2ABB3AB02811381D8012D913D914D919D
:100E50005C9124A735A746A757A70680F781E02D08
:100E60006081718182819381D10198966D937D9388
:100E70008D939C939B970E94282A6B017C01F10122
:100E8000C4A2D5A2E6A2F7A2A5019401D8016D9152
:100E90007D918D919C910E94282A4B015C01F1016A
:100EA000E05AFF4F8081918181010C5A1F4F0097BA
:100EB00009F073C1A7019601EE85FF8560817181FC
:100EC000828193810E94E728D8016D937D938D9351
:100ED0009C931397EB81FC81608171818281938166
:100EE0009058A50194010E94E7284B015C01F10193
:100EF000E45AFF4F80829182A282B38220E030E0E8
:100F0000A901C301B2010E9481289101285A3F4FD3
:100F10003F872E87882309F44DC1A70196016D8173
:100F20007E818F8198850E94292A20E030E040E070
:100F30005FE30E94E728A981BA812D913D914D91EF
:100F40005C910E94E728EE85FF85208131814281F6
:100F500053810E94292A3B018B839983D1015896A2
:100F6000CC9058975996DC9059975A96EC905A978E
:100F70005B96FC9093014B815981B601C7010E9499
:100F80001A2C18168CF0F101C488D588E688F788E9
:100F90009601A701B3018B8199810E941A2C181622
:100FA0001CF06301EB80F980D8012D913D914D91AA
:100FB0005C91F10160857185828593850E94292A63
:100FC000A50194010E94292A2B013C01D1011C9604
:100FD000BC91BA87F101F585FB87D1011E96BC91C2
:100FE000BC87F101F785FD87AC019B016A857B8594
:100FF0008B2F9F2F0E94282A4B018D83998720E0F9
:1010000030E0A9010E94812887FDD9C094014D815B
:1010100059856A857B858C859D850E94812887FFFF
:1010200006C08A849B842C852D833D853987D10118
:101030005096BC91B983F101F189FB83D10152969D
:10104000AC9052975396BC90A301920169817F2F77
:10105000C5010E94282A8B01898B988B9B01AC01CA
:1010600069817B81C5010E941A2C18160CF4ACC052
:1010700020E030E0A901B801898998890E941A2CE2
:10108000181624F400E010E0198A188A980149899A
:101090005889B601C7010E94812887FD0FC09401BD
:1010A0004D815985B601C7010E941A2C18160CF003
:1010B00090C08401BD81B98BE985E88BC801A989FD
:1010C000B889EE85FF8580839183A283B3839801DD
:1010D000AD01C301B2010E94292A8B0189879D833A
:1010E0009B01AC0169817B81C5010E941A2C1816F5
:1010F0007CF0980149855D816A857B858C859D851D
:101100000E94812887FD69C009831B83A984BD8053
:10111000D1011496ED91FC9189819B81D501808349
:101120009183A283B38361960FB6F894DEBF0FBE9E
:10113000CDBFDF91CF911F910F91FF90EF90DF9086
:10114000CF90BF90AF909F908F907F906F905F9067
:101150004F903F902F9008958FB7F8944091690277
:1011600050916A0260916B0270916C028FBF9BCDAF
:10117000481B590B6A0B7B0BE981FA81AACDA98127
:10118000BA811D921D921D921C921397EB81FC81D6
:1011900010821182128213820BCE019709F09ACE2F
:1011A000EE85FF8560817181828193819058A501D0
:1011B000940188CE612C712C1B821982CFCE812C98
:1011C000912C1D82198633CF09811B81A98AB88A87
:1011D0005DCF8601E98AF88A71CFFA85F9832B857C
:1011E0002B83AC84BD8494CFFC0114A215A216A25B
:1011F00017A210A611A612A613A614A615A616A627
:1012000017A610AA11AA12AA13AA14AA15AA16AAF6
:1012100017AA10AE11AE12AE13AEDC01AC5ABF4F1E
:101220001D921D921D921C92139714961D921D9251
:101230001D921C92139714961D921D921D921C9242
:1012400013978A599F4F0C94A5052F923F924F9266
:101250005F926F927F928F929F92AF92BF92CF9246
:10126000DF92EF92FF920F931F93CF93DF9300D003
:10127000CDB7DEB73C01F8018F89988D9A838983B9
:10128000098D1A8DD30113967C936E931297159640
:101290005C934E93149717963C932E931697208049
:1012A00031804280538020E030E0A901C201B101C9
:1012B0000E941A2C87FD35C020E030E0A901F7011B
:1012C00060817181828193810E941A2C87FD29C0DF
:1012D00020E030E0A901D6016D917D918D919C9126
:1012E0000E941A2C87FD1DC0F30124AE35AE46AE18
:1012F00057AEF70180819181A281B381F301E05C57
:10130000FF4F80839183A283B383F6018081918113
:10131000A281B381F301EC5BFF4F80839183A283B1
:10132000B383D5018D919C91F301E05AFF4F9183D6
:101330008083F80180819181A281B381F30180874C
:101340009187A287B387D4018D919C91EC59FF4F6F
:101350009183808383010E591F4FF8018081918111
:10136000019719F4C3010E94F408A981BA814D9133
:101370005C9170E060E0C3018A599F4FFC011082CC
:1013800041875287638774870E94A505C3010E9425
:10139000F408F801808191810197D9F081E090E013
:1013A00091838083C3010F900F90DF91CF911F91A4
:1013B0000F91FF90EF90DF90CF90BF90AF909F90F4
:1013C0008F907F906F905F904F903F902F900C94F4
:1013D000F4080F900F90DF91CF911F910F91FF9024
:1013E000EF90DF90CF90BF90AF909F908F907F90C5
:1013F0006F905F904F903F902F9008956B3C98E0D6
:10140000790714F06AEC78E06E3E92E0790714F404
:101410006EEE72E0685071099B01220F232F221F8C
:10142000330B90E0FC01EE0FFF1FE80FF91FE750B0
:10143000FE4F2183660F6095628308951F93CF93BB
:10144000DF93EC01162F8091F801811122C0E9EFA2
:10145000F1E081E192E03BE027E534832583339698
:101460008E179F07D1F78EE38093FA011092F70150
:101470001092F601109270001092B00082E08093FA
:10148000B1001092B20081E087BB8093700080931E
:10149000F80188818823A1F061E0812F0E945A031E
:1014A000E8818E2F90E0FC01EE0FFF1FE80FF91F7F
:1014B000E750FE4F1F716081607E612B6062608328
:1014C0008881DF91CF911F9108958EBD00000DB4EA
:1014D00007FEFDCF8EB50895DF92EF92FF920F9336
:1014E0001F93CF93DF937C01062FC42FD0E08EE1B2
:1014F000289FC00DD11D112481E08093130460E06A
:1015000080910D040E940E0384E00E94650A809180
:1015100013040E94650A85E00E94650A8D2F0E94CF
:10152000650A86E00E94650A8C2F0E94650AE70121
:1015300010E0CE018E199F098017910744F4D990CD
:1015400087E00E94650A8D2D0E94650AF2CF87E030
:101550000E94650A8FEF0E94650A61E080910D0488
:10156000DF91CF911F910F91FF90EF90DF900C943E
:101570000E03CF93DF931F92CDB7DEB7242F89835D
:10158000462F61E0CE0101960E946C0A0F90DF9118
:10159000CF910895CF92DF92EF92FF92CF93DF9396
:1015A000C0919803D0919903C988DA88EB88FC88A8
:1015B0000E94B804698B7A8B8B8B9C8B49895A89E2
:1015C0006B897C894C195D096E097F098E819F8129
:1015D000B0E0A0E084179507A607B70740F4188A83
:1015E000DF91CF91FF90EF90DF90CF900895988991
:1015F0008D859817A8F7888990E0880F991F2E8508
:101600003F85820F931FFC015183408388898F5F40
:10161000888BE6CFE091ED02F091EE023097C1F0B9
:101620000288F389E02D309709F009942091E602B1
:1016300030E0A9014F5F5F4F4F7355279091E7024C
:10164000941731F02B543E4FF90180834093E6020A
:101650000895CF93DF93EC013091E8023F3F91F181
:10166000AE85BF858C919091EC02892359F126B506
:1016700099E0931B8091E302280F8091B401281B0D
:101680008091E402289F90011124232F332726956F
:10169000269592171306B0F48091B3012091B20100
:1016A000915018F0822B220FFBCF8093B30120932F
:1016B000B2019093E8020E940A0B81E02A893B89DB
:1016C000232B09F080E0DF91CF910895EF92FF92F4
:1016D0000F931F93CF93DF93E6B4F090EC02F822C0
:1016E0009091E8029F3F91F4F11009C01092E80236
:1016F00081E08093B2011092B301E092B401DF91D6
:10170000CF911F910F91FF90EF900895C091E30248
:10171000CE0D8091B401C81B8091E402C89FE00106
:101720001124CD2FDD27C695C69529E0291B022F50
:1017300010E00C171D0708F02C2F920F9093E80271
:101740004091B2018091B301F11011C02150342FAA
:10175000330F2F3F19F0842B432FF8CF8093B30121
:101760003093B201983048F20E940A0B13C0215006
:10177000330B01C0440F2A95EAF74093B201842B42
:101780008093B301983008F4B8CF0E940A0B81E02F
:10179000F81621F00C171D0708F4A8CF8FEF8093DF
:1017A000E802ABCFCF92DF92EF92FF920F931F939D
:1017B000CF93DF938C01D62E8091E9029091EA02BB
:1017C000892B09F454C0D8011C969C91D4E0983020
:1017D00048F081E09E3008F480E0D1E001C0DD0FE8
:1017E0008A95EAF7CFB6F894F6B490E0E12CE3944A
:1017F000E091E902F091EA028091EB02BAE0EB1687
:1018000051F19923D9F09081892B8083C091E50211
:10181000C63011F4E0FCC7E086B58F198C17B0F420
:101820008BB38D2379F08BB38D2B8BBBD8011E9698
:10183000ED91FC9180810E94660BEECF90818095A6
:101840008923E3CFC8010E94290BE6CFFC0E9D2D12
:101850009170D694CCCF9081892B8083CFBE86B5F2
:101860008F198C1778F4C8010E94290BF8CF90E0EB
:1018700080E0DF91CF911F910F91FF90EF90DF906B
:10188000CF90089581E090E0F4CF2091E70280911D
:10189000E602821769F030E0F901EB54FE4F8081D7
:1018A0002F5F3F4F2F7333272093E70290E0089577
:1018B0008FEF9FEF08959C018091E6029091E702DF
:1018C000891B990B805C9F4F60E470E00E94A22C02
:1018D000811105C0C901F8940E94290B789490E009
:1018E00008958F929F92AF92BF92CF92DF92EF9224
:1018F000FF926B017C01BC01A60182E076956795A1
:10190000579547958A95D1F7D701C60124E0B6953A
:10191000A795979587952A95D1F7840F951FA61FB0
:10192000B71F4C015D0134E0B694A7949794879457
:101930003A95D1F7880D991DAA1DBB1D892E9A2EA7
:10194000AB2EBB24880E991EAA1EBB1EC501AA275A
:10195000BB27880E991EAA1EBB1EA3E0B0E0A501FE
:1019600094010E94D729A7019601261B370B480B2B
:10197000590BABE0B0E00E94D729E5E0969587953A
:1019800077956795EA95D1F7680D791D8A1D9B1D9E
:10199000FF90EF90DF90CF90BF90AF909F908F908F
:1019A0000895CF92DF92EF92FF921F93CF93DF9330
:1019B000EC01162F8091D70381110BC01882198278
:1019C0001A821B821092D8038091D903826080937F
:1019D000D9031E3291F11C3209F064C08091D80302
:1019E000882359F18091D803843009F07CC0288184
:1019F00039814A815B81A4E6B0E00E94D7296883DF
:101A000079838A839B83C880D980EA80FB80C70161
:101A1000B601660F771F881F991F6F5F7F4F8F4F2B
:101A20009F4F0E94710CC60ED71EE81EF91EC88279
:101A3000D982EA82FB8281E02AC081E08093D803C8
:101A40002981822F82958F702F703AE0839F200D1D
:101A500011248A8181112C598881982F92959F7029
:101A60008F703AE0939F800D11249CE3299F900191
:101A70001124820F932F911D092E000CAA0BBB0B72
:101A800088839983AA83BB831E3249F480E0DF9167
:101A9000CF911F91FF90EF90DF90CF9008951C326F
:101AA00009F4A0CF8091D803811143C08881998126
:101AB000AA81BB8134E0880F991FAA1FBB1F3A95EA
:101AC000D1F7412F110F550B40535109052E000C32
:101AD000660B770B842B952BA62BB72B88839983CA
:101AE000AA83BB83D3CF853039F4288139814A81D9
:101AF0005B81AAE0B0E081CF863009F484CF08F0A2
:101B00009ACF288139814A815B81A8EEB3E0833086
:101B100009F473CF823019F4A0E1B7E26ECF8130BF
:101B200009F071CF60EA76E881E090E00E94A52993
:101B300066CF8F5F8093D8038730C0F428813981C6
:101B40004A815B81AAE0B0E00E94D729212F110FC2
:101B5000330B205331096901330FEE08FF08DC0114
:101B6000CB018C0D9D1DAE1DBF1DB8CF873009F078
:101B70008DCFC880D980EA80FB80C701B601660F8F
:101B8000771F881F991F6F5F7F4F8F4F9F4F0E9456
:101B9000710C6C0D7D1D8E1D9F1D19334CF06E5FF9
:101BA0007F4F8F4F9F4F688379838A839B836ECF4C
:101BB0001433CCF36F5F7F4F8F4F9F4FF4CF682F5D
:101BC0008091B103813029F0863009F481C081E031
:101BD0000895E091D603E250E830C8F7F0E0ED5008
:101BE000F24F0C94D52C7A0EFB0D1D0E910E2F0E7C
:101BF000370EE70D550E8091D90382FFE8CF809113
:101C0000D7038111E4CF633511F78091BE03909122
:101C1000BF03A091C003B091C103B095A09590956A
:101C200081959F4FAF4FBF4F8093BE039093BF03EB
:101C3000A093C003B093C103CACF6C3249F4809122
:101C4000D703811105C08091D9038B7F8093D9037D
:101C50008091D90382FFBBCF82EC93E05FC080917B
:101C6000D7038111B4CF862F0E94D901B0CF8091C4
:101C7000D9038E7F8093D9038091D70381110CC043
:101C80006C3209F4A4CF60536093D2038091D403E3
:101C900080628093D4039BCF6C32C1F38091D203D6
:101CA0009AE0899F600D1124EECF42E086EC93E02C
:101CB0000E944801882309F48ACF91E08091D703DC
:101CC000811101C090E08091D40390FB82F9E1CFB3
:101CD000E091D603E250E73008F079CFF0E0ED581C
:101CE000F14F0C94D52C2F0E7A0EFB0D1D0E910E7C
:101CF000B90ECC0E8091D70381110AC091E06C32ED
:101D000009F490E08091D90390FB82F98093D90384
:101D10008091D90382FF5BCF8EEB93E00E94D10CC0
:101D200056CF8091D90382FF52CF8091D703811182
:101D30004ECF8091D40382608093D403673509F03D
:101D400046CF8091C2039091C303A091C403B09188
:101D5000C503B095A095909581959F4FAF4FBF4F0C
:101D60008093C2039093C303A093C403B093C503AD
:101D70002ECF43E08AEC93E00E944801882309F4C7
:101D800026CF91E08091D703811101C090E080912E
:101D9000D40390FB83F97DCF42E08EEC93E00E9468
:101DA0004801882309F413CF91E08091D703811172
:101DB00001C090E08091D40390FB84F96ACF4F92E8
:101DC0005F926F927F928F929F92AF92BF92CF92CB
:101DD000DF92EF92FF92CF93DF9300D000D0CDB788
:101DE000DEB76B017C0149015A0182E0482E512C7B
:101DF000612C712CC701A30192010E94B62C29838A
:101E00003A834B835C83C501B401A30192010E9414
:101E1000B62C49805A806B807C80421A530A640A2F
:101E2000750A411487E158068BE568068AEC780646
:101E3000E4F4C818D908EA08FB08C701B6017C55C4
:101E40008C4699420F900F900F900F90DF91CF9199
:101E5000FF90EF90DF90CF90BF90AF909F908F90CA
:101E60007F906F905F904F90089581E0481689EEC3
:101E7000580684EA680685E3780654F0C818D9083D
:101E8000EA08FB08C701B601745A8349964DDACFB8
:101E9000C701B601681979098A099B09D3CF209136
:101EA0008F01260F3327331F21323105ECF42091A7
:101EB000BB02FC0190E080E0243069F082E00895EC
:101EC000A0918F012191AC0141595E4FA40FB52F14
:101ED000B11D2C930196861798F380918F01680F9E
:101EE00060938F0180E0089581E008951092BB0215
:101EF00081E08093BA021092B50261E082E10E9413
:101F00000E0361E083E10E940E03E9EBF0E08081C3
:101F10008E7F808380818D7F808388E48093B8006A
:101F200085E48093BC000895CF93DF9391E0909374
:101F30006E018823B9F0C091B800D091BA008091A9
:101F4000BC008A7B8093BC0060E082E10E940E03AB
:101F500060E083E10E940E030E94760FD093BA00E6
:101F6000C093B800DF91CF9108958F929F92AF9266
:101F7000BF92CF92DF92EF92FF920F931F93CF9376
:101F8000DF93D82FC62F142F613208F09CC00E9417
:101F9000B8046B017C018091BB0281116FC081E0AC
:101FA0008093BB021093BA029FEF9093B9021092F4
:101FB000B8029C0F9093B7028093B6028091B6024C
:101FC000DD0FD82BD093B6028091B502813009F095
:101FD0007CC01092B5020E94B8046B017C01809114
:101FE000B6028093BB008091BD029091BE02A09189
:101FF000BF02B091C002892B8A2B8B2BA1F00E94CB
:10200000B8040091BD021091BE022091BF02309130
:10201000C0026C197D098E099F090617170728074A
:10202000390708F44CC08091BC0083FDD8CF85EC03
:102030008093BC000E94B8046B017C018091BB02BC
:10204000813009F444C08091B8028C1710F4C0911B
:10205000B802E5E9F2E0A1ECB2E080E08C1359C0EF
:102060008C2FDF91CF911F910F91FF90EF90DF9018
:10207000CF90BF90AF909F908F9008958091BD02B8
:102080009091BE02A091BF02B091C002892B8A2B11
:102090008B2B09F480CF0E94B8048090BD029090F1
:1020A000BE02A090BF02B090C0026C197D098E09DB
:1020B0009F0986169706A806B90608F06CCF80918E
:1020C000BC020E94940FC0E0CBCF85EEB1CF8091CF
:1020D000BD029091BE02A091BF02B091C002892BB7
:1020E0008A2B8B2B09F4AACF0E94B8040091BD0261
:1020F0001091BE022091BF023091C0026C197D097F
:102100008E099F09061717072807390708F096CF89
:10211000D6CF91919D938F5FA1CFCF92DF92EF9217
:10212000FF920F931F93CF93DF93D091940281E09E
:10213000D13208F09BC0C09193020E94B8046B0199
:102140007C018091BB0281116BC082E08093BB0255
:102150001092BA028FEF8093B9021092B802D09316
:10216000B702A3E7B2E0E5E9F2E080E0D8138DC062
:102170001092B6028091B602CC0FC82BC093B60263
:102180008091B502813009F084C01092B5020E949E
:10219000B8046B017C018091B6028093BB008091F2
:1021A000BD029091BE02A091BF02B091C002892BE6
:1021B0008A2B8B2BA1F00E94B8040091BD021091D4
:1021C000BE022091BF023091C0026C197D098E09B8
:1021D0009F09061717072807390708F442C080919E
:1021E000BC0083FDD8CF85EC8093BC000E94B8046E
:1021F0006B017C018091BB02823009F44CC080915C
:10220000B9028F3F09F469C08091B902803209F4A4
:1022100066C08091B902803309F463C084E026C0AF
:102220008091BD029091BE02A091BF02B091C00208
:10223000892B8A2B8B2B09F484CF0E94B804009140
:10224000BD021091BE022091BF023091C0026C19F4
:102250007D098E099F09061717072807390708F017
:1022600070CF8091BC020E94940F85E010927202A0
:102270001092940210927102DF91CF911F910F91F1
:10228000FF90EF90DF90CF9008959D9191938F5F95
:102290006DCF85EEA9CF8091BD029091BE02A09135
:1022A000BF02B091C002892B8A2B8B2B09F4A2CFDD
:1022B0000E94B8040091BD021091BE022091BF029D
:1022C0003091C0026C197D098E099F090617170706
:1022D0002807390708F08ECFC4CF80E0C7CF82E04F
:1022E000C5CF83E0C3CF0895E091E2028091E1027F
:1022F000E81730F4F0E0EF53FD4F808190E008954F
:102300008FEF9FEF08958091E1029091E202891B87
:10231000990B0895CF92DF92EF92FF920F931F9344
:10232000CF93DF937C01CB018A012091710222239C
:1023300089F0EB016B01C40ED51ECC15DD0569F0EB
:102340006991D701ED91FC910190F081E02DC701D9
:102350000995F3CF642F0E944F0FC801DF91CF91F1
:102360001F910F91FF90EF90DF90CF900895CF9342
:10237000DF931F92CDB7DEB76983209171022223CC
:10238000F9F020919402203258F021E030E0FC0175
:102390003383228390E080E00F90DF91CF91089506
:1023A00080917202E82FF0E0ED58FD4F9981908303
:1023B0008F5F809372028093940281E090E0ECCF73
:1023C00061E0CE0101960E944F0FF7CF682F8CE895
:1023D00093E00C94B7110F931F93CF93DF939C015D
:1023E0008B01EA0180910A049FEF980F983018F44E
:1023F000B9010E94FE0980910B049FEF980F98305D
:1024000018F4B8010E94FE0980910C049FEF980F08
:10241000983038F4BE01DF91CF911F910F910C9449
:10242000FE09DF91CF911F910F910895DF92EF92F6
:10243000FF920F931F93CF93DF934091BA03509174
:10244000BB036091BC037091BD034F5F5F4F6F4F43
:102450007F4F4093BA035093BB036093BC037093C8
:10246000BD038432E9F48091D90384FF03C08F7ED9
:102470008093D9031092D5031092B10381E0809329
:10248000DA031092D7038091D9038D7F8093D9030B
:10249000DF91CF911F910F91FF90EF90DF90089502
:1024A000C82F8091DA03823081F5CA3231F483E09B
:1024B0008093DA031092D703EBCF80EE8C0F8F3529
:1024C00050F48091D5038C278093D5038C2F0E94E4
:1024D000DF0D811107C01092D4031092B103109246
:1024E000DA03D6CFCC3259F48091D9038D7F809313
:1024F000D9038091D6038F5F8093D603DBCF809181
:10250000D7038F5F8093D703C3CF813009F061C0B9
:102510009091D5039C279093D503CC3271F4909180
:10252000B1039923D1F21092D4038093D603109271
:10253000D70382E08093DA03ABCF9091D703923038
:1025400008F432C1DEEFD90F8091B103882309F47A
:102550003EC08150E82FF0E0EE0FFF1FE253FE4F28
:102560002591349150E040E0AD2FB0E061E0680F7C
:1025700070E0F901EA0FFB1FE491CE1709F411C1D5
:10258000CE170CF4AACFDD24D394D80E873009F4EB
:10259000A4CFFB01E40FF51FEE0FFF1FE253FE4F28
:1025A000E590F49010E000E00D1760F4F901E00F01
:1025B000F11F8491F701E00FF11FE4910F5F1F4FAE
:1025C0008E1791F34F5F5F4F8D2D9701D2CF80E033
:1025D000C1CF833009F0D5C0C0628FE98C0F86303F
:1025E00040F5C7559091D7038091D503911123C031
:1025F00091E09093D70390E024E0959587952A95F4
:10260000E1F7C817190609F443CF8091B6039091FA
:10261000B703A091B803B091B9030196A11DB11DF4
:102620008093B6039093B703A093B803B093B90314
:1026300052CFC053D7CF8F7021E08C1301C020E060
:102640008C13B6C08091D90381FF09C08D7F809320
:10265000D9039F5F9093D7038CE20E94DF0D809196
:10266000B2039091B303A091B403B091B503019666
:10267000A11DB11D8093B2039093B303A093B40343
:10268000B093B5039091B10321E0963009F020E0BA
:102690008091D90320FB84F98093D9031092DA0347
:1026A0002091F203211172C08091D40380FF0CC0ED
:1026B0003091F1032091D30330FF04C03091F00337
:1026C000321710F42093F00381FF09C088E0EEEB8D
:1026D000F3E0ABEDB3E001900D928A95E1F78091C4
:1026E000D40382FF10C04091C6035091C70360918C
:1026F000C8037091C9034093E3035093E4036093CC
:10270000E5037093E60384FF10C04091CE0350911F
:10271000CF036091D0037091D1034093EB035093AA
:10272000EC036093ED037093EE0383FF10C04091C0
:10273000CA035091CB036091CC037091CD034093B9
:10274000E7035093E8036093E9037093EA0385FF7E
:1027500004C08091D2038093EF038091D403209131
:10276000F103822B8093F103963009F091CE109201
:10277000F4038091F20381118BCE81E08093F20308
:1027800087CE811185CE1092B10382CE886080936E
:10279000D9031092F3038091F20381508093F203E6
:1027A00083CF8F5F8093B1039F5F9093D70370CEE9
:1027B00021112BCF6DCECF92DF92EF92FF92CF936C
:1027C000DF9380E090E0A0E0B0E480931A01909362
:1027D0001B01A0931C01B0931D0160911401709125
:1027E000150190E080E00E94862820915E023091E1
:1027F0005F0240916002509161020E94282A6B01A1
:102800007C0120E030E04AE754E40E948128C8EED1
:10281000D3E087FD11C020E030E04AEF54E4C70167
:10282000B6010E941A2CC0EDD7E018162CF0C70193
:10283000B6010E947E2BEB01609112017091130191
:1028400090E080E00E94862820915302309154024B
:1028500040915502509156020E94292A6B017C0139
:1028600020E030E04AE754E40E94812868EE73E0FB
:1028700087FD10C020E030E04AEF54E4C701B60104
:102880000E941A2C60ED77E0181624F0C701B601FB
:102890000E947E2B40E456E0CE01DF91CF91FF9065
:1028A000EF90DF90CF900C94EB1190E080E00895D2
:1028B000FC01148215821682178210821182128204
:1028C0001382118610861386128615861486178643
:1028D0001686118A108A138A128A148A158A168A11
:1028E0000895DF92EF92FF920F931F93CF93DF93A0
:1028F0000097A9F1FC01208110E0222331F01F5F35
:10290000FC01E10FF11D2081F8CFD42EE62EEC0161
:10291000812F90E00E94EF2C082FF92E282FA82F4E
:10292000B92F8A2F821B811740F4999180EE890F6D
:102930008B3508F0892F8D93F4CF2D2D4E2D612FDF
:10294000802F9F2D0E946C0A802F9F2DDF91CF91A9
:102950001F910F91FF90EF90DF900C948B2DDF91E2
:10296000CF911F910F91FF90EF90DF9008954F92BC
:102970005F926F927F928F929F92AF92BF92CF920F
:10298000DF92EF92FF920F931F93CF93DF932B0170
:102990003C01F42E922E802EA02EB12C6501CE0C7F
:1029A000D11CC60102960E94EF2CEC018C0120E0A4
:1029B000482DEE2021F041E04E0D480D2E2DC30193
:1029C000B2010E942C26FE0120E38191803211F099
:1029D0008D3219F4DF0111972C93CF018C1B9D0BC5
:1029E000C816D90694F720E030E0A901C301B2016E
:1029F0000E94812887FF02C08DE28883FE01E110DA
:102A00001BC0EA0DFB1D1082492D6F2DCE010E94C7
:102A10007114CE01DF91CF911F910F91FF90EF9034
:102A2000DF90CF90BF90AF909F908F907F906F90EE
:102A30005F904F900C948B2DEC0DFD1D1182E4CF17
:102A400085ED8093BC008091BD029091BE02A09163
:102A5000BF02B091C0020796A11DB11D23E0B6953B
:102A6000A795979587952A95D1F72091BC0024FDCD
:102A700003C01092BB0208954091BD025091BE0266
:102A80006091BF027091C002452B462B472B69F322
:102A90000097A105B10541F02AE22A95F1F700C09F
:102AA0000197A109B109E1CF8091BC020C94940F68
:102AB0001F920F920FB60F9211242F933F938F9373
:102AC0009F93AF93BF938091690290916A02A09106
:102AD0006B02B0916C023091680223E0230F2D3716
:102AE00058F50196A11DB11D2093680280936902DB
:102AF00090936A02A0936B02B0936C0280916D0276
:102B000090916E02A0916F02B09170020196A11D8A
:102B1000B11D80936D0290936E02A0936F02B093EB
:102B20007002BF91AF919F918F913F912F910F9024
:102B30000FBE0F901F90189526E8230F0296A11D37
:102B4000B11DD2CF1F920F920FB60F9211242F9367
:102B50003F934F935F936F937F938F939F93AF9325
:102B6000BF93EF93FF93E0912001F091210109952C
:102B7000FF91EF91BF91AF919F918F917F916F9155
:102B80005F914F913F912F910F900FBE0F901F902B
:102B900018951F920F920FB60F9211242F933F9307
:102BA0004F935F936F937F938F939F93AF93BF9355
:102BB000EF93FF93E0911E01F0911F010995FF91A2
:102BC000EF91BF91AF919F918F917F916F915F91A5
:102BD0004F913F912F910F900FBE0F901F9018951E
:102BE0001F920F920FB60F9211242F933F934F9382
:102BF0005F936F937F938F939F93AF93BF93EF9365
:102C0000FF938FEE92E00E946B02FF91EF91BF91D4
:102C1000AF919F918F917F916F915F914F913F9174
:102C20002F910F900FBE0F901F9018951F920F922B
:102C30000FB60F9211242F938F939F93EF93FF93CF
:102C4000E091FF02F09100038081E0910503F09193
:102C5000060382FD1BC09081809108038F5F8F73F4
:102C600020910903821741F0E0910803F0E0E1515F
:102C7000FD4F958F80930803FF91EF919F918F9166
:102C80002F910F900FBE0F901F9018958081F4CF59
:102C90001F920F920FB60F9211242F933F934F93D1
:102CA0005F936F937F938F939F93AF93BF93EF93B4
:102CB000FF938091F6018F5F8093F601E091F70119
:102CC0002091F6018E2F90E0FC01EE0FFF1FE80F20
:102CD000F91FE750FE4F8181E091F70182131DC07B
:102CE0008E2F90E0FC01EE0FFF1FE80FF91FE75059
:102CF000FE4F82818093B200FF91EF91BF91AF911F
:102D00009F918F917F916F915F914F913F912F9103
:102D10000F900FBE0F901F9018952091F6018E2FE7
:102D200090E0FC01EE0FFF1FE80FF91FE750FE4F88
:102D30008181821708F7E091F7018E2F90E0FC0166
:102D4000EE0FFF1FE80FF91FE750FE4F808185FF50
:102D500010C0E091F7018E2F90E0FC01EE0FFF1FF5
:102D6000E80FF91FE750FE4F808160E08F710E94ED
:102D70000E038091F7018F5F8093F7011092F601A7
:102D80001092B2008091F701882319F18091F70128
:102D90008930F8F4E091F7018E2F90E0FC01EE0FFE
:102DA000FF1FE80FF91FE750FE4F808185FFA4CF7A
:102DB000E091F7018E2F90E0FC01EE0FFF1FE80F6E
:102DC000F91FE750FE4F808161E08F710E940E0372
:102DD00093CF8091F701893008F48ECF1092F701DC
:102DE0008BCF1F920F920FB60F9211242F933F9308
:102DF0004F935F936F937F938F939F93AF93BF9303
:102E0000EF93FF9389B10E94660BFF91EF91BF9101
:102E1000AF919F918F917F916F915F914F913F9172
:102E20002F910F900FBE0F901F9018951F920F9229
:102E30000FB60F9211242F933F934F935F936F938D
:102E40007F938F939F93AF93BF93EF93FF9386B13D
:102E50000E94660BFF91EF91BF91AF919F918F916F
:102E60007F916F915F914F913F912F910F900FBE86
:102E70000F901F9018951F920F920FB60F9211246A
:102E80002F933F934F935F936F937F938F939F9372
:102E9000AF93BF93EF93FF9383B10E94660BFF91B3
:102EA000EF91BF91AF919F918F917F916F915F91C2
:102EB0004F913F912F910F900FBE0F901F9018953B
:102EC0001F920F920FB60F9211242F933F934F939F
:102ED0005F936F937F938F939F93AF93BF93EF9382
:102EE000FF938091B900887F803609F44AC0F0F5DD
:102EF000883209F4A7C018F5803109F49BC0B8F4F2
:102F0000882309F4F9C0883009F494C0FF91EF9147
:102F1000BF91AF919F918F917F916F915F914F91F1
:102F20003F912F910F900FBE0F901F9018958831F1
:102F300009F488C0803251F78093B90214C08034FC
:102F400009F49DC040F48033B9F38833F9F68093D7
:102F5000B90285ECB0C0803509F485C0883509F424
:102F600096C0883499F60E942015D0CF883909F48C
:102F70008CC038F5883729F050F4883611F0803746
:102F800029F683E08093BB021092B10157C08838C4
:102F900009F47BC0803919F0803809F0B7CF8091EF
:102FA000B101803208F071C0E091B10181E08E0F73
:102FB0008093B1018091BB00F0E0EF56FE4F80831B
:102FC0003DC0803B39F0E0F4803A09F479C0883A9A
:102FD00009F09CCF84E08093BB0210929001109284
:102FE0008F01E0911702F0911802099580918F01ED
:102FF00081110FC081E080938F0110926F0109C091
:10300000803C09F4A6CF883C09F4A3CF883B09F0A3
:103010007DCFE091900181E08E0F80939001F0E0F0
:10302000E159FE4F80818093BB0090919001809187
:103030008F0129C08091B6028093BB0085EC8093FC
:10304000BC0064CF9091B8028091B702981758F5F0
:10305000E091B80281E08E0F8093B802F0E0EB5669
:10306000FD4F8081E9CFE091B80281E08E0F80931F
:10307000B8028091BB00F0E0EB56FD4F8083909149
:10308000B8028091B7029817C8F285E8D8CFE091CE
:10309000B80281E08E0F8093B8028091BB00F0E00F
:1030A000EB56FD4F80838091BA0281115CCF81E0A5
:1030B0008093B50284EA8093BC001092BB0226CFB5
:1030C00085EC8093BC001092BB028091B1018032EC
:1030D00030F4E091B101F0E0EF56FE4F10826091C4
:1030E000B10170E0E0911502F091160281E991E0E2
:1030F00009951092B1010ACF1092B90234CFFC01A8
:103100009091F501983028F49F5F9093F50190839A
:10311000089510820895FC018CE291E091838083F0
:1031200080E090E0AFE7B3E484879587A687B78710
:10313000108A118A128A138A80E090E0AAE7B4E428
:10314000848B958BA68BB78B80E090E0AAE7B4ECDC
:10315000808F918FA28FB38F148E158E168E178E3F
:1031600010A211A212A213A2EA59FF4F10821182DB
:10317000128213821482158216821782108611869B
:1031800012861386148608951092F2021092F102AC
:1031900088EE93E0A0E0B0E08093F3029093F40215
:1031A000A093F502B093F60224E331E03093F002ED
:1031B0002093EF0225EC30E03093FC022093FB02D9
:1031C00024EC30E03093FE022093FD0220EC30E04E
:1031D000309300032093FF0221EC30E03093020390
:1031E0002093010322EC30E0309304032093030387
:1031F00026EC30E030930603209305031092080379
:103200001092090310920A0310920B0310928F037D
:1032100010928E038093900390939103A093920356
:10322000B093930326E431E030938D0320938C0315
:1032300010928C0510928B0580938D0590938E05CE
:10324000A0938F05B093900588E591E090938A054F
:103250008093890582E0809395058FEF8093960592
:1032600010929C0510929B0586E195E00E948B18B8
:1032700083EA94E00E948B1880E394E00E948B180C
:103280008CE094E00E947F188BE094E00E947F180D
:103290008AE094E00E947F1888EE93E09093F60312
:1032A0008093F50380ED97E09093F8038093F70304
:1032B0008AE090E09093FA038093F90384E398E026
:1032C0009093FC038093FB0380E291EAA7E0B0E0D7
:1032D0008093FD039093FE03A093FF03B09300043B
:1032E00083E08093010485E080930204109205043A
:1032F0001092060410920704109208041092090418
:103300008AE090E00E94EF2CFC01909304048093EB
:103310000304118210821382128215821482178292
:1033200016821186108660E083E00E945A03809125
:10333000980390919903892B91F485EF93E09093F2
:103340009903809398038AEC9AE0909321018093EB
:103350002001809169008C6080936900E99A8EEB6E
:1033600093E00E9458148BED93E00E945814109241
:10337000B2031092B3031092B4031092B5031092EB
:10338000B6031092B7031092B8031092B9031092CB
:10339000BA031092BB031092BC031092BD038EEBD4
:1033A00093E00E9458141092DA038AE993E00C9497
:1033B0005814CF93DF93CDB7DEB7C554D1090FB6FC
:1033C000F894DEBF0FBECDBF789484B5826084BD13
:1033D00084B5816084BD85B5826085BD85B5816019
:1033E00085BD80916E00816080936E001092810097
:1033F0008091810082608093810080918100816052
:103400008093810080918000816080938000809112
:10341000B10084608093B1008091B000816080939E
:10342000B00080917A00846080937A0080917A0065
:10343000826080937A0080917A00816080937A0024
:1034400080917A00806880937A001092C1001FB743
:10345000F89480911402811127C0EAE1F2E084918E
:10346000EEE2F2E09491E82FF0E0EE0FFF1FE2525F
:10347000FE4FA591B491EC91E92321F461E08AE03B
:103480000E940E0361E08AE00E945A038CB58061BD
:103490008CBD8CB580648CBD61E08DE00E945A03C8
:1034A00061E08BE00E945A03809114028F5F809349
:1034B00014021FBF1092E2021092E10210927202F7
:1034C000109294020E94760F85E795E0909318027F
:1034D0008093170286E795E0909316028093150279
:1034E0006AEF70E080E090E00E9443058FB7F894A7
:1034F00026E132E130939C0520939B058FBF80919C
:10350000990590919A058038954279F080E895E286
:1035100090939A05809399058091ED029091EE0227
:103520008958954011F40E948B030E948B0384E616
:1035300090E09093FA038093F90388E998E09093E0
:10354000FC038093FB0381E08093710288E6809303
:10355000930210927202109294028BE690E00E9405
:10356000E61190E080E00E94E6110E948D1060ED6F
:1035700077E080E090E00E94430508EE13E0C12C64
:10358000D12C7601812C912C5401412C512C3201EB
:10359000222423942092710248E6409393021092D1
:1035A0007202109294028BE390E00E94E6110E9456
:1035B0008D1041E06EE088E60E94B50F1092E202A5
:1035C0008093E1020E941B02382E0E941B023DA242
:1035D0001CA2ACA1BDA18A2B9B2B092E000CAA0B0F
:1035E000BB0B480E591E6A1E7B1E0E941B02382E02
:1035F0000E941B0239A218A2E8A1F9A18E2B9F2BD1
:10360000092E000CAA0BBB0B880E991EAA1EBB1E0E
:103610000E941B02382E0E941B0239A618A628A55C
:1036200039A5822B932B092E000CAA0BBB0BC80EBD
:10363000D91EEA1EFB1E0E941B020E941B020E9452
:103640001B020E941B020E941B020E941B020E947E
:103650001B020E941B0263E070E080E090E00E9489
:1036600043050150110909F095CFC301B20128EEBD
:1036700033E040E050E00E94B62C309336022093B5
:103680003502C501B40128EE33E040E050E00E946D
:10369000B62C3093320220933102C701B60128EED6
:1036A00033E040E050E00E94B62C305430932E02BC
:1036B00020932D020E94B8046093290270932A027D
:1036C00080932B0290932C028AE080930D04109239
:1036D0000E0487E48093100461E08AE00E945A039C
:1036E00061E08AE00E940E0364E670E080E090E012
:1036F0000E94430560E080910D040E940E0380E06B
:103700000E94650A82E480930F040E94650A61E0CA
:1037100080910D040E940E0364EF71E080E090E060
:103720000E94430560E080910D040E940E03ADE00D
:10373000EA2EA4E0FA2E10E182E0D7011F968C93C6
:10374000812F0E94650AF70187850E94650AFFEFB5
:10375000EF1AFF0A1F5F103279F784E080930F049D
:1037600080E00E94650A80910F040E94650A61E072
:1037700080910D040E940E0384E3809311048CE178
:103780008093120460E080910D040E940E0382E099
:103790000E94650A809111040E94650A83E00E94DC
:1037A000650A809112040E94650A61E080910D040F
:1037B0000E940E03809110048C608C7F8093100413
:1037C00060E080910D040E940E0381E00E94650A72
:1037D000809110040E94650A61E080910D040E94AE
:1037E0000E0380910F048F7C80930F0460E0809122
:1037F0000D040E940E0380E00E94650A80910F0470
:103800000E94650A61E080910D040E940E03809180
:103810000E0481111AC080910F0480648860809327
:103820000F0460E080910D040E940E0380E00E946E
:10383000650A80910F040E94650A61E080910D0481
:103840000E940E0381E080930E0446E069E086E664
:1038500091E00E94711460ED77E080E090E00E94BA
:1038600043058091130484608093130460E0809189
:103870000D040E940E0384E00E94650A80911304E7
:103880000E94650A8091130482FF09C084E80E94A7
:10389000650A80E00E94650A80931304F3CF61E01B
:1038A00080910D040E940E0319821A821B821C82D1
:1038B000198E188E1D8E1C8E1F8E1E8E9E012F5FE0
:1038C0003F4F29013F932F933E0138E1630E711C56
:1038D0007F926F92AE01445E5F4F4A01CE014E96D9
:1038E0005C0160E0C62E61E0D62E79E1E72E72E041
:1038F000F72E04E011E028E031E043E552E061E218
:1039000072E086E195E00E94250919821A821B82E5
:103910001C82198E188E1D8E1C8E1F8E1E8E5F921D
:103920004F927F926F922AE131E04EE552E06DE1D5
:1039300072E083EA94E00E94250919821A821B82B0
:103940001C82198E188E1D8E1C8E1F8E1E8E5F92ED
:103950004F927F926F9226E131E04AE552E06FE4A8
:1039600072E080E394E00E942509812C912CEAEF1B
:10397000AE2EE3E4BE2E89829A82AB82BC82C12C39
:10398000D12CFAEFEF2EF3ECFF2EC88ED98EEA8EF3
:10399000FB8EA201B30186E195E00E94C4058982F5
:1039A0009A82AB82BC82C88ED98EEA8EFB8EA2012F
:1039B000B30183EA94E00E94C40580E090E0A8E4AB
:1039C000B3E489839A83AB83BC8380E090E0A8E46E
:1039D000B3EC888F998FAA8FBB8FA201B30180E3CC
:1039E00094E00E94C40540E050E060EA70E4409337
:1039F000320550933305609334057093350580E0AC
:103A000090E0A0EAB0EC8093360590933705A09340
:103A10003805B09339054093BF045093C0046093B8
:103A2000C1047093C2048093C3049093C404A09310
:103A3000C504B093C60440934C0450934D04609366
:103A40004E0470934F048093500490935104A093BC
:103A50005204B093530440E050E068EC72E44093A9
:103A60002A0550932B0560932C0570932D0580E05B
:103A700090E0A8ECB2EC80932E0590932F05A093D4
:103A80003005B09331054093B7045093B804609368
:103A9000B9047093BA048093BB049093BC04A093C0
:103AA000BD04B093BE044093440450934504609316
:103AB0004604709347048093480490934904A0936C
:103AC0004A04B0934B0480917A0590917B050FB620
:103AD000F894DEBF0FBECDBF009709F084C581E02A
:103AE00090E090937B0580937A0580917805909182
:103AF0007905019721F486E195E00E94F40860E0E1
:103B000081E10E945A0369E070E08AE094E00E943B
:103B10001E0A66E070E08BE094E00E941E0A65E0F9
:103B200070E08CE094E00E941E0A48EE53E06CEDD9
:103B300075E08CED95E00E94EB110E94B804609353
:103B40006202709363028093640290936502B1E015
:103B5000B0937102E8E6E093930210927202109221
:103B600094028BE390E00E94E6110E948D1041E0E8
:103B70006EE088E60E94B50F1092E2028093E102A7
:103B80000E941B02182F0E941B021DAF1CAE2CAC02
:103B90003DAC282A392A30923802209237020E94FE
:103BA0001B02182F0E941B021FAF1EAEAEACBFAC93
:103BB000A82AB92AB0923402A09233020E941B02B2
:103BC000182F0E941B0222961FAF229721961FAE2C
:103BD00021972296EEACFFAC2297E82AF92AF092C0
:103BE0003002E0922F020E941B020E941B020E94E0
:103BF0001B02182F0E941B0224961FAF24972396A6
:103C00001FAE239724960EAD1FAD2497082B192BBA
:103C100010932802009327020E941B02D82E0E94B4
:103C20001B022696DFAE269725961FAE2597269671
:103C30004EAC5FAC2697482A592A5DA24CA25092FE
:103C40002602409225020E941B020E941B028091C4
:103C5000350290913602281A390A809131029091EA
:103C60003202A81AB90A80912D0290912E02E81A08
:103C7000F90A0E94B8042B013C018091290290911D
:103C80002A02A0912B02B0912C02A3019201281BC1
:103C9000390B4A0B5B0BCA01B9010E94862820E050
:103CA00034E244E759E40E940C2B68A379A38AA369
:103CB0009BA34092290250922A0260922B0270929A
:103CC0002C02B701FF0C880B990B0E9488286B010E
:103CD0007C01B501BB0C880B990B0E9488284B0115
:103CE0005C01A70196010E94A82A2B013C01A501B5
:103CF0009401C501B4010E94E7284B015C01A701B2
:103D00009601C701B6010E94E7289B01AC01C501DD
:103D1000B4010E94292A0E94352C6B017C01662780
:103D2000772762197309072E000C880B990B0E94E4
:103D30008828A70196010E94A82A6B017C01B8017E
:103D4000110F880B990B0E94882820E030E043E097
:103D500053E40E940C2B28A139A14AA15BA10E9427
:103D6000E7282091210230912202409123025091B4
:103D700024020E94292A2EEE3CE74FE75FE30E94CF
:103D8000E7284B015C0120E030E044E353E4C30149
:103D9000B2010E94E7282BED3FE049E450E40E9485
:103DA0000C2B20E032E143E05BE30E94E7289B011B
:103DB000AC01C501B4010E94292A609321027093CD
:103DC000220280932302909324024CA05DA0B201B2
:103DD000550C880B990B0E94882820E030E043E0C6
:103DE00053E40E940C2B28A139A14AA15BA10E9497
:103DF000E72820911D0230911E0240911F02509130
:103E000020020E94292A2EEE3CE74FE75FE30E9442
:103E1000E7284B015C0120E030E044E353E4C701B4
:103E2000B6010E94E7282BED3FE049E450E40E94F0
:103E30000C2B20E032E143E05BE30E94E7289B018A
:103E4000AC01C501B4010E94292A60931D02709340
:103E50001E0280931F029093200286E195E00E944B
:103E60002A0683EA94E00E942A0680E394E00E94F6
:103E70002A066CED75E081E00E94DD049093150147
:103E8000809314016CED75E082E00E94DD04909354
:103E900013018093120168EE73E083E00E94DD0459
:103EA000909311018093100168EE73E084E00E940A
:103EB000DD048C0190930F0180930E016CED75E091
:103EC00085E00E94DD0490930D0180930C01053A7A
:103ED000164008F490C343E050E0509367024093CB
:103EE00066028091F203882309F420C2CE01019674
:103EF0000E9458148091F2038823F1F0F894809185
:103F0000F20381508093F2038091F30347E1542E32
:103F1000589EC0011124FC01E552FC4FDE011196B0
:103F200027E101900D922A95E1F785529C4F0E945E
:103F300058141092F303789487E1FE013196AAE9B0
:103F4000B3E001900D928A95E1F78091AE03853040
:103F5000D8F180915902811137C088E0EAE9F3E095
:103F6000ADE3B2E001900D928A95E1F76091A40370
:103F70007091A503072E000C880B990B0E948828CE
:103F80002AE037ED43E25CE30E94E7286B017C0105
:103F90006091A2037091A303072E000C880B990B6C
:103FA0000E9488289B01AC01C701B6010E94292A02
:103FB0006093390270933A0280933B0290933C02E3
:103FC000662463946092590280915902882309F40F
:103FD000ADC1209141023091420240914302509183
:103FE000440260919E0370919F038091A003909181
:103FF000A1030E94DF0E4B015C0140909A03509098
:104000009B0360909C0370909D0348A659A66AA6E6
:104010007BA640903D0250903E0260903F0270901F
:10402000400248A259A26AA27BA268A579A58AA5E6
:104030009BA564197509860997096B017C0197FF97
:1040400007C0CC24DD247601C61AD70AE80AF90A8B
:1040500095018401B7FE07C00027112798010819B0
:1040600019092A093B0926013701400E511E621E1B
:10407000731E48AE59AE6AAE7BAE0E9488286CAB08
:104080007DAB8EAB9FAB25E33AEF4EE85CE30E943D
:10409000E72825E93FEB46ED53E30E94E7286B0153
:1040A0007C0120E030E040E05FE30E94E7282B0144
:1040B0003C01C501B4010E94882868AB79AB8AAB8A
:1040C0009BAB25E33AEF4EE85CE30E94E72825E945
:1040D0003FEB46ED53E30E94E7286CA37DA38EA33C
:1040E0009FA368A179A18AA19BA10E9488284B0166
:1040F0005C0125E33AEF4EE85CE30E94E72825E9FE
:104100003FEB46ED53E30E94E72868A379A38AA317
:104110009BA328AD39AD4AAD5BAD283E3340410588
:1041200051050CF083C2A301920168A179A18AA173
:104130009BA10E94292A0E94072B2CA13DA14EA1E0
:104140005FA10E94E7289B01AC010E94E7284B0178
:104150005C01A7019601C701B6010E94E7289B01F7
:10416000AC01C501B4010E94292A0E94352C22E12C
:1041700038E147EC55E40E94E72820E030E04AE7C8
:1041800054E40E94E7282B013C01409249025092DE
:104190004A0260924B0270924C026091A4037091AB
:1041A000A503072E000C880B990B0E9488282AE093
:1041B00037ED43E25CE30E94E7286B017C016091EC
:1041C000A2037091A303072E000C880B990B0E9489
:1041D00088289B01AC01C701B6010E94292A2091C1
:1041E000390230913A0240913B0250913C020E94C8
:1041F000282A60934F02709350028093510290934B
:10420000520268A179A18AA19BA10E94072B6CA7E9
:104210007DA78EA79FA728AD39AD4AAD5BAD283EDF
:104220003340410551050CF07EC22CA53DA54EA59D
:104230005FA568A979A98AA99BA90E94E7289B0183
:10424000AC016CA97DA98EA99FA90E94A82A9B01F7
:10425000AC016BED7FE089EC9FE30E94282A6B01A3
:104260007C0120E030E0A9010E94812887FF0AC07C
:104270002BED3FE049EC50E4C701B6010E94292A2A
:104280006B017C0120EE3EE245E652E4C701B60137
:104290000E94E72820E030E044EB53E40E94292A02
:1042A0006B017C016091AC037091AD03072E000C93
:1042B000880B990B0E9488282AE037ED43E25CE3E3
:1042C0000E94E7284B015C016091AA037091AB0347
:1042D000072E000C880B990B0E9488289B01AC01CB
:1042E000C501B4010E94292A9B01AC01C701B60196
:1042F0000E94282A0E947E2BCB0168E671E00E9472
:10430000A22C8C0190934E0280934D0220E030E06D
:1043100040E251E4C301B2010E94812887FF6CC2D0
:10432000A3E0B0E0B0935802A09357028091D90364
:1043300083FF03C0877F8093D90383E480937C004D
:1043400080917A00806480937A0080917A0086FD63
:10435000FCCF6091780070917900072E000C880BDB
:10436000990B0E94882820E030E040EA50E40E9447
:10437000E72820E030E040E85AE30E94E72826E6FC
:1043800036E646E15FE30E940C2B20E030E040E09F
:104390005FE30E94292A609345027093460280934E
:1043A00047029093480260919A0370919B03809119
:1043B0009C0390919D030E94882825E93FEB46EDE0
:1043C00053E30E94E72825E0E22E04E020E040E0ED
:1043D0000E94B71460919E0370919F038091A00387
:1043E0009091A1030E94882825E93FEB46ED53E315
:1043F0000E94E72820E040E10E94B71440E06BE013
:1044000086EB0E94B90A6091AE0370E090E080E014
:104410000E948628E12C02E020E04CE00E94B714C4
:104420008091590241E06CE0882309F4FFC186E8DD
:104430000E94B90A809166029091670281309105CD
:1044400009F4FCC108F4F4C18230910509F4FAC101
:10445000039709F4FBC146E060E087E80E94B90ACF
:1044600060914F02709150028091510290915202DE
:10447000E12C03E026E041E00E94B71446E069E148
:104480008BEC0E94B90A6091A8037091A903072ED2
:10449000000C880B990B0E9488282FE632E143E834
:1044A0005AE30E94E7286B017C016091A60370919A
:1044B000A703072E000C880B990B0E9488289B01EC
:1044C000AC01C701B6010E94292A26E53EE04DEE67
:1044D0005FE30E94E728E12C02E026E047E10E942A
:1044E000B71480915702909158028130910509F4D8
:1044F000B7C108F4AFC18230910509F4B5C1039783
:1045000009F4B6C160914D0270914E02072E000C65
:10451000880B990B0E948828E12C03E02CE04BE0EB
:104520000E94B7144DE069E189E80E94B90A6091E0
:10453000490270914A0280914B0290914C0204E032
:104540002DE045E10E94B7144DE064E087E90E9448
:10455000B90A60914502709146028091470290919C
:104560004802EE24E39402E02DE040E00E94B714FC
:1045700080916602909167028130910509F4B1C182
:1045800008F47AC18230910509F41CC2039709F43A
:10459000C1C20E94B804009162021091630220918E
:1045A000640230916502601B710B820B930B603AC1
:1045B0007F408105910568F30E94B8046093620210
:1045C00070936302809364029093650280E090E0B0
:1045D000892B09F4BCCA0E94FA02882309F4B7CADD
:1045E0000E940000B4CA019709F07FCA10927B05AF
:1045F00010927A057ACA843155E0950728F4109212
:104600006702109266026DCC853A964038F0E2E07F
:10461000F0E0F0936702E093660263CC4424439495
:10462000512C50926702409266025BCCC301B201EA
:104630000E94272C2B013C0120E030E040E05FE3AA
:104640006CA17DA18EA19FA10E94E7280E94272C2A
:104650006B017C0125E93FEB46ED53E3C501B40155
:104660000E94E72825E33AEF4EE85CE30E94E72842
:104670000E94072B4B015C0168A579A58AA59BA523
:104680000E94882825E93FEB46ED53E30E94E72886
:1046900025E33AEF4EE85CE30E94E7280E94072BEF
:1046A0006CA77DA78EA79FA7A7019601C701B6019A
:1046B0000E94E7286B017C012CA53DA54EA55FA5B6
:1046C000C501B4010E94E7289B01AC01C701B601F6
:1046D0000E94E7286B017C01A3019201C301B20192
:1046E0000E94E7289B01AC01C701B6010E94292A5C
:1046F0006B017C01AC019B0160E070E080E89FE30E
:104700000E94282A0E94352C4B015C01C701B6018A
:104710000E94352CA50194010E94A82A9B01AC019E
:104720000E94292A24CD68A579A58AA59BA50E9467
:10473000882825E33AEF4EE85CE30E94E72825E964
:104740003FEB46ED53E30E94E7286B017C010E949A
:10475000072B4B015C016CA17DA18EA19FA10E9442
:10476000272C68A779A78AA79BA7C701B6010E9433
:10477000272C6B017C0168A179A18AA19BA10E94D1
:10478000272C68A379A38AA39BA36CA17DA18EA1EA
:104790009FA10E94072B6CA37DA38EA39FA3A701BB
:1047A00096016CA57DA58EA59FA50E94E7286B01AB
:1047B0007C0128A139A14AA15BA1C501B4010E94D5
:1047C000E7282CA13DA14EA15FA10E94E7289B01F3
:1047D000AC01C701B6010E94282A6B017C0128A503
:1047E00039A54AA55BA5C501B4010E94E728A70128
:1047F00096010E94A82A33CDC8014097843A9105BA
:1048000038F4E1E0F0E0F0935802E09357028ECDE7
:10481000055B1109043A110508F088CD32E0432EFA
:10482000512C509258024092570280CD85E800CE1C
:1048300041E060E083EB0E94B90A0DCE41E060E008
:1048400086ECF9CF41E060E08AECF5CF41E060E032
:1048500082E7F1CF4DE06CE08BED0E94B90A52CEB9
:104860004DE06CE08DEDF9CF4DE06CE089EDF5CFDA
:104870004DE06CE084EBF1CF20E030E040E051EC23
:1048800020931A0130931B0140931C0150931D018A
:104890008091140190911501883E33E09307D8F080
:1048A000813D47E0940710F080ED97E060911201A0
:1048B00070911301683E53E0750780F0613DA7E0F9
:1048C0007A0710F060ED77E04091100150911101EE
:1048D0000E94EB115ECE88EE93E0E8CF68EE73E0C5
:1048E000F3CF412C512C90E8692E9FEB792E40920A
:1048F0001A0150921B0160921C0170921D0160917F
:1049000014017091150190E080E00E9486282091AA
:104910005E0230915F0240916002509161020E94FC
:10492000282A6B017C0120E030E04AE754E40E9431
:10493000812808EE13E087FD11C020E030E04AEF47
:1049400054E4C701B6010E941A2C00ED17E01816B6
:104950002CF0C701B6010E947E2B8B0160911201E1
:104960007091130190E080E00E948628209153020C
:104970003091540240915502509156020E94292ACA
:104980006B017C0120E030E04AE754E40E9481287A
:1049900068EE73E087FD10C020E030E04AEF54E499
:1049A000C701B6010E941A2C60ED77E0181624F0BA
:1049B000C701B6010E947E2B409110015091110158
:1049C000C80186CF80915902882309F49CC0809148
:1049D0005702909158028330910519F40E94DB131D
:1049E000D8CD8130910509F472C008F463C00297F4
:1049F00009F47AC0609114017091150190E080E093
:104A00000E94862820915E0230915F0240916002F0
:104A1000509161020E94282A6B017C0120E030E065
:104A20004AE754E40E94812808EE13E087FD11C094
:104A300020E030E04AEF54E4C701B6010E941A2C8E
:104A400000ED17E018162CF0C701B6010E947E2B6E
:104A50008B01609112017091130190E080E00E943F
:104A60008628209153023091540240915502509172
:104A700056020E94292A6B017C0120E030E04AE7BF
:104A800054E40E94812868EE73E087FD10C020E0A6
:104A900030E04AEF54E4C701B6010E941A2C60EDE1
:104AA00077E0181624F0C701B6010E947E2B48E07B
:104AB00057E086CF20E030E040E051EC20931A012F
:104AC00030931B0140931C0150931D0193CF80E054
:104AD00090E0A0E7B1EC80931A0190931B01A093A2
:104AE0001C01B0931D0186CF412C512C80E8682E0B
:104AF0008FEB782E40921A0150921B0160921C019C
:104B000070921D0177CF48EE53E06CED75E08CEDAF
:104B100095E0DECE20E030E040E051EC20931A0139
:104B200030931B0140931C0150931D0180E090E0E5
:104B3000A0EFB1E48093160190931701A0931801A0
:104B4000B0931901609114017091150190E080E01B
:104B50000E94862820915E0230915F02409160029F
:104B6000509161020E94282A6B017C0120E030E014
:104B70004AE754E40E94812808EE13E087FD11C043
:104B800020E030E04AEF54E4C701B6010E941A2C3D
:104B900000ED17E018162CF0C701B6010E947E2B1D
:104BA0008B01609112017091130190E080E00E94EE
:104BB000862820915A0230915B0240915C0250910C
:104BC0005D020E94282A6B017C0120E030E04AE768
:104BD00054E40E94812868EE73E087FD10C020E055
:104BE00030E04AEF54E4C701B6010E941A2C60ED90
:104BF00077E0181624F0C701B6010E947E2B44E12D
:104C000055E0DECE80910104823009F1833061F4F9
:104C1000E99881E090E0880F991FFC01E25EFE4F69
:104C200087E795E091838083809198039091990321
:104C3000855F934021F4109299031092980380911C
:104C4000030490910404009731F00C948B2DE898A4
:104C500090E080E0E0CF0895EF920F931F93CF9301
:104C6000DF93E80134E047FD34E1042E000C550BDE
:104C700057FF03C0519541955109E32E022F242F70
:104C8000AE010E944A26CE01DF91CF911F910F9174
:104C9000EF900895A9E0B0E0E0E5F6E20C94E82991
:104CA0006A01F22EB02E102FFBE3AF2EA01608F4EF
:104CB0001BE31F5F012F27E0AE014F5F5F4F0E9494
:104CC000A927BC018981982F9970913009F43FC0C0
:104CD0009BE2E1FC04C09E2D9170E0FC3AC05E2D89
:104CE0005071E82FE87083FF46C084E0911101C045
:104CF00083E0EF2DE81B8F1508F0E0E0D6018E2F42
:104D000020E2552351F1992329F0D6019C93C60145
:104D100001966C0196012D5F3F4FE2FE24C08EE4A8
:104D2000D6018C9391E411969C93119712968C93D3
:104D3000D9018E2F90E281111BC0E20FF32FF11DDC
:104D400010828EEF9FEF2996ECE00C94042A9DE2EE
:104D5000C6CF90E2C4CF2D9381508111FCCFCE0EEF
:104D6000D11CE0E0D0CF8EE6D6018C9391E6DBCF6C
:104D70009D938150E0CF482F447082FF3DC084E076
:104D8000911101C083E08F1510F4EF2DE81BD601BF
:104D90008E2F20E2552309F1992329F0D6019C9307
:104DA000C60101966C0196012D5F3F4FE2FE1BC0CC
:104DB00089E4D6018C938EE411968C93119786E446
:104DC00012968C93D9018E2F90E2882309F4B5CFE7
:104DD0009D938150FACF2D9381508111FCCFCE0E3F
:104DE000D11CE0E0D9CF89E6D6018C938EE61196EE
:104DF0008C93119786E6E4CF9B0177FF02C030E0E9
:104E000020E0A1E0B0E0911102C0B0E0A0E0F90123
:104E10003196AE0FBF1F8B2C912CBB2009F461C0C3
:104E20005401EFEFAE1ABE0AAA0DBB1DFA161B06FF
:104E300019F014F04F2D4A1B511188C0E3FC59C0E2
:104E40007601A42FB0E2A1114FC0C40ED11C99234A
:104E500009F45BC040E0D6011196F60190836D0124
:104E6000552309F448C0012F060F9A81582F50711D
:104E700084FF03C0913309F4015010160CF047C0B1
:104E8000093008F008E0EEE2FE2E5B01A01AB1083E
:104E900085019194819491082F3F320729F4D6011E
:104EA000FC92F60131966F016217730794F10217B5
:104EB00013077CF5DB01A21BB30BAA24A394B12C2E
:104EC000AC0EBD1EAA0DBB1D11968C91215031094F
:104ED000D601119628153905F4F0F60180836D018D
:104EE000DBCFB12CA12CA0CFF701B1937F01A15052
:104EF000AACF9111B0CFD601942F50E302C05D9399
:104F000091509111FCCFC40ED11C40E0ACCF01E018
:104F1000BACF80E3DBCF6217730731F4963388F49E
:104F2000953311F4552369F0F6018083FD01842F38
:104F300090E2811108C0A40FB11D1C9290E080E0A6
:104F400002CF81E3F1CF91938150F3CF911183CFC1
:104F50008ACF283008F027E03327DA01990F311D76
:104F600087FD916000966105710539F432602E5F0E
:104F70003D9330E32A95E1F708959F3F30F0803864
:104F80007105610509F03C5F3C5F3D93913008F08D
:104F90008068911DDF93CF931F930F93FF92EF9241
:104FA000192F987F9695E92F96959695E90FFF27EB
:104FB000E25FFE4F99273327EE24FF24A701E70184
:104FC00005900894079428F4360FE71EF81E491F31
:104FD000511D660F771F881F991F0694A1F7059032
:104FE000079428F4E70EF81E491F561FC11D770FBE
:104FF000881F991F661F0694A1F70590079428F44F
:10500000F80E491F561FC71FD11D880F991F661F15
:10501000771F0694A1F70590079420F4490F561FB7
:10502000C71FD81F990F661F771F881F0694A9F7FF
:1050300084911095177041F0D695C795579547956F
:10504000F794E7941A95C1F7E4EBF0E068941590B3
:10505000159135916591959105907FE27395E118D1
:10506000F10A430B560BC90BD009C0F7E10CF11E36
:10507000431F561FC91FD01D7EF4703311F48A954B
:10508000E6CFE894015030F0080F0AF40027021729
:1050900008F4202F2395022F7A3328F079E37D93AB
:1050A0002A95E9F710C07D932A9589F6069497957D
:1050B0006795379517951794E118F10A430B560B2E
:1050C000C90BD00998F023957E9173957A3308F037
:1050D00070E37C932013B8F77E9170617D9330F07C
:1050E000839571E37D9370E32A95E1F71124EF90A6
:1050F000FF900F911F91CF91DF91992787FD909598
:1051000008950E94C32808F481E00895E89409C036
:1051100097FB3EF490958095709561957F4F8F4FEA
:105120009F4F9923A9F0F92F96E9BB279395F69500
:10513000879577956795B795F111F8CFFAF4BB0F7E
:1051400011F460FF1BC06F5F7F4F8F4F9F4F16C0E2
:10515000882311F096E911C0772321F09EE8872F6C
:10516000762F05C0662371F096E8862F70E060E028
:105170002AF09A95660F771F881FDAF7880F9695A1
:10518000879597F90895990F0008550FAA0BE0E845
:10519000FEEF16161706E807F907C0F012161306F9
:1051A000E407F50798F0621B730B840B950B39F439
:1051B0000A2661F0232B242B252B21F408950A269F
:1051C00009F4A140A6958FEF811D811D08950E94CD
:1051D000FA280C946B290E945D2938F00E946429FA
:1051E00020F0952311F00C9454290C945A29112481
:1051F0000C949F290E947C2970F3959FC1F3950F11
:1052000050E0551F629FF001729FBB27F00DB11D4A
:10521000639FAA27F00DB11DAA1F649F6627B00DDA
:10522000A11D661F829F2227B00DA11D621F739FC3
:10523000B00DA11D621F839FA00D611D221F749FD1
:105240003327A00D611D231F849F600D211D822F18
:10525000762F6A2F11249F5750409AF0F1F088233F
:105260004AF0EE0FFF1FBB1F661F771F881F91506C
:105270005040A9F79E3F510580F00C9454290C949E
:105280009F295F3FE4F3983ED4F386957795679521
:10529000B795F795E7959F5FC1F7FE2B880F911D96
:1052A0009695879597F9089597F99F6780E870E03C
:1052B00060E008959FEF80EC089500240A9416168C
:1052C000170618060906089500240A9412161306F4
:1052D000140605060895092E0394000C11F4882382
:1052E00052F0BB0F40F4BF2B11F460FF04C06F5F9E
:1052F0007F4F8F4F9F4F089557FD9058440F551F74
:1053000059F05F3F71F04795880F97FB991F61F047
:105310009F3F79F087950895121613061406551FBE
:10532000F2CF4695F1DF08C0161617061806991F2A
:10533000F1CF86957105610508940895E894BB271F
:1053400066277727CB0197F90895DB018F939F9309
:105350000E94D729BF91AF91A29F800D911DA39F5D
:10536000900DB29F900D11240895A1E21A2EAA1B50
:10537000BB1BFD010DC0AA1FBB1FEE1FFF1FA21705
:10538000B307E407F50720F0A21BB30BE40BF50B02
:10539000661F771F881F991F1A9469F7609570958B
:1053A000809590959B01AC01BD01CF0108950E94AD
:1053B000192AA59F900DB49F900DA49F800D911D5B
:1053C000112408952F923F924F925F926F927F9295
:1053D0008F929F92AF92BF92CF92DF92EF92FF9205
:1053E0000F931F93CF93DF93CDB7DEB7CA1BDB0BB1
:1053F0000FB6F894DEBF0FBECDBF09942A88398856
:1054000048885F846E847D848C849B84AA84B9845C
:10541000C884DF80EE80FD800C811B81AA81B98168
:10542000CE0FD11D0FB6F894DEBF0FBECDBFED017C
:105430000895A29FB001B39FC001A39F700D811D6D
:105440001124911DB29F700D811D1124911D08958D
:105450005058BB27AA270E94402A0C946B290E940F
:105460005D2938F00E94642920F039F49F3F19F437
:1054700026F40C945A290EF4E095E7FB0C94542979
:10548000E92F0E947C2958F3BA1762077307840733
:10549000950720F079F4A6F50C949E290EF4E0957A
:1054A0000B2EBA2FA02D0B01B90190010C01CA01DE
:1054B000A0011124FF27591B99F0593F50F4503E89
:1054C00068F11A16F040A22F232F342F4427585F7B
:1054D000F3CF469537952795A795F0405395C9F793
:1054E0007EF41F16BA0B620B730B840BBAF091504B
:1054F000A1F0FF0FBB1F661F771F881FC2F70EC0EA
:10550000BA0F621F731F841F48F4879577956795BC
:10551000B795F7959E3F08F0B0CF9395880F08F0A8
:105520009927EE0F9795879508950E945D2960F061
:1055300080E891E009F49EEF0E94642928F040E899
:1055400051E071F45EEF0CC00C945A290C949E2922
:10555000E92FE0780E947C2940F3092E052AB1F357
:10556000261737074807590738F00E2E07F8E025A9
:1055700069F0E025E0640AC0EF6307F8009407FAD9
:10558000DB01B9019D01DC01CA01AD01EF930E946D
:10559000232B0E946B290E94D82A5F91552339F052
:1055A0002BED3FE049E450FD49EC0C94292A089585
:1055B000DF93DD27B92FBF7740E85FE316161706A4
:1055C00048075B0718F4D92F0E941F2C9F938F93D5
:1055D0007F936F930E94752CE8E6F0E00E94B42B55
:1055E0000E946B292F913F914F915F910E94FA2861
:1055F000DD2351F09058A2EA2AED3FE049EC5FE349
:10560000D0785D270E94402ADF910C946B290E947C
:10561000DD2BE3950C94062C0E94202B0C946B2917
:105620000E94642958F00E945D2940F029F45F3FF0
:1056300029F00C94542951110C949F290C945A2947
:105640000E947C2968F39923B1F3552391F3951BAC
:10565000550BBB27AA2762177307840738F09F5F93
:105660005F4F220F331F441FAA1FA9F335D00E2E00
:105670003AF0E0E832D091505040E695001CCAF76D
:105680002BD0FE2F29D0660F771F881FBB1F261730
:1056900037074807AB07B0E809F0BB0B802DBF0107
:1056A000FF2793585F4F3AF09E3F510578F00C94D6
:1056B00054290C949F295F3FE4F3983ED4F38695D8
:1056C00077956795B795F7959F5FC9F7880F911DF7
:1056D0009695879597F90895E1E0660F771F881FE3
:1056E000BB1F621773078407BA0720F0621B730B96
:1056F000840BBA0BEE1F88F7E09508950E94852B66
:105700006894B1110C949F2908950E94842988F00F
:105710009F5798F0B92F9927B751B0F0E1F0660F75
:10572000771F881F991F1AF0BA95C9F714C0B130B6
:1057300091F00E949E29B1E008950C949E29672F54
:10574000782F8827B85F39F0B93FCCF386957795E5
:105750006795B395D9F73EF49095809570956195CE
:105760007F4F8F4F9F4F0895DF93CF931F930F93DA
:10577000FF92EF92DF927B018C01689406C0DA2ED3
:10578000EF010E94FA28FE01E894A5912591359138
:1057900045915591A6F3EF010E94402AFE01970121
:1057A000A801DA9469F7DF90EF90FF900F911F91B5
:1057B000CF91DF9108950C945A290E948429D8F33F
:1057C000E894E0E0BB279F57F0F02AED3FE049EC7A
:1057D00006C0EE0FBB0F661F771F881F28F0B23A76
:1057E00062077307840728F0B25A620B730B840BAD
:1057F000E3959A9572F7803830F49A95BB0F661F3F
:10580000771F881FD2F790480C947B2CEF93E0FF12
:1058100007C0A2EA2AED3FE049EC5FEB0E94402A74
:105820000E946B290F90039401FC9058E5E9F0E089
:105830000C948E2C0E94C32808F48FEF08959B01CE
:10584000AC0160E070E080E89FE30C940C2B9F9328
:105850000E94DD2B0F9007FCEE5F0C94062C19F4D0
:1058600016F40C945A290C94792C0E948429B8F3CC
:105870009923C9F3B6F39F57550B87FF0E94872CD6
:105880000024A0E640EA900180585695979528F4A8
:10589000805C660F771F881F20F0261737074807A0
:1058A00030F4621B730B840B202931294A2BA695F7
:1058B00017940794202531254A2758F7660F771F3C
:1058C000881F20F026173707480730F4620B730B48
:1058D000840B200D311D411DA09581F7B901842F46
:1058E0009158880F9695879508959B01AC010C946B
:1058F000E7289F3F31F0915020F487957795679581
:10590000B795880F911D9695879597F908959150B1
:105910005040660F771F881FD2F708959F938F938B
:105920007F936F93FF93EF939B01AC010E94E72855
:10593000EF91FF910E94B42B2F913F914F915F9176
:105940000C94E72897FB072E16F4009407D077FDF8
:1059500009D00E94DB2C07FC05D03EF49095819580
:105960009F4F0895709561957F4F0895052E97FB81
:105970001EF400940E94CD2C57FD07D00E94B5293B
:1059800007FC03D04EF40C94CD2C509540953095E7
:1059900021953F4F4F4F5F4F08959095809570959B
:1059A00061957F4F8F4F9F4F0895EE0FFF1F05901A
:1059B000F491E02D0994AA1BBB1B51E107C0AA1F5B
:1059C000BB1FA617B70710F0A61BB70B881F991FA0
:1059D0005A95A9F780959095BC01CD0108950F9334
:1059E0001F93CF93DF938230910510F482E090E013
:1059F000E0919F05F091A00530E020E0B0E0A0E04C
:105A0000309799F42115310509F44AC0281B390B48
:105A100024303105D8F58A819B816115710589F1A2
:105A2000FB0193838283FE0111C040815181028179
:105A3000138148175907E0F04817590799F4109750
:105A400061F012960C93129713961C933296CF0125
:105A5000DF91CF911F910F91089500939F051093AF
:105A6000A005F4CF2115310551F04217530738F046
:105A7000A901DB019A01BD01DF01F801C1CFEF01EE
:105A8000F9CF9093A00580939F05CDCFFE01E20F43
:105A9000F31F819391932250310939832883D7CF03
:105AA00020919D0530919E05232B41F420912401E6
:105AB0003091250130939E0520939D052091220170
:105AC000309123012115310541F42DB73EB74091A6
:105AD000260150912701241B350BE0919D05F09183
