:100000000C941E010C94BC150C9495150C942E1791
:100010000C9409170C94E4160C9446010C944601B8
:100020000C9446010C943B160C9446010C9446012A
:100030000C9446010C9446010C9446010C94460124
:100040000C944B150C9446010C9409160C94E31572
:100050000C9446010C9446010C9446010C94460104
:100060000C9453170C944601084AD73B3BCE016EC3
:1000700084BCBFFDC12F3D6C74319ABD56833DDAFF
:100080003D00C77F11BED9E4BB4C3E916BAAAABE0E
:10009000000000803F05A84CCDB2D44EB93836A937
:1000A000020C50B9918688083CA6AAAA2ABE000074
:1000B00000803F0000407A10F35A00A0724E1809E9
:1000C0000010A5D4E80000E87648170000E40B54BF
:1000D000020000CA9A3B000000E1F505000080968E
:1000E0009800000040420F000000A08601000000C0
:1000F000102700000000E80300000000640000007A
:1001000000000A00000000000100000000002C7642
:10011000D888DC674F0823DFC1DFAE59E1B1B7965D
:10012000E5E3E453C63AE651997696E8E6C28426BA
:10013000EB898C9B62ED407C6FFCEFBC9C9F40F296
:10014000BAA56FA5F490055A2AF75C936B6CF96712
:100150006DC11BFCE0E40D47FEF520E6B500D0EDD7
:10016000902E0300943577050080841E080000203F
:100170004E0A000000C80C333333330F986E1283DD
:100180001141EF8D2114893BE65516CFFEE6DB18B1
:10019000D1844B381BF77C1D901DA4BBE424203276
:1001A00084725E228100C9F124ECA1E53D275A4406
:1001B000410056544700524D4300475356004753A1
:1001C000540047534100474C4C0047474100CA0187
:1001D000C601C201BE01BA01B601B201AE01000002
:1001E0000000240027002A0000000008000201008F
:1001F00000030407000000000000000000000000F1
:10020000250028002B000000000023002600290004
:1002100004040404040404040202020202020303AC
:1002200003030303010204081020408001020408B4
:1002300010200102040810207E18FC2411241FBE87
:10024000CFEFD8E0DEBFCDBF25E0A6E6B1E001C02C
:100250001D92A533B207E1F711E0A0E0B1E0E6E3BB
:10026000FAE502C005900D92A636B107D9F711E064
:10027000CDE1D1E004C02197FE010E94CF2BCC310B
:10028000D107C9F70E94361A0C940E2D0C94000069
:10029000FC018091C40481111AC011821082138262
:1002A00012828091C60482608093C6041092C504B5
:1002B00091E06D3209F090E08091C60490FB80F9E6
:1002C0008093C6046D3209F06EC080E008956C32F0
:1002D00099F58091C504811103C081E08093C50424
:1002E00082819381892B99F05AE08091C50491E035
:1002F000980F9093C504481750F022813381529F84
:10030000C001539F900D112493838283EECF90916F
:10031000C604892F817090FF44C0228133813195BA
:1003200021953109338322832081318131952195B3
:1003300031093183208308956E3221F481E0809366
:10034000C504C3CF8091C504811112C020813181C1
:100350004AE0429FC001439F900D1124062E000CDD
:10036000770B60537109680F791F71836083ADCF7C
:1003700091E0980F9093C504481708F4A6CF228106
:1003800033814AE0429FC001439F900D1124062E05
:10039000000C770B60537109680F791F73836283B8
:1003A00094CF81E008956C3209F497CF6E3271F6E4
:1003B000C5CF813311F0813421F483E08093C004F0
:1003C00008C0803321F08E3411F0863541F410924C
:1003D000C0048091C10481608093C1040895823378
:1003E00011F0843411F484E0E9CF833311F487E011
:1003F000E5CF843311F486E0E1CF853311F485E055
:10040000DDCF863311F0853449F781E0D7CF0895E9
:100410009091E9028091E8022FEF3FEF981748F49E
:10042000E92FF0E0E853FD4F208130E09F5F90938B
:10043000E902C90108959091E9028091E8022FEF45
:100440003FEF981748F4E92FF0E0E853FD4F208183
:1004500030E09F5F9093E902C9010895FC01538D3C
:10046000448D252F30E0842F90E0821B930B54178E
:1004700010F0CF96089501970895FC01918D828D1B
:10048000981761F0A28DAE0FBF2FB11D5D968C91B4
:10049000928D9F5F9F73928F90E008958FEF9FEFF3
:1004A0000895FC01918D828D981731F0828DE80FAF
:1004B000F11D858D90E008958FEF9FEF0895FC0169
:1004C000918D228D892F90E0805C9F4F821B910936
:1004D0008F7399270895FC01A48DA80FB92FB11D22
:1004E000A35ABF4F2C91848D90E001968F7399276A
:1004F000848FA689B7892C93A089B1898C91837048
:1005000080648C93938D848D981306C00288F38940
:10051000E02D80818F7D80830895EF92FF920F936D
:100520001F93CF93DF93EC0181E0888F9B8D8C8D9F
:1005300098131AC0E889F989808185FF15C09FB793
:10054000F894EE89FF896083E889F9898081837056
:10055000806480839FBF81E090E0DF91CF911F9105
:100560000F91FF90EF900895F62E0B8D10E00F5F26
:100570001F4F0F731127E02E8C8D8E110CC00FB6FC
:1005800007FCFACFE889F989808185FFF5CFCE0194
:100590000E946B02F1CFEB8DEC0FFD2FF11DE35AA2
:1005A000FF4FF0829FB7F8940B8FEA89FB89808117
:1005B0008062CFCFCF93DF93EC01888D8823B9F091
:1005C000AA89BB89E889F9898C9185FD03C080815E
:1005D00086FD0DC00FB607FCF7CF8C9185FFF2CFDB
:1005E000808185FFEDCFCE010E946B02E9CFDF91C4
:1005F000CF91089586EF92E00E945F0221E0892B5F
:1006000009F420E0822F089580E090E0892B29F002
:100610000E94FA0281110C940000089590E0FC0100
:10062000E851FE4F2491FC01EC5DFD4F3491FC013B
:10063000E05FFD4FE491EE23C9F0222339F023302F
:1006400001F1A8F4213019F1223029F1F0E0EE0F88
:10065000FF1FE450FE4FA591B4918FB7F894EC9131
:10066000611126C030953E233C938FBF08952730FB
:10067000A9F02830C9F0243049F7809180008F7D9F
:1006800003C0809180008F7780938000DFCF84B596
:100690008F7784BDDBCF84B58F7DFBCF8091B00099
:1006A0008F778093B000D2CF8091B0008F7DF9CF4B
:1006B0003E2BDACFCF93DF9390E0FC01EC5DFD4F52
:1006C0002491805F9D4FFC0184918823D1F090E0BC
:1006D000880F991FFC01E252FE4FA591B491FC01D5
:1006E000E450FE4FC591D49161110EC09FB7F894AC
:1006F0008C91E22FE0958E238C932881E223E8836E
:100700009FBFDF91CF9108958FB7F894EC91E22BC2
:10071000EC938FBFF6CFCF93DF93A091F402B0910B
:10072000F502109709F443C01C968C911C97EDE6D6
:10073000F0E0883050F0EBE6F0E08E3030F0ECE6A0
:10074000F0E0863110F0F0E0E0E05FB7F89410924E
:10075000F5021092F402309749F11C968C911C9787
:10076000C8E6D0E0863110F0D0E0C0E028818830C3
:1007700008F46AC031E08E3008F430E081E090E0A7
:1007800001C0880F3A95EAF78095822388836081BB
:100790001C964C91483008F059C081E090E001C0AF
:1007A000880F4A95EAF78095862380835FBF60E0D3
:1007B000809129050E945A038091290590E0FC014F
:1007C000EC5DFD4FE491E093F302FC01E05FFD4F2F
:1007D000E491F0E0EE0FFF1FEA5FFD4F85919491E9
:1007E00090932C0580932B0580912A0590E0FC01C5
:1007F000EC5DFD4F24912093F202FC01E05FFD4F80
:10080000E491F0E0EE0FFF1FE450FE4FA591B4918C
:10081000B093F102A093F002109719F0EC91E22B43
:10082000EC9361E080912A050E945A03809129058A
:100830008830E0F08E3008F45EC0ECE6F0E08631FF
:10084000B8F0DF91CF9108958BEF9FCF242F30E048
:100850004E3048F42850310981E090E001C0880F03
:100860002A95EAF7A0CF2E503109F6CFEDE6F0E059
:100870008FEF8093EF021092EE021092ED028091C2
:100880002D0590912E0581152BE4920709F457C090
:10089000A8F58038954209F440C05FB7F8944081CC
:1008A00090912905983008F052C081E001C0880F6E
:1008B0009A95EAF7842B808380912905E8E6F0E099
:1008C000863110F0F0E0E0E09081883008F44EC00E
:1008D00021E08E3008F420E081E001C0880F2A95E5
:1008E000EAF7892B80838DE195E09093F502809360
:1008F000F4025FBFA6CFEBE6F0E0BACF82312AE781
:100900009207A9F08115964941F686E08093EC02A2
:100910008DE98093EB0284E007C08AE18093EC02CA
:1009200087E28093EB028AE08093EA02B6CF88E008
:100930008093EC0280E88093EB0285E0F5CF8DE0B8
:100940008093EC028EE48093EB0286E0EDCF292FBA
:1009500030E09E3040F42850310981E001C0880F1A
:100960002A95EAF7A7CF2E503109F7CF84E0B9CF07
:100970003FB7F8948091740290917502A09176022D
:10098000B091770226B5A89B05C02F3F19F00196BC
:10099000A11DB11D3FBFBA2FA92F982F8827BC01D9
:1009A000CD01620F711D811D911D42E0660F771F01
:1009B000881F991F4A95D1F708950F931F93CF93DE
:1009C000C82FF8940E94B8040091F3041091F40425
:1009D0002091F5043091F6047894601B710B820B22
:1009E000930B0091EA041091EB042091EC043091F8
:1009F000ED04601771078207930730F090E080E004
:100A0000CF911F910F9108958091EF048C17B0F34F
:100A1000F8948C2F90E081509048880F991F209176
:100A2000F0043091F104820F931FFC012081318189
:100A300078948091E2049091E3044091E60450910F
:100A4000E704BC01641B750B26173707B8F26091E9
:100A5000E4047091E504460F571F4217530770F2E4
:100A60002817390768F2C9016217730748F6CB01E6
:100A7000C7CF8F929F92AF92BF92CF92DF92EF92A9
:100A8000FF924B015C010E94B8046B017C010E9443
:100A9000B8046C197D098E099F09683E7340810571
:100AA0009105A8F321E0821A9108A108B10888EE07
:100AB000C80E83E0D81EE11CF11C81149104A1042E
:100AC000B10429F7FF90EF90DF90CF90BF90AF90E7
:100AD0009F908F900895089508950895AF92BF92C2
:100AE000CF92DF92EF92FF920F931F93CF93DF93FA
:100AF0006C017B018B01040F151FEB015E01AE1829
:100B0000BF08C017D10759F06991D601ED91FC914A
:100B10000190F081E02DC6010995892B79F7C50177
:100B2000DF91CF911F910F91FF90EF90DF90CF90C9
:100B3000BF90AF9008958EBD00000DB407FEFDCFAD
:100B40008EB50895DF92EF92FF920F931F93CF938C
:100B5000DF937C01062FC42FD0E08EE1289FC00DCB
:100B6000D11D112481E08093000560E08091FA049A
:100B70000E940E0384E00E949B05809100050E9464
:100B80009B0585E00E949B058D2F0E949B0586E0BA
:100B90000E949B058C2F0E949B05E70110E0CE016F
:100BA0008E199F098017910744F4D99087E00E941D
:100BB0009B058D2D0E949B05F2CF87E00E949B052F
:100BC0008FEF0E949B0561E08091FA04DF91CF9145
:100BD0001F910F91FF90EF90DF900C940E03CF9335
:100BE000DF931F92CDB7DEB7242F8983462F61E0B4
:100BF000CE0101960E94A2050F90DF91CF9108953A
:100C0000CF93DF93EC012881222349F00E94B8049E
:100C10006D837E838F839887DF91CF9108952FB75F
:100C2000F89440917002509171026091720270913B
:100C300073022FBF4D835E836F837887EDCF2F9232
:100C40003F924F925F926F927F928F929F92AF925C
:100C5000BF92CF92DF92EF92FF920F931F93CF93A9
:100C6000DF93CDB7DEB761970FB6F894DEBF0FBE46
:100C7000CDBF1C019C012A593F4F3A832983D901DA
:100C80008C91882309F45DC20E94B804AB01BC01B9
:100C9000E981FA8185819681A781B0854817590736
:100CA0006A077B0708F059C28C019D0100951095D9
:100CB00020953095400F511F621F731F418352834F
:100CC00063837483E981FA814181528163817481F4
:100CD0000185128523853485401751076207730704
:100CE00008F416C2800F911FA21FB31F858396833D
:100CF000A783B087F101EE59FF4F80819181019761
:100D000009F006C29101285B3F4F3F872E87F10112
:100D100084AD95ADA6ADB7ADF90180839183A28373
:100D2000B383389740805180628073802C5F3F4F3F
:100D30003A832983C101805B9F4F9C838B8341153C
:100D400051056105710509F40FC2CB01BA010E947A
:100D5000802720E030E04AE754E40E94062A6B0135
:100D60007C01A30192010E94E127A981BA816D93C0
:100D70007D938D939C931397A7019601F101EC5BF2
:100D8000FF4F60817181828193810E94062AEB81ED
:100D9000FC816083718382839383F101EC59FF4F5F
:100DA00080819181019719F5EB81FC81808191818E
:100DB000A281B381EE85FF8540815181628173817B
:100DC00070584083518362837383E981FA81408143
:100DD0005181628173817058408351836283738330
:100DE000B058EB81FC8180839183A283B383D101CE
:100DF0009C968D909D90AD90BC909F97F10180AE98
:100E000091AEA2AEB3AE80A591A5A2A5B3A584ABC9
:100E100095ABA6ABB7AB84A195A1A6A1B7A18D83D5
:100E20009E83AF83B88780AB91ABA2ABB3AB02819B
:100E30001381D8012D913D914D915C9124A735A747
:100E400046A757A70680F781E02D608171818281D6
:100E50009381D10198966D937D938D939C939B97ED
:100E60000E9422296B017C01F101C4A2D5A2E6A255
:100E7000F7A2A5019401D8016D917D918D919C916E
:100E80000E9422294B015C01F101E05AFF4F808151
:100E9000918181010C5A1F4F009709F073C1A7017E
:100EA0009601EE85FF8560817181828193810E9428
:100EB000E127D8016D937D938D939C931397EB81DC
:100EC000FC8160817181828193819058A501940198
:100ED0000E94E1274B015C01F101E45AFF4F80823F
:100EE0009182A282B38220E030E0A901C301B20165
:100EF0000E947B279101285A3F4F3F872E878823E6
:100F000009F44DC1A70196016D817E818F8198857D
:100F10000E94232920E030E040E05FE30E94E127C7
:100F2000A981BA812D913D914D915C910E94E1275B
:100F3000EE85FF8520813181428153810E942329E2
:100F40003B018B839983D1015896CC905897599641
:100F5000DC9059975A96EC905A975B96FC909301C7
:100F60004B815981B601C7010E94142B18168CF0D1
:100F7000F101C488D588E688F7889601A701B301F6
:100F80008B8199810E94142B18161CF06301EB8051
:100F9000F980D8012D913D914D915C91F1016085D1
:100FA0007185828593850E942329A50194010E9461
:100FB00023292B013C01D1011C96BC91BA87F10178
:100FC000F585FB87D1011E96BC91BC87F101F785A1
:100FD000FD87AC019B016A857B858B2F9F2F0E942B
:100FE00022294B018D83998720E030E0A9010E94DE
:100FF0007B2787FDD9C094014D8159856A857B8502
:101000008C859D850E947B2787FF06C08A849B84F0
:101010002C852D833D853987D1015096BC91B983AC
:10102000F101F189FB83D1015296AC90529753960E
:10103000BC90A301920169817F2FC5010E942229E2
:101040008B01898B988B9B01AC0169817B81C501E8
:101050000E94142B18160CF4ACC020E030E0A9015B
:10106000B801898998890E94142B181624F400E08D
:1010700010E0198A188A980149895889B601C70170
:101080000E947B2787FD0FC094014D815985B601D1
:10109000C7010E94142B18160CF090C08401BD816A
:1010A000B98BE985E88BC801A989B889EE85FF85E8
:1010B00080839183A283B3839801AD01C301B20100
:1010C0000E9423298B0189879D839B01AC01698143
:1010D0007B81C5010E94142B18167CF0980149856C
:1010E0005D816A857B858C859D850E947B2787FD38
:1010F00069C009831B83A984BD80D1011496ED9139
:10110000FC9189819B81D50180839183A283B383E4
:1011100061960FB6F894DEBF0FBECDBFDF91CF91C1
:101120001F910F91FF90EF90DF90CF90BF90AF9005
:101130009F908F907F906F905F904F903F902F90F7
:1011400008958FB7F89440917002509171026091A8
:101150007202709173028FBF9BCD481B590B6A0BB3
:101160007B0BE981FA81AACDA981BA811D921D92DA
:101170001D921C921397EB81FC81108211821282C6
:1011800013820BCE019709F09ACEEE85FF85608120
:101190007181828193819058A501940188CE612C40
:1011A000712C1B821982CFCE812C912C1D82198625
:1011B00033CF09811B81A98AB88A5DCF8601E98A6C
:1011C000F88A71CFFA85F9832B852B83AC84BD8493
:1011D00094CFFC0114A215A216A217A210A611A664
:1011E00012A613A614A615A616A617A610AA11AA2B
:1011F00012AA13AA14AA15AA16AA17AA10AE11AEFB
:1012000012AE13AEDC01AC5ABF4F1D921D921D925F
:101210001C92139714961D921D921D921C92139767
:1012200014961D921D921D921C9213978A599F4FDE
:101230000C9400062F923F924F925F926F927F9292
:101240008F929F92AF92BF92CF92DF92EF92FF92D6
:101250000F931F93CF93DF9300D0CDB7DEB73C0140
:10126000F8018F89988D9A838983098D1A8DD3010E
:1012700013967C936E93129715965C934E931497E6
:1012800017963C932E93169720803180428053808E
:1012900020E030E0A901C201B1010E94142B87FDBA
:1012A00035C020E030E0A901F701608171818281C1
:1012B00093810E94142B87FD29C020E030E0A90112
:1012C000D6016D917D918D919C910E94142B87FD8B
:1012D0001DC0F30124AE35AE46AE57AEF701808196
:1012E0009181A281B381F301E05CFF4F8083918300
:1012F000A283B383F60180819181A281B381F3013E
:10130000EC5BFF4F80839183A283B383D5018D91E2
:101310009C91F301E05AFF4F91838083F801808113
:101320009181A281B381F30180879187A287B387DE
:10133000D4018D919C91EC59FF4F9183808383015F
:101340000E591F4FF80180819181019719F4C30153
:101350000E94E908A981BA814D915C9170E060E03A
:10136000C3018A599F4FFC011082418752876387CE
:1013700074870E940006C3010E94E908F801808179
:1013800091810197D9F081E090E091838083C3013E
:101390000F900F90DF91CF911F910F91FF90EF90E1
:1013A000DF90CF90BF90AF909F908F907F906F9085
:1013B0005F904F903F902F900C94E9080F900F9002
:1013C000DF91CF911F910F91FF90EF90DF90CF9021
:1013D000BF90AF909F908F907F906F905F904F9055
:1013E0003F902F900895DC01EC918FEF8E0F8830A5
:1013F000F8F4CB016B3C784014F08AEC98E08E3E18
:1014000022E0920714F48EEE92E00897AC01440FAC
:10141000452F441F550B2E2F30E0F901EE0FFF1F13
:10142000E20FF31FEF50FE4F4183880F80958283B8
:1014300008951F93CF93DF93EC01162F8091F00155
:10144000811122C0E1EFF1E089E092E03BE027E585
:101450003483258333968E179F07D1F78EE38093CD
:10146000F2011092EF011092EE01109270001092B2
:10147000B00082E08093B1001092B20081E087BB9F
:10148000809370008093F00188818823A1F061E04F
:10149000812F0E945A03E8818E2F90E0FC01EE0F0D
:1014A000FF1FE80FF91FEF50FE4F1F716081607E34
:1014B000612B606260838881DF91CF911F910895D5
:1014C000CF92DF92EF92FF92CF93DF93C0919F0371
:1014D000D091A003C988DA88EB88FC880E94B80400
:1014E000698B7A8B8B8B9C8B49895A896B897C8918
:1014F0004C195D096E097F098E819F81B0E0A0E0E3
:1015000084179507A607B70740F4188ADF91CF9193
:10151000FF90EF90DF90CF90089598898D85981770
:10152000A8F7888990E0880F991F2E853F85820F44
:10153000931FFC015183408388898F5F888BE6CF9E
:10154000E091F402F091F5023097C1F00288F3893E
:10155000E02D309709F009942091ED0230E0A901C7
:101560004F5F5F4F4F7355279091EE02941731F004
:1015700023553E4FF90180834093ED020895CF93A8
:10158000DF93EC013091EF023F3F91F1AE85BF85D3
:101590008C919091F302892359F126B599E0931B20
:1015A0008091EA02280F8091AC01281B8091EB0208
:1015B000289F90011124232F3327269526959217D3
:1015C0001306B0F48091AB012091AA01915018F05C
:1015D000822B220FFBCF8093AB012093AA01909323
:1015E000EF020E94A00A81E02A893B89232B09F09F
:1015F00080E0DF91CF910895EF92FF920F931F93B8
:10160000CF93DF93E6B4F090F302F8229091EF02CB
:101610009F3F91F4F11009C01092EF0281E0809396
:10162000AA011092AB01E092AC01DF91CF911F9122
:101630000F91FF90EF900895C091EA02CE0D809136
:10164000AC01C81B8091EB02C89FE0011124CD2F93
:10165000DD27C695C69529E0291B022F10E00C173F
:101660001D0708F02C2F920F9093EF024091AA01D2
:101670008091AB01F11011C02150342F330F2F3F57
:1016800019F0842B432FF8CF8093AB013093AA013C
:10169000983048F20E94A00A13C02150330B01C0B9
:1016A000440F2A95EAF74093AA01842B8093AB015B
:1016B000983008F4B8CF0E94A00A81E0F81621F013
:1016C0000C171D0708F4A8CF8FEF8093EF02ABCF64
:1016D000CF92DF92EF92FF920F931F93CF93DF93FE
:1016E0008C01D62E8091F0029091F102892B09F4A1
:1016F00054C0D8011C969C91D4E0983048F081E009
:101700009E3008F480E0D1E001C0DD0F8A95EAF751
:10171000CFB6F894F6B490E0E12CE394E091F002B7
:10172000F091F1028091F202BAE0EB1651F19923A7
:10173000D9F09081892B8083C091EC02C63011F4DE
:10174000E0FCC7E086B58F198C17B0F48BB38D23FE
:1017500079F08BB38D2B8BBBD8011E96ED91FC914C
:1017600080810E94FC0AEECF908180958923E3CF8F
:10177000C8010E94BF0AE6CFFC0E9D2D9170D69441
:10178000CCCF9081892B8083CFBE86B58F198C17E3
:1017900078F4C8010E94BF0AF8CF90E080E0DF91A2
:1017A000CF911F910F91FF90EF90DF90CF90089510
:1017B00081E090E0F4CF2091EE028091ED0282175B
:1017C00069F030E0F901E355FE4F80812F5F3F4F14
:1017D0002F7333272093EE0290E008958FEF9FEF51
:1017E00008959C018091ED029091EE02891B990B66
:1017F000805C9F4F60E470E00E949C2B811105C0CB
:10180000C901F8940E94BF0A789490E008958F92DD
:101810009F92AF92BF92CF92DF92EF92FF926B01B5
:101820007C01BC01A60182E07695679557954795A6
:101830008A95D1F7D701C60124E0B695A79597956B
:1018400087952A95D1F7840F951FA61FB71F4C01C6
:101850005D0134E0B694A794979487943A95D1F7B4
:10186000880D991DAA1DBB1D892E9A2EAB2EBB2457
:10187000880E991EAA1EBB1EC501AA27BB27880E6B
:10188000991EAA1EBB1EA3E0B0E0A50194010E9410
:10189000D128A7019601261B370B480B590BABE04B
:1018A000B0E00E94D128E5E09695879577956795F9
:1018B000EA95D1F7680D791D8A1D9B1DFF90EF9069
:1018C000DF90CF90BF90AF909F908F900895CF9270
:1018D000DF92EF92FF921F93CF93DF93EC01162FCD
:1018E0008091C40481110BC0188219821A821B8254
:1018F0001092C5048091C60482608093C6041E3293
:1019000091F11C3209F064C08091C504882359F11B
:101910008091C504843009F07CC0288139814A81D6
:101920005B81A4E6B0E00E94D128688379838A8332
:101930009B83C880D980EA80FB80C701B601660F0F
:10194000771F881F991F6F5F7F4F8F4F9F4F0E9498
:10195000070CC60ED71EE81EF91EC882D982EA827D
:10196000FB8281E02AC081E08093C5042981822F17
:1019700082958F702F703AE0839F200D11248A8109
:1019800081112C598881982F92959F708F703AE021
:10199000939F800D11249CE3299F90011124820FB5
:1019A000932F911D092E000CAA0BBB0B88839983E2
:1019B000AA83BB831E3249F480E0DF91CF911F914F
:1019C000FF90EF90DF90CF9008951C3209F4A0CFE4
:1019D0008091C504811143C088819981AA81BB810E
:1019E00034E0880F991FAA1FBB1F3A95D1F7412FEA
:1019F000110F550B40535109052E000C660B770B48
:101A0000842B952BA62BB72B88839983AA83BB8322
:101A1000D3CF853039F4288139814A815B81AAE0AE
:101A2000B0E081CF863009F484CF08F09ACF2881C6
:101A300039814A815B81A8EEB3E0833009F473CF2A
:101A4000823019F4A0E1B7E26ECF813009F071CF96
:101A500060EA76E881E090E00E949F2866CF8F5F81
:101A60008093C5048730C0F4288139814A815B8125
:101A7000AAE0B0E00E94D128212F110F330B205390
:101A800031096901330FEE08FF08DC01CB018C0D31
:101A90009D1DAE1DBF1DB8CF873009F08DCFC8800A
:101AA000D980EA80FB80C701B601660F771F881FC7
:101AB000991F6F5F7F4F8F4F9F4F0E94070C6C0DD8
:101AC0007D1D8E1D9F1D19334CF06E5F7F4F8F4F14
:101AD0009F4F688379838A839B836ECF1433CCF3C3
:101AE0006F5F7F4F8F4F9F4FF4CF682F80919E0481
:101AF000813029F0863009F481C081E00895E091B9
:101B0000C304E250E830C8F7F0E0E757F24F0C9416
:101B1000CF2B100E910DB30D270EC50DCD0D7D0DE4
:101B2000EB0D8091C60482FFE8CF8091C40481113F
:101B3000E4CF633511F78091AB049091AC04A09190
:101B4000AD04B091AE04B095A095909581959F4F4E
:101B5000AF4FBF4F8093AB049093AC04A093AD0400
:101B6000B093AE04CACF6C3249F48091C4048111A1
:101B700005C08091C6048B7F8093C6048091C60403
:101B800082FFBBCF8FEA94E05FC08091C4048111D3
:101B9000B4CF862F0E94D901B0CF8091C6048E7F2A
:101BA0008093C6048091C40481110CC06C3209F486
:101BB000A4CF60536093BF048091C104806280937E
:101BC000C1049BCF6C32C1F38091BF049AE0899F1E
:101BD000600D1124EECF42E083EB94E00E944801B7
:101BE000882309F48ACF91E08091C404811101C057
:101BF00090E08091C10490FB82F9E1CFE091C304B1
:101C0000E250E73008F079CFF0E0E75FF14F0C9455
:101C1000CF2BC50D100E910DB30D270E4F0E620E7A
:101C20008091C40481110AC091E06C3209F490E003
:101C30008091C60490FB82F98093C6048091C6040B
:101C400082FF5BCF8BEA94E00E94670C56CF8091B5
:101C5000C60482FF52CF8091C40481114ECF80917F
:101C6000C10482608093C104673509F046CF80913A
:101C7000AF049091B004A091B104B091B204B095BA
:101C8000A095909581959F4FAF4FBF4F8093AF0424
:101C90009093B004A093B104B093B2042ECF43E06C
:101CA00087EB94E00E944801882309F426CF91E055
:101CB0008091C404811101C090E08091C10490FB27
:101CC00083F97DCF42E08BEB94E00E9448018823AA
:101CD00009F413CF91E08091C404811101C090E018
:101CE0008091C10490FB84F96ACF4F925F926F920A
:101CF0007F928F929F92AF92BF92CF92DF92EF929C
:101D0000FF92CF93DF9300D000D0CDB7DEB76B0149
:101D10007C0149015A0182E0482E512C612C712C22
:101D2000C701A30192010E94B02B29833A834B8300
:101D30005C83C501B401A30192010E94B02B4980CC
:101D40005A806B807C80421A530A640A750A4114D7
:101D500087E158068BE568068AEC7806E4F4C81833
:101D6000D908EA08FB08C701B6017C558C469942A0
:101D70000F900F900F900F90DF91CF91FF90EF9009
:101D8000DF90CF90BF90AF909F908F907F906F909B
:101D90005F904F90089581E0481689EE580684EAD6
:101DA000680685E3780654F0C818D908EA08FB08E5
:101DB000C701B601745A8349964DDACFC701B601FF
:101DC000681979098A099B09D3CF20918701260FC9
:101DD0003327331F21323105ECF42091C202FC017C
:101DE00090E080E0243069F082E00895A0918701BE
:101DF0002191AC0149595E4FA40FB52FB11D2C9311
:101E00000196861798F380918701680F6093870188
:101E100080E0089581E008951092C20281E08093ED
:101E2000C1021092BC0261E082E10E940E0361E0F7
:101E300083E10E940E03E9EBF0E080818E7F8083D6
:101E400080818D7F808388E48093B80085E48093CF
:101E5000BC000895CF93DF9391E0909366018823AF
:101E6000B9F0C091B800D091BA008091BC008A7BD3
:101E70008093BC0060E082E10E940E0360E083E199
:101E80000E940E030E940C0FD093BA00C093B800BA
:101E9000DF91CF910895CF92DF92EF92FF920F934F
:101EA0001F93CF93DF93D0919B0281E0D13208F052
:101EB0009CC0C0919A020E94B8046B017C01809181
:101EC000C20281116CC082E08093C20281E08093E3
:101ED000C1028FEF8093C0021092BF02D093BE0266
:101EE000AAE7B2E0ECE9F2E080E0D8138DC01092EE
:101EF000BD028091BD02CC0FC82BC093BD02809162
:101F0000BC02813009F084C01092BC020E94B80467
:101F10006B017C018091BD028093BB008091C40263
:101F20009091C502A091C602B091C702892B8A2B5D
:101F30008B2BA1F00E94B8040091C4021091C5023D
:101F40002091C6023091C7026C197D098E099F0944
:101F5000061717072807390708F442C08091BC000C
:101F600083FDD8CF85EC8093BC000E94B8046B0140
:101F70007C018091C202823009F44CC08091C00281
:101F80008F3F09F469C08091C002803209F466C0B5
:101F90008091C002803309F463C084E026C0809140
:101FA000C4029091C502A091C602B091C702892BCC
:101FB0008A2B8B2B09F483CF0E94B8040091C402B2
:101FC0001091C5022091C6023091C7026C197D099B
:101FD0008E099F09061717072807390708F06FCFE2
:101FE0008091C3020E942A0F85E01092790210921C
:101FF0009B0210927802DF91CF911F910F91FF9079
:10200000EF90DF90CF9008959D9191938F5F6DCF6A
:1020100085EEA9CF8091C4029091C502A091C6021D
:10202000B091C702892B8A2B8B2B09F4A2CF0E9477
:10203000B8040091C4021091C5022091C6023091EB
:10204000C7026C197D098E099F0906171707280713
:10205000390708F08ECFC4CF80E0C7CF82E0C5CF6C
:1020600083E0C3CF0895E091E9028091E802E81788
:1020700030F4F0E0E853FD4F808190E008958FEF59
:102080009FEF08958091E8029091E902891B990BD6
:102090000895CF92DF92EF92FF920F931F93CF9309
:1020A000DF937C01CB018A0120917802222389F001
:1020B000EB016B01C40ED51ECC15DD0569F06991ED
:1020C000D701ED91FC910190F081E02DC7010995B8
:1020D000F3CF642F0E94E50EC801DF91CF911F91CD
:1020E0000F91FF90EF90DF90CF900895CF93DF9303
:1020F0001F92CDB7DEB76983209178022223F9F0D1
:1021000020919B02203258F021E030E0FC01338323
:10211000228390E080E00F90DF91CF91089580912D
:102120007902E82FF0E0E658FD4F998190838F5FA8
:102130008093790280939B0281E090E0ECCF61E094
:10214000CE0101960E94E50EF7CF682F83E993E058
:102150000C947610DF92EF92FF920F931F93CF9320
:10216000DF934091A7045091A8046091A904709155
:10217000AA044F5F5F4F6F4F7F4F4093A704509368
:10218000A8046093A9047093AA048432E9F48091AE
:10219000C60484FF03C08F7E8093C6041092C204DD
:1021A00010929E0481E08093C7041092C404809131
:1021B000C6048D7F8093C604DF91CF911F910F914C
:1021C000FF90EF90DF900895C82F8091C704823070
:1021D00081F5CA3231F483E08093C7041092C404BD
:1021E000EBCF80EE8C0F8F3550F48091C2048C279A
:1021F0008093C2048C2F0E94750D811107C010922C
:10220000C10410929E041092C704D6CFCC3259F468
:102210008091C6048D7F8093C6048091C3048F5F34
:102220008093C304DBCF8091C4048F5F8093C40488
:10223000C3CF813009F061C09091C2049C27909374
:10224000C204CC3271F490919E049923D1F2109281
:10225000C1048093C3041092C40482E08093C70435
:10226000ABCF9091C404923008F432C1DEEFD90FA5
:1022700080919E04882309F43EC08150E82FF0E04D
:10228000EE0FFF1FE253FE4F2591349150E040E0E6
:10229000AD2FB0E061E0680F70E0F901EA0FFB1FBD
:1022A000E491CE1709F411C1CE170CF4AACFDD24A6
:1022B000D394D80E873009F4A4CFFB01E40FF51FA7
:1022C000EE0FFF1FE253FE4FE590F49010E000E0A8
:1022D0000D1760F4F901E00FF11F8491F701E00F91
:1022E000F11FE4910F5F1F4F8E1791F34F5F5F4F08
:1022F0008D2D9701D2CF80E0C1CF833009F0D5C0BA
:10230000C0628FE98C0F863040F5C7559091C404A8
:102310008091C204911123C091E09093C40490E095
:1023200024E0959587952A95E1F7C817190609F4D1
:1023300043CF8091A3049091A404A091A504B091EF
:10234000A6040196A11DB11D8093A3049093A4043B
:10235000A093A504B093A60452CFC053D7CF8F70DB
:1023600021E08C1301C020E08C13B6C08091C6041C
:1023700081FF09C08D7F8093C6049F5F9093C40442
:102380008CE20E94750D80919F049091A004A09111
:10239000A104B091A2040196A11DB11D80939F04D8
:1023A0009093A004A093A104B093A20490919E04E2
:1023B00021E0963009F020E08091C60420FB84F9EA
:1023C0008093C6041092C7042091DF04211172C0CB
:1023D0008091C10480FF0CC03091DE042091C004C4
:1023E00030FF04C03091DD04321710F42093DD0477
:1023F00081FF09C088E0EBEAF4E0A8ECB4E00190CA
:102400000D928A95E1F78091C10482FF10C040913E
:10241000B3045091B4046091B5047091B604409334
:10242000D0045093D1046093D2047093D30484FFFA
:1024300010C04091BB045091BC046091BD047091E8
:10244000BE044093D8045093D9046093DA04709387
:10245000DB0483FF10C04091B7045091B804609131
:10246000B9047091BA044093D4045093D504609396
:10247000D6047093D70485FF04C08091BF04809375
:10248000DC048091C1042091DE04822B8093DE0461
:10249000963009F091CE1092E1048091DF04811111
:1024A0008BCE81E08093DF0487CE811185CE1092A0
:1024B0009E0482CE88608093C6041092E0048091CE
:1024C000DF0481508093DF0483CF8F5F80939E046D
:1024D0009F5F9093C40470CE21112BCF6DCE90E0FE
:1024E00080E00895FC011482158216821782108202
:1024F0001182128213821186108613861286158627
:10250000148617861686118A108A138A128A148AEC
:10251000158A168A0895CF92DF92EF92FF920F9359
:102520001F930E94B8046B017C018091C20281114B
:1025300065C081E08093C2028093C1029FEF9093B7
:10254000C0021092BF0295E09093BE028093BD023C
:102550008091BD02806D8093BD028091BC0281306C
:1025600009F07DC01092BC020E94B8046B017C018E
:102570008091BD028093BB008091C4029091C502FE
:10258000A091C602B091C702892B8A2B8B2BA1F098
:102590000E94B8040091C4021091C5022091C602A5
:1025A0003091C7026C197D098E099F09061717071C
:1025B0002807390708F443C08091BC0083FDD8CFB9
:1025C00085EC8093BC000E94B8046B017C01809173
:1025D000C202813009F445C08091BF02863008F004
:1025E00062C08091BF02ACE9B2E0E8ECF2E090E0BA
:1025F000981751F12D9121939F5FFACF8091C402DA
:102600009091C502A091C602B091C702892B8A2B76
:102610008B2B09F48ACF0E94B8040091C402109158
:10262000C5022091C6023091C7026C197D098E093E
:102630009F09061717072807390708F076CF8091FA
:10264000C3020E942A0F80E01092E9028093E80200
:102650001F910F91FF90EF90DF90CF90089585EE3E
:10266000B0CF8091C4029091C502A091C602B091F2
:10267000C702892B8A2B8B2B09F4A9CF0E94B8049F
:102680000091C4021091C5022091C6023091C70288
:102690006C197D098E099F09061717072807390746
:1026A00008F095CFCCCF86E09ECF3F924F925F92BD
:1026B0006F927F928F929F92AF92BF92CF92DF9252
:1026C000EF92FF920F931F93CF93DF932B013C0167
:1026D000F42E322E902EA02EB12C6501CE0CD11CE2
:1026E000C60102960E94E92BEC018C0120E0492DE5
:1026F000EE2021F041E04E0D490D2E2DC301B20117
:102700000E9426254E01FE0120E38191803211F0C6
:102710008D3219F4DF0111972C93CF018C1B9D0B87
:10272000C816D90694F720E030E0A901C301B20130
:102730000E947B2787FF02C08DE28883FE01E110A3
:102740000FC0EA0DFB1D1082209781F1888110E0F7
:10275000882351F01F5FFE01E10FF11D8081F8CF4A
:10276000EC0DFD1D1182F0CF812F90E00E94E92B2E
:10277000E82ED92E282FE82FF92F8E2F821B8117B4
:1027800050F4D4019D914D0180EE890F8B3508F0F6
:10279000892F8193F2CF232D4F2D612F8E2D9D2DCB
:1027A0000E94A2058E2D9D2D0E94852CCE01DF91C9
:1027B000CF911F910F91FF90EF90DF90CF90BF903E
:1027C000AF909F908F907F906F905F904F903F90D1
:1027D0000C94852C85ED8093BC008091C40290916F
:1027E000C502A091C602B091C7020796A11DB11DF6
:1027F00023E0B695A795979587952A95D1F72091CF
:10280000BC0024FD03C01092C20208954091C4028E
:102810005091C5026091C6027091C702452B462BAC
:10282000472B69F30097A105B10541F02AE22A95EB
:10283000F1F700C00197A109B109E1CF8091C3026E
:102840000C942A0F4F925F926F927F928F929F9279
:10285000AF92BF92CF92DF92EF92FF920F931F93AE
:10286000CF93DF93DD24D394D092780288E68093CF
:102870009A021092790210929B028BE390E00E94E0
:10288000A5100E944B0F0E948B120E941B02C82FA2
:102890000E941B02E12CFC2EE82AF92A0E941B024E
:1028A000C82F0E941B0200E01C2F082B192B0E942E
:1028B0001B02C82E0E941B02DC2D20E0C22FC82B59
:1028C000D92BD09278021092790210929B0283E465
:1028D00090E00E94A5100E944B0F0E948B120E9454
:1028E0001B02B82E0E941B02C12CDB2CC82AD92A3D
:1028F0000E941B02B82E0E941B02812C9B2C882A4E
:10290000992A0E941B02782E0E941B025C01B601CC
:10291000DD0C880B990B0E94822720E030E043E811
:1029200052E40E94062A60933D0270933E02809317
:102930003F0290934002B401990C880B990B0E94BE
:10294000822720E030E043E852E40E94062A6093A8
:10295000350270933602809337029093380260E01C
:10296000772D6A297B29072E000C880B990B0E9472
:10297000822720E030E043E852E40E94062A609378
:102980002D0270932E0280932F0290933002B70194
:10299000FF0C880B990B0E94822720E030E040E872
:1029A00059E30E94E1276B017C01B801110F880BEC
:1029B000990B0E94822720E030E040E859E30E9412
:1029C000E1274B015C01BE01DD0F880B990B0E94D2
:1029D000822720E030E040E859E30E94E1279B0194
:1029E000AC010E94E1272B013C01A7019601C70120
:1029F000B6010E94E127A30192010E9423290E94AF
:102A00002F2B9B01AC01C501B4010E94062A0E9434
:102A1000D22924EF3EEF4EE85CE30E94062A609341
:102A20002502709326028093270290932802A50125
:102A30009401C501B4010E94E127A30192010E9403
:102A400023290E942F2B9B01AC01C701B6010E94D4
:102A5000062A0E94D229905824EF3EEF4EE85CE30C
:102A60000E94062A60931502709316028093170243
:102A700090931802DF91CF911F910F91FF90EF90EB
:102A8000DF90CF90BF90AF909F908F907F906F908E
:102A90005F904F9008951F920F920FB60F921124DE
:102AA0002F933F938F939F93AF93BF938091700227
:102AB00090917102A0917202B091730230916F02F5
:102AC00023E0230F2D3758F50196A11DB11D20934A
:102AD0006F028093700290937102A0937202B09380
:102AE00073028091740290917502A0917602B09168
:102AF00077020196A11DB11D809374029093750217
:102B0000A0937602B0937702BF91AF919F918F917E
:102B10003F912F910F900FBE0F901F90189526E8B0
:102B2000230F0296A11DB11DD2CF1F920F920FB697
:102B30000F9211242F933F934F935F936F937F9343
:102B40008F939F93AF93BF93EF93FF93E0912001F7
:102B5000F09121010995FF91EF91BF91AF919F9164
:102B60008F917F916F915F914F913F912F910F9036
:102B70000FBE0F901F9018951F920F920FB60F92D5
:102B800011242F933F934F935F936F937F938F9372
:102B90009F93AF93BF93EF93FF93E0911E01F0914A
:102BA0001F010995FF91EF91BF91AF919F918F9177
:102BB0007F916F915F914F913F912F910F900FBE39
:102BC0000F901F9018951F920F920FB60F9211241D
:102BD0002F933F934F935F936F937F938F939F9325
:102BE000AF93BF93EF93FF9386EF92E00E946B0247
:102BF000FF91EF91BF91AF919F918F917F916F91D5
:102C00005F914F913F912F910F900FBE0F901F90AA
:102C100018951F920F920FB60F9211242F938F9336
:102C20009F93EF93FF93E0910603F0910703808158
:102C3000E0910C03F0910D0382FD1BC09081809107
:102C40000F038F5F8F7320911003821741F0E09183
:102C50000F03F0E0EA50FD4F958F80930F03FF9133
:102C6000EF919F918F912F910F900FBE0F901F901A
:102C700018958081F4CF1F920F920FB60F921124F6
:102C80002F933F934F935F936F937F938F939F9374
:102C9000AF93BF93EF93FF938091EE018F5F80938B
:102CA000EE01E091EF012091EE018E2F90E0FC010A
:102CB000EE0FFF1FE80FF91FEF50FE4F8181E091EB
:102CC000EF0182131DC08E2F90E0FC01EE0FFF1F5D
:102CD000E80FF91FEF50FE4F82818093B200FF9101
:102CE000EF91BF91AF919F918F917F916F915F9184
:102CF0004F913F912F910F900FBE0F901F901895FD
:102D00002091EE018E2F90E0FC01EE0FFF1FE80FE7
:102D1000F91FEF50FE4F8181821708F7E091EF0114
:102D20008E2F90E0FC01EE0FFF1FE80FF91FEF5010
:102D3000FE4F808185FF10C0E091EF018E2F90E063
:102D4000FC01EE0FFF1FE80FF91FEF50FE4F8081CF
:102D500060E08F710E940E038091EF018F5F80937E
:102D6000EF011092EE011092B2008091EF018823E2
:102D700019F18091EF018930F8F4E091EF018E2F85
:102D800090E0FC01EE0FFF1FE80FF91FEF50FE4F20
:102D9000808185FFA4CFE091EF018E2F90E0FC01B0
:102DA000EE0FFF1FE80FF91FEF50FE4F808161E02B
:102DB0008F710E940E0393CF8091EF01893008F448
:102DC0008ECF1092EF018BCF1F920F920FB60F9202
:102DD00011242F933F934F935F936F937F938F9320
:102DE0009F93AF93BF93EF93FF9389B10E94FC0A27
:102DF000FF91EF91BF91AF919F918F917F916F91D3
:102E00005F914F913F912F910F900FBE0F901F90A8
:102E100018951F920F920FB60F9211242F933F9384
:102E20004F935F936F937F938F939F93AF93BF93D2
:102E3000EF93FF9386B10E94FC0AFF91EF91BF913F
:102E4000AF919F918F917F916F915F914F913F9142
:102E50002F910F900FBE0F901F9018951F920F92F9
:102E60000FB60F9211242F933F934F935F936F935D
:102E70007F938F939F93AF93BF93EF93FF9383B110
:102E80000E94FC0AFF91EF91BF91AF919F918F91AA
:102E90007F916F915F914F913F912F910F900FBE56
:102EA0000F901F9018951F920F920FB60F9211243A
:102EB0002F933F934F935F936F937F938F939F9342
:102EC000AF93BF93EF93FF938091B900887F8036D3
:102ED00009F44AC0F0F5883209F4A7C018F580312A
:102EE00009F49BC0B8F4882309F4F9C0883009F4C8
:102EF00094C0FF91EF91BF91AF919F918F917F917E
:102F00006F915F914F913F912F910F900FBE0F9056
:102F10001F901895883109F488C0803251F780934A
:102F2000C00214C0803409F49DC040F48033B9F36A
:102F30008833F9F68093C00285ECB0C0803509F47F
:102F400085C0883509F496C0883499F60E94EA1342
:102F5000D0CF883909F48CC038F5883729F050F47F
:102F6000883611F0803729F683E08093C2021092F0
:102F7000A90157C0883809F47BC0803919F080381E
:102F800009F0B7CF8091A901803208F071C0E091BB
:102F9000A90181E08E0F8093A9018091BB00F0E030
:102FA000E757FE4F80833DC0803B39F0E0F4803A24
:102FB00009F479C0883A09F09CCF84E08093C2027A
:102FC0001092880110928701E0910F02F091100297
:102FD00009958091870181110FC081E0809387015D
:102FE0001092670109C0803C09F4A6CF883C09F41F
:102FF000A3CF883B09F07DCFE091880181E08E0F5F
:1030000080938801F0E0E959FE4F80818093BB00F6
:10301000909188018091870129C08091BD028093A1
:10302000BB0085EC8093BC0064CF9091BF0280917F
:10303000BE02981758F5E091BF0281E08E0F809391
:10304000BF02F0E0E456FD4F8081E9CFE091BF027E
:1030500081E08E0F8093BF028091BB00F0E0E456C8
:10306000FD4F80839091BF028091BE029817C8F2F5
:1030700085E8D8CFE091BF0281E08E0F8093BF0238
:103080008091BB00F0E0E456FD4F80838091C10247
:1030900081115CCF81E08093BC0284EA8093BC0004
:1030A0001092C20226CF85EC8093BC001092C2021F
:1030B0008091A901803230F4E091A901F0E0E75756
:1030C000FE4F10826091A90170E0E0910D02F09135
:1030D0000E0289E891E009951092A9010ACF109299
:1030E000C00234CFFC019091ED01983028F49F5F2D
:1030F0009093ED0190830895108208950F931F938C
:103100001092F9021092F80288EE93E0A0E0B0E08D
:103110008093FA029093FB02A093FC02B093FD020D
:103120002CE231E03093F7022093F60225EC30E0F8
:10313000309303032093020324EC30E03093050323
:103140002093040320EC30E0309307032093060320
:1031500021EC30E0309309032093080322EC30E0A7
:1031600030930B0320930A0326EC30E030930D03D9
:1031700020930C0310920F0310921003109211036E
:103180001092120310929603109295038093970366
:1031900090939803A0939903B0939A032EE331E0A0
:1031A00030939403209393031092200510921F05EF
:1031B0008093210590932205A0932305B0932405C5
:1031C00088E591E090931E0580931D0582E0809331
:1031D00029058FEF80932A051092300510922F0554
:1031E00089EF94E00E94721888EF94E00E947218B0
:1031F00087EF94E00E94721888EE93E09093E304C6
:103200008093E20480ED97E09093E5048093E404DA
:103210008AE090E09093E7048093E60484E398E0EA
:103220009093E9048093E80480E291EAA7E0B0E09B
:103230008093EA049093EB04A093EC04B093ED0424
:1032400083E08093EE0485E08093EF041092F20413
:103250001092F3041092F4041092F5041092F60404
:103260008AE090E00E94E92BFC019093F1048093A6
:10327000F004118210821382128215821482178246
:1032800016821186108660E083E00E945A038091C6
:103290009F039091A003892B91F482EE94E0909388
:1032A000A00380939F0380E69AE09093210180938E
:1032B0002001809169008C6080936900E99A8BEA13
:1032C00094E00E94721288EC94E00E9472121092B4
:1032D0009F041092A0041092A1041092A2041092D4
:1032E000A3041092A4041092A5041092A6041092B4
:1032F000A7041092A8041092A9041092AA048BEAC1
:1033000094E00E9472121092C70487E894E00E9431
:103310007212E0E5F1E0F0931504E093140400E08C
:1033200010E02FE733E4009320041093210420934E
:103330002204309323041092240410922504109246
:1033400026041092270440E050E06AE774E44093BA
:1033500028045093290460932A0470932B0480E07E
:1033600090E0AAE7B4EC80932C0490932D04A093F2
:103370002E04B0932F041092300410923104109256
:1033800032041092330410923404109235041092D7
:1033900036041092370410927A0410927B04109233
:1033A0007C0410927D0410927E0410927F0410928F
:1033B000800410928104109282041092830410926F
:1033C00084041092850410928604F093A203E09383
:1033D000A1030093AD031093AE032093AF0330938A
:1033E000B0031092B1031092B2031092B303109283
:1033F000B4034093B5035093B6036093B70370933F
:10340000B8038093B9039093BA03A093BB03B0931E
:10341000BC031092BD031092BE031092BF03109222
:10342000C0031092C1031092C2031092C303109202
:10343000C403109207041092080410920904109219
:103440000A0410920B0410920C0410920D041092B6
:103450000E0410920F041092100410921104109296
:103460001204109213041F910F910895CF93DF93CC
:10347000CDB7DEB7E9970FB6F894DEBF0FBECDBF6C
:10348000789484B5826084BD84B5816084BD85B53F
:10349000826085BD85B5816085BD80916E0081604B
:1034A00080936E00109281008091810082608093F1
:1034B00081008091810081608093810080918000F3
:1034C0008160809380008091B10084608093B1001E
:1034D0008091B00081608093B00080917A00846018
:1034E00080937A0080917A00826080937A00809144
:1034F0007A00816080937A0080917A00806880935E
:103500007A001092C1001FB7F89480910C028111CB
:1035100027C0EAE1F2E08491EEE2F2E09491E82F34
:10352000F0E0EE0FFF1FE252FE4FA591B491EC9137
:10353000E92321F461E08AE00E940E0361E08AE061
:103540000E945A038CB580618CBD8CB580648CBDA3
:1035500061E08DE00E945A0361E08BE00E945A0313
:1035600080910C028F5F80930C021FBF8CE08093D0
:10357000B8001092E9021092E802109279021092BB
:103580009B020E940C0F8BE695E0909310028093B3
:103590000F028CE695E090930E0280930D026AEF85
:1035A00070E080E090E00E94390561E084E00E94D4
:1035B0005A0361E087E00E945A0360E08EE00E94B7
:1035C0005A0369E070E087EF94E00E94190A66E010
:1035D00070E088EF94E00E94190A65E070E089EFDE
:1035E00094E00E94190A8FB7F8942AEA30E13093E8
:1035F000300520932F058FBF80912D0590912E05CA
:103600008038954279F080E895E290932E0580937A
:103610002D058091F4029091F5028D51954011F4A1
:103620000E948B030E948B0384E690E09093E70452
:103630008093E60488E998E09093E9048093E80495
:1036400011E01093780288E680939A021092790232
:1036500010929B028BE690E00E94A51090E080E023
:103660000E94A5100E944B0F1093780210927902CD
:1036700010929B028AE190E00E94A51085E090E004
:103680000E94A5100E944B0F1093780210927902AD
:1036900010929B028CE190E00E94A51080E190E0E6
:1036A0000E94A5100E944B0F10937802109279028D
:1036B00010929B028BE190E00E94A51088E090E0C0
:1036C0000E94A5100E944B0F00ED17E00E942214EB
:1036D00020913D0230913E0240913F0250914002C4
:1036E0006091390270913A0280913B0290913C02C4
:1036F0000E9423292B013C014092390250923A0248
:1037000060923B0270923C02209135023091360269
:10371000409137025091380260913102709132022B
:1037200080913302909134020E9423294B015C0165
:103730008092310290923202A0923302B09234020F
:1037400020912D0230912E0240912F025091300293
:103750006091290270912A0280912B0290912C0293
:103760000E9423296B017C01C0922902D0922A0277
:10377000E0922B02F0922C0261E070E080E090E099
:103780000E9439050150110909F0A0CF20E030E076
:103790004AEF54E4C301B2010E94062A6093390241
:1037A00070933A0280933B0290933C0220E030E019
:1037B0004AEF54E4C501B4010E94062A6093310225
:1037C00070933202809333029093340220E030E011
:1037D0004AEF54E4C701B6010E94062A6093290209
:1037E00070932A0280932B0290932C028AE080939C
:1037F000FA041092FB0487E48093FD0461E08AE000
:103800000E945A0361E08AE00E940E0364E670E0C1
:1038100080E090E00E94390560E08091FA040E9407
:103820000E0380E00E949B0582E48093FC040E94CA
:103830009B0561E08091FA040E940E0364EF71E041
:1038400080E090E00E94390560E08091FA040E94D7
:103850000E03BAEFEB2EB4E0FB2E10E182E0D701AD
:103860001F968C93812F0E949B05F70187850E94EC
:103870009B05FFEFEF1AFF0A1F5F103279F784E014
:103880008093FC0480E00E949B058091FC040E94D0
:103890009B0561E08091FA040E940E0384E380930B
:1038A000FE048CE18093FF0460E08091FA040E94A2
:1038B0000E0382E00E949B058091FE040E949B05FE
:1038C00083E00E949B058091FF040E949B0561E0BC
:1038D0008091FA040E940E038091FD048C608C7F1D
:1038E0008093FD0460E08091FA040E940E0381E061
:1038F0000E949B058091FD040E949B0561E08091E0
:10390000FA040E940E038091FB0481111AC0809179
:10391000FC04806488608093FC0460E08091FA0479
:103920000E940E0380E00E949B058091FC040E948F
:103930009B0561E08091FA040E940E0381E0809370
:10394000FB048091FC048F7C8093FC0460E08091F8
:10395000FA040E940E0380E00E949B058091FC0403
:103960000E949B0561E08091FA040E940E03198277
:103970001A821B821C82198E188E1B8E1A8E1D8E27
:103980001C8E9E012F5F3F4F29013F932F933E01D5
:1039900038E1630E711C7F926F92AE01465E5F4FFD
:1039A0004A01CE014C965C01F4E0CF2EF1E0DF2E0F
:1039B000A8E0EA2EA1E0FA2E0CE011E02FE532E0BB
:1039C00049E652E061E272E084E194E00E941A0963
:1039D00080E090E0AAEFB3E4809320049093210468
:1039E000A0932204B093230480E090E0AAEFB3EC0C
:1039F0008093240490932504A0932604B093270475
:103A0000E0907604F09077040F900F900F900F9055
:103A100091E0E916F10441F5C0901804D090190422
:103A2000D6018D909D90AD90BC9020E030E04AEFA3
:103A300053ECC501B4010E947B2787FD5CC620E0E2
:103A400030E04AEF53E4C501B4010E94142B18166C
:103A500034F4812C912CEAEFAE2EE3E4BE2EF60175
:103A600080829182A282B38210921C0410921D0463
:103A700010921E0410921F0480E090E0A0EAB1E4CE
:103A80008093280490932904A0932A04B0932B04D4
:103A900080E090E0A0EAB1EC80932C0490932D0498
:103AA000A0932E04B0932F04EA94EF2851F081E004
:103AB00090E0909377048093760484E194E00E94F0
:103AC000E90819821A821B821C82198E188E1B8E9D
:103AD0001A8E1D8E1C8E5F924F927F926F929E0166
:103AE000265E3F4F4901AE01445E5F4F5A0154E0EC
:103AF000C52E51E0D52E68E0E62E61E0F62E0CE0F2
:103B000011E020E031E045E652E061E172E081EA57
:103B100093E00E941A0980910504909106040F9089
:103B20000F900F900F90009709F0ECC581E090E0A6
:103B300090930604809305048091030490910404FB
:103B4000019721F481EA93E00E94E9081092AD0305
:103B50001092AE031092AF031092B00380E090E099
:103B6000AAEFB3EC8093B1039093B203A093B30395
:103B7000B093B403009103041091040401301105C3
:103B800021F5A090A503B090A603D501CD90DD90BE
:103B9000ED90FC9020E030E04AEF53ECC701B60115
:103BA0000E947B2787FDB6C520E030E0A901C70150
:103BB000B6010E94142B18161CF4C12CD12C7601CE
:103BC000F501C082D182E282F3821092A9031092A1
:103BD000AA031092AB031092AC0380E090E0A0EA3D
:103BE000B1E48093B5039093B603A093B703B09369
:103BF000B80380E090E0A0EAB1EC8093B903909321
:103C0000BA03A093BB03B093BC030130110551F07C
:103C100081E090E0909304048093030481EA93E0B0
:103C20000E94E90861E084E00E940E036CE271E00A
:103C300080E090E00E94390560E084E00E940E037D
:103C400061E087E00E940E036CE271E080E090E0AA
:103C50000E94390560E087E00E940E036CE271E08B
:103C600080E090E00E94390561E084E00E940E034C
:103C70006CE271E080E090E00E94390560E084E051
:103C80000E940E0361E087E00E940E036CE271E087
:103C900080E090E00E94390560E087E00E940E031A
:103CA0006CE271E080E090E00E9439050E94B80467
:103CB00060935B0270935C0280935D0290935E025E
:103CC00022242394312C17E10E94221420913902DE
:103CD00030913A0240913B0250913C0260913D028A
:103CE00070913E0280913F02909140020E942229F1
:103CF0006B017C01C0923D02D0923E02E0923F02F5
:103D0000F092400220913102309132024091330210
:103D100050913402609135027091360280913702E1
:103D2000909138020E9422294B015C018092350259
:103D300090923602A0923702B09238022091290266
:103D400030912A0240912B0250912C0260912D0259
:103D500070912E0280912F02909130020E942229B0
:103D600060932D0270932E0280932F029093300265
:103D70002FE632E143E85BE3C701B6010E94E12789
:103D8000209121023091220240912302509124027D
:103D90000E9423292B013C012EEB37E346E859E32F
:103DA0006091140170911501809116019091170195
:103DB0000E9423296B017C0120E030E040E151E4C6
:103DC0000E9423299B01AC01C701B6010E94062A6B
:103DD0006E8F7F8F88A399A3A30192016091250222
:103DE0007091260280912702909128020E94222938
:103DF0002E8D3F8D48A159A10E94E1279B01AC0166
:103E0000C301B2010E942329609321027093220210
:103E100080932302909324022E8D3F8D48A159A1B7
:103E200060E070E080E89FE30E942229A7019601EC
:103E30000E94E1276093140170931501809316018D
:103E4000909317012FE632E143E85BE3C501B4012B
:103E50000E94E12720911102309112024091130239
:103E6000509114020E9423294B015C012EEB37E391
:103E700046E859E36091100170911101809112019F
:103E8000909113010E9423296B017C0120E030E016
:103E900040E151E40E9423299B01AC01C701B60116
:103EA0000E94062A2B013C01A50194016091150294
:103EB0007091160280911702909118020E94222997
:103EC000A30192010E94E1279B01AC01C501B4014D
:103ED0000E9423294B015C01A301920160E070E084
:103EE00080E89FE30E942229A70196010E94E12712
:103EF0008092190290921A02A0921B02B0921C02A8
:103F000060931D0270931E0280931F029093200203
:103F10008092110290921202A0921302B0921402A7
:103F2000609310017093110180931201909313011B
:103F300081E00E94DD0490931D0180931C0182E0CA
:103F40000E94DD0490931B0180931A0183E00E947C
:103F5000DD04909319018093180184E00E94DD0430
:103F600085E00E94DD048431F5E09F0708F0D9C3A5
:103F700010926E0210926D0260E087E00E940E03C4
:103F80008091DF04882309F42DC261E087E00E945C
:103F90000E03CE0101960E9472128091DF048823E5
:103FA000E1F0F8948091DF0481508093DF048091E8
:103FB000E004189FC0011124FC01E853FB4FDE010F
:103FC0001196212F01900D922A95E1F788539B4F6E
:103FD0000E9472121092E004789487E1FE013196FB
:103FE000A7E8B4E001900D928A95E1F780919B04D7
:103FF000853008F44CC08091450290914602A09112
:104000004702B0914802892B8A2B8B2B09F03FC0C5
:104010008091490290914A02A0914B02B0914C02CA
:10402000892B8A2B8B2B99F5E0908F04F0909004CC
:10403000609191047091920488E0E7E8F4E0A5E4CF
:10404000B2E001900D928A95E1F7072E000C880BE3
:10405000990B0E9482272AE037ED43E25CE30E943D
:10406000E1274B015C01B701FF0C880B990B0E9403
:1040700082279B01AC01C501B4010E9423296093F2
:104080004102709342028093430290934402209134
:10409000490230914A0240914B0250914C0260918A
:1040A0008B0470918C0480918D0490918E040E94F9
:1040B000750E4B015C018091870490918804A0915A
:1040C0008904B0918A048EA39FA3A8A7B9A72091C1
:1040D00045023091460240914702509148022AA37E
:1040E0003BA34CA35DA3BC01CD01621B730B840BEE
:1040F000950B2B013C0197FF07C044245524320146
:10410000461A570A680A790A75016401B7FE07C0A2
:10411000CC24DD247601C818D908EA08FB08A301DD
:1041200092012C0D3D1D4E1D5F1D2AAB3BAB4CABD0
:104130005DAB0E9482276EAB7FAB88AF99AF25E362
:104140003AEF4EE85CE30E94E12725E93FEB46EDBC
:1041500053E30E94E1276B017C0120E030E040E066
:104160005FE30E94E1272B013C01C501B4010E94DD
:1041700082276EA77FA788AB99AB25E33AEF4EE87D
:104180005CE30E94E12725E93FEB46ED53E30E9403
:10419000E1276E8F7F8F88A399A36AA17BA18CA151
:1041A0009DA10E9482274B015C0125E33AEF4EE876
:1041B0005CE30E94E12725E93FEB46ED53E30E94D3
:1041C000E1276AA37BA38CA39DA38AA99BA9ACA981
:1041D000BDA9883E9340A105B1050CF0B1C2A30171
:1041E00092016AA17BA18CA19DA10E9423290E941A
:1041F000012A9B01AC016E8D7F8D88A199A10E943F
:10420000E1279B01AC010E94E1274B015C01A70162
:104210009601C701B6010E94E1279B01AC01C501CF
:10422000B4010E9423290E942F2B22E138E147ECA0
:1042300055E40E94E12720E030E04AE754E40E9480
:10424000E1272B013C0140925102509252026092B0
:104250005302709254026AA17BA18CA19DA10E947D
:10426000012A6AA77BA78CA79DA72AA93BA94CA9CD
:104270005DA9283E3340410551050CF0DEC22AA558
:104280003BA54CA55DA56EA57FA588A999A90E940F
:10429000E1279B01AC016EA97FA988AD99AD0E9471
:1042A000A2299B01AC016BED7FE089EC9FE30E94AA
:1042B00022296B017C0120E030E0A9010E947B27CC
:1042C00087FF0AC02BED3FE049EC50E4C701B6017F
:1042D0000E9423296B017C0120EE3EE245E652E478
:1042E000C701B6010E94E12720E030E044EB53E42F
:1042F0000E9423296B017C016091990470919A04BA
:10430000072E000C880B990B0E9482272AE037EDBC
:1043100043E25CE30E94E1274B015C01609197045A
:1043200070919804072E000C880B990B0E9482272D
:104330009B01AC01C501B4010E9423299B01AC0182
:10434000C701B6010E9422290E94782ACB0168E6A3
:1043500071E00E949C2B7C01909356028093550241
:104360006091910470919204072E000C880B990BB8
:104370000E9482272AE037ED43E25CE30E94E127B6
:104380004B015C0160918F0470919004072E000C2A
:10439000880B990B0E9482279B01AC01C501B401D7
:1043A0000E94232920914102309142024091430210
:1043B000509144020E942229609357027093580240
:1043C0008093590290935A0220E030E040E251E499
:1043D000C301B2010E947B2787FF98C2309264021A
:1043E000209263028091C60483FF03C0877F80937D
:1043F000C60430E430937C0080917A00806480931E
:104400007A0080917A0086FDFCCF609178007091EF
:104410007900072E000C880B990B0E94822720E060
:1044200030E040EA50E40E94E12720E030E040E83C
:104430005AE30E94E1272CE83EE24AEB5DE30E944A
:10444000062A2AE939E949E15EE30E9423296093BB
:104450004D0270934E0280934F029093500284E17C
:1044600094E00E941F0681EA93E00E941F0660917B
:104470008704709188048091890490918A040E9435
:10448000822725E93FEB46ED53E30E94E12725E033
:10449000E22E04E020E040E00E94551360918B047E
:1044A00070918C0480918D0490918E040E948227DB
:1044B00025E93FEB46ED53E30E94E12720E040E190
:1044C0000E94551340E06BE086EB0E94EF0560917F
:1044D0009B0470E090E080E00E948027E12C02E0E5
:1044E00020E04CE00E94551346E060E087E80E941F
:1044F000EF05609157027091580280915902909196
:104500005A0203E026E041E00E94551341E06BE0CF
:1045100080ED0E94EF056091550270915602072EC2
:10452000000C880B990B0E94822721E04CE00E942E
:10453000551380916302909164028230910509F4D1
:104540000AC208F0F8C1019709F4FFC180916D0219
:1045500090916E028130910509F40BC208F403C2F8
:10456000029709F40AC246E069E18BEC0E94EF056C
:104570006091950470919604072E000C880B990B9E
:104580000E9482272FE632E143E85AE30E94E127A6
:104590006B017C016091930470919404072E000CD0
:1045A000880B990B0E9482279B01AC01C701B601C1
:1045B0000E94232926E53EE04DEE5FE30E94E127BD
:1045C000E12C02E026E047E10E9455134AE069E150
:1045D00089E80E94EF05609151027091520280912A
:1045E00053029091540204E02AE045E10E945513E1
:1045F0004AE064E087E90E94EF0560914D02709106
:104600004E0280914F0290915002EE24E39402E01A
:104610002AE040E00E94551380916D0290916E0255
:104620008130910509F4C6C108F4ABC1029709F4C1
:10463000D2C160911C0170911D0190E080E00E9448
:1046400080272091690230916A0240916B0250915B
:104650006C020E9423290E94782A87EF94E00E942E
:10466000F30960911A0170911B0190E080E00E94B3
:104670008027209165023091660240916702509137
:1046800068020E9423290E94782A88EF94E00E9401
:10469000F309609118017091190189EF94E00E946B
:1046A000F3090E94B804C0905B02D0905C02E090D5
:1046B0005D02F0905E026C197D098E099F09603AD7
:1046C0007F408105910568F30E94B80460935B0206
:1046D00070935C0280935D0290935E0280E090E0B4
:1046E000892B09F4F1CA0E94FA02882309F4EBCA63
:1046F0000E940000E8CA812C912C7AEFA72E73EC5F
:10470000B72EADC9019709F017CA1092060410928E
:10471000050412CAC12CD12C4AEFE42E43ECF42E2E
:104720004FCA853A964038F042E050E050936E020E
:1047300040936D0221CC30926E0220926D021CCC0F
:10474000C301B2010E94212B2B013C0120E030E08B
:1047500040E05FE36E8D7F8D88A199A10E94E127E3
:104760000E94212B6B017C0125E93FEB46ED53E3D1
:10477000C501B4010E94E12725E33AEF4EE85CE36E
:104780000E94E1270E94012A4B015C016EA17FA1DA
:1047900088A599A50E94822725E93FEB46ED53E3C2
:1047A0000E94E12725E33AEF4EE85CE30E94E1270F
:1047B0000E94012A6AA77BA78CA79DA7A701960143
:1047C000C701B6010E94E1276B017C012AA53BA528
:1047D0004CA55DA5C501B4010E94E1279B01AC0178
:1047E000C701B6010E94E1276B017C01A301920180
:1047F000C301B2010E94E1279B01AC01C701B601D0
:104800000E9423296B017C01AC019B0160E070E0F8
:1048100080E89FE30E9422290E942F2B4B015C011C
:10482000C701B6010E942F2BA50194010E94A22965
:104830009B01AC010E942329F8CC6EA17FA188A521
:1048400099A50E94822725E33AEF4EE85CE30E9497
:10485000E12725E93FEB46ED53E30E94E1276B0199
:104860007C010E94012A4B015C016E8D7F8D88A125
:1048700099A10E94212B6EA37FA388A799A7C701A6
:10488000B6010E94212B6B017C016AA17BA18CA146
:104890009DA10E94212B6AA37BA38CA39DA36E8D57
:1048A0007F8D88A199A10E94012A6E8F7F8F88A396
:1048B00099A3A70196016AA57BA58CA59DA50E9439
:1048C000E1276B017C012AA13BA14CA15DA1C5019F
:1048D000B4010E94E1272E8D3F8D48A159A10E946D
:1048E000E1279B01AC01C701B6010E9422296B019F
:1048F0007C012EA13FA148A559A5C501B4010E9484
:10490000E127A70196010E94A229D3CC90E1E91AE0
:10491000F108A4EAEA16F10438F4E3E0F0E0F093D9
:104920006402E09363025ECD24E030E030936402E1
:104930002093630257CD8330910589F0049709F0E5
:1049400005CE4AE06CE089ED03C04AE06CE083E804
:104950000E94EF05FBCD4AE06CE08BEDF9CF4AE019
:104960006CE08DEDF5CF41E060E083EB0E94EF0558
:10497000FACD41E060E086ECF9CF41E060E08AECFE
:10498000F5CF60E084E00E940E031092690210925D
:104990006A0210926B0210926C02109265021092E1
:1049A00066021092670210926802109264021092DE
:1049B00063023FCE61E084E00E940E031092640225
:1049C0001092630210925F021092600210926102D4
:1049D000109262022ECE61E084E00E940E0380E01D
:1049E00090E0A0E2B1E480935F0290936002A09314
:1049F0006102B09362021DCE8091EE04823009F113
:104A0000833061F4E99881E090E0880F991FFC0100
:104A1000E25EFE4F8DE695E09183808380919F0357
:104A20009091A003825E944021F41092A003109212
:104A30009F038091F0049091F104009731F00C9461
:104A4000852CE89890E080E0E0CF0895EF920F93F6
:104A50001F93CF93DF93E80134E047FD34E1042E48
:104A6000000C550B57FF03C0519541955109E32E9A
:104A7000022F242FAE010E944425CE01DF91CF9159
:104A80001F910F91EF900895A9E0B0E0EAE4F5E2FC
:104A90000C94E2286A01F22EB02E102FFBE3AF2E09
:104AA000A01608F41BE31F5F012F27E0AE014F5F44
:104AB0005F4F0E94A326BC018981982F9970913085
:104AC00009F43FC09BE2E1FC04C09E2D9170E0FC24
:104AD0003AC05E2D5071E82FE87083FF46C084E035
:104AE000911101C083E0EF2DE81B8F1508F0E0E085
:104AF000D6018E2F20E2552351F1992329F0D601BA
:104B00009C93C60101966C0196012D5F3F4FE2FE1A
:104B100024C08EE4D6018C9391E411969C93119756
:104B200012968C93D9018E2F90E281111BC0E20F57
:104B3000F32FF11D10828EEF9FEF2996ECE00C947D
:104B4000FE289DE2C6CF90E2C4CF2D938150811103
:104B5000FCCFCE0ED11CE0E0D0CF8EE6D6018C93F8
:104B600091E6DBCF9D938150E0CF482F447082FFC8
:104B70003DC084E0911101C083E08F1510F4EF2D4A
:104B8000E81BD6018E2F20E2552309F1992329F045
:104B9000D6019C93C60101966C0196012D5F3F4F93
:104BA000E2FE1BC089E4D6018C938EE411968C93AF
:104BB000119786E412968C93D9018E2F90E2882368
:104BC00009F4B5CF9D938150FACF2D938150811177
:104BD000FCCFCE0ED11CE0E0D9CF89E6D6018C9374
:104BE0008EE611968C93119786E6E4CF9B0177FFB2
:104BF00002C030E020E0A1E0B0E0911102C0B0E0DE
:104C0000A0E0F9013196AE0FBF1F8B2C912CBB2079
:104C100009F461C05401EFEFAE1ABE0AAA0DBB1D24
:104C2000FA161B0619F014F04F2D4A1B511188C0BB
:104C3000E3FC59C07601A42FB0E2A1114FC0C40E0D
:104C4000D11C992309F45BC040E0D6011196F6010E
:104C500090836D01552309F448C0012F060F9A81F6
:104C6000582F507184FF03C0913309F4015010167E
:104C70000CF047C0093008F008E0EEE2FE2E5B01C0
:104C8000A01AB10885019194819491082F3F3207B1
:104C900029F4D601FC92F60131966F016217730771
:104CA00094F1021713077CF5DB01A21BB30BAA24B6
:104CB000A394B12CAC0EBD1EAA0DBB1D11968C91F8
:104CC00021503109D601119628153905F4F0F60165
:104CD00080836D01DBCFB12CA12CA0CFF701B19364
:104CE0007F01A150AACF9111B0CFD601942F50E3EC
:104CF00002C05D9391509111FCCFC40ED11C40E0D5
:104D0000ACCF01E0BACF80E3DBCF6217730731F499
:104D1000963388F4953311F4552369F0F6018083B6
:104D2000FD01842F90E2811108C0A40FB11D1C92D7
:104D300090E080E002CF81E3F1CF91938150F3CFF7
:104D4000911183CF8ACF283008F027E03327DA018A
:104D5000990F311D87FD916000966105710539F449
:104D600032602E5F3D9330E32A95E1F708959F3F2F
:104D700030F080387105610509F03C5F3C5F3D9380
:104D8000913008F08068911DDF93CF931F930F93AC
:104D9000FF92EF92192F987F9695E92F9695969509
:104DA000E90FFF27E25FFE4F99273327EE24FF2408
:104DB000A701E70105900894079428F4360FE71E31
:104DC000F81E491F511D660F771F881F991F0694F3
:104DD000A1F70590079428F4E70EF81E491F561F07
:104DE000C11D770F881F991F661F0694A1F70590B4
:104DF000079428F4F80E491F561FC71FD11D880FAE
:104E0000991F661F771F0694A1F70590079420F459
:104E1000490F561FC71FD81F990F661F771F881F7E
:104E20000694A9F784911095177041F0D695C7950F
:104E300057954795F794E7941A95C1F7E4EBF0E09E
:104E400068941590159135916591959105907FE243
:104E50007395E118F10A430B560BC90BD009C0F743
:104E6000E10CF11E431F561FC91FD01D7EF4703385
:104E700011F48A95E6CFE894015030F0080F0AF457
:104E80000027021708F4202F2395022F7A3328F0E9
:104E900079E37D932A95E9F710C07D932A9589F6E9
:104EA000069497956795379517951794E118F10A29
:104EB000430B560BC90BD00998F023957E9173953F
:104EC0007A3308F070E37C932013B8F77E91706119
:104ED0007D9330F0839571E37D9370E32A95E1F73C
:104EE0001124EF90FF900F911F91CF91DF9199279F
:104EF00087FD909508950E94BD2708F481E00895EC
:104F0000E89409C097FB3EF4909580957095619563
:104F10007F4F8F4F9F4F9923A9F0F92F96E9BB2719
:104F20009395F695879577956795B795F111F8CF95
:104F3000FAF4BB0F11F460FF1BC06F5F7F4F8F4F00
:104F40009F4F16C0882311F096E911C0772321F0F6
:104F50009EE8872F762F05C0662371F096E8862F8E
:104F600070E060E02AF09A95660F771F881FDAF7E5
:104F7000880F9695879597F90895990F0008550F12
:104F8000AA0BE0E8FEEF16161706E807F907C0F0CF
:104F900012161306E407F50798F0621B730B840BD7
:104FA000950B39F40A2661F0232B242B252B21F4B1
:104FB00008950A2609F4A140A6958FEF811D811D51
:104FC00008950E94F4270C9465280E94572838F011
:104FD0000E945E2820F0952311F00C944E280C942A
:104FE000542811240C9499280E94762870F3959FD8
:104FF000C1F3950F50E0551F629FF001729FBB27D0
:10500000F00DB11D639FAA27F00DB11DAA1F649F6B
:105010006627B00DA11D661F829F2227B00DA11D1E
:10502000621F739FB00DA11D621F839FA00D611DA4
:10503000221F749F3327A00D611D231F849F600DC5
:10504000211D822F762F6A2F11249F5750409AF0EE
:10505000F1F088234AF0EE0FFF1FBB1F661F771F7A
:10506000881F91505040A9F79E3F510580F00C9445
:105070004E280C9499285F3FE4F3983ED4F386952C
:1050800077956795B795F795E7959F5FC1F7FE2BE5
:10509000880F911D9695879597F9089597F99F67C1
:1050A00080E870E060E008959FEF80EC08950024B0
:1050B0000A941616170618060906089500240A947D
:1050C00012161306140605060895092E0394000C03
:1050D00011F4882352F0BB0F40F4BF2B11F460FF92
:1050E00004C06F5F7F4F8F4F9F4F089557FD9058BB
:1050F000440F551F59F05F3F71F04795880F97FB9C
:10510000991F61F09F3F79F0879508951216130655
:105110001406551FF2CF4695F1DF08C01616170684
:105120001806991FF1CF86957105610508940895B9
:10513000E894BB2766277727CB0197F90895DB0111
:105140008F939F930E94D128BF91AF91A29F800D12
:10515000911DA39F900DB29F900D11240895A1E27F
:105160001A2EAA1BBB1BFD010DC0AA1FBB1FEE1FE1
:10517000FF1FA217B307E407F50720F0A21BB30B2C
:10518000E40BF50B661F771F881F991F1A9469F7A8
:1051900060957095809590959B01AC01BD01CF0104
:1051A00008950E941329A59F900DB49F900DA49F70
:1051B000800D911D112408952F923F924F925F927E
:1051C0006F927F928F929F92AF92BF92CF92DF9217
:1051D000EF92FF920F931F93CF93DF93CDB7DEB77C
:1051E000CA1BDB0B0FB6F894DEBF0FBECDBF099410
:1051F0002A88398848885F846E847D848C849B8467
:10520000AA84B984C884DF80EE80FD800C811B8174
:10521000AA81B981CE0FD11D0FB6F894DEBF0FBEA3
:10522000CDBFED010895A29FB001B39FC001A39F20
:10523000700D811D1124911DB29F700D811D1124CF
:10524000911D08955058BB27AA270E943A290C9413
:1052500065280E94572838F00E945E2820F039F413
:105260009F3F19F426F40C9454280EF4E095E7FBC4
:105270000C944E28E92F0E94762858F3BA1762073B
:1052800073078407950720F079F4A6F50C94982805
:105290000EF4E0950B2EBA2FA02D0B01B901900151
:1052A0000C01CA01A0011124FF27591B99F0593F95
:1052B00050F4503E68F11A16F040A22F232F342FDD
:1052C0004427585FF3CF469537952795A795F0402B
:1052D0005395C9F77EF41F16BA0B620B730B840B40
:1052E000BAF09150A1F0FF0FBB1F661F771F881FF8
:1052F000C2F70EC0BA0F621F731F841F48F4879550
:1053000077956795B795F7959E3F08F0B0CF939541
:10531000880F08F09927EE0F9795879508950E94BA
:10532000572860F080E891E009F49EEF0E945E2823
:1053300028F040E851E071F45EEF0CC00C94542862
:105340000C949828E92FE0780E94762840F3092EE3
:10535000052AB1F3261737074807590738F00E2EEC
:1053600007F8E02569F0E025E0640AC0EF6307F87C
:10537000009407FADB01B9019D01DC01CA01AD010E
:10538000EF930E941D2A0E9465280E94D2295F91F6
:10539000552339F02BED3FE049E450FD49EC0C94E6
:1053A00023290895DF93DD27B92FBF7740E85FE316
:1053B0001616170648075B0718F4D92F0E94192BF9
:1053C0009F938F937F936F930E946F2BE8E6F0E09B
:1053D0000E94AE2A0E9465282F913F914F915F91C4
:1053E0000E94F427DD2351F09058A2EA2AED3FE015
:1053F00049EC5FE3D0785D270E943A29DF910C9455
:1054000065280E94D72AE3950C94002B0E941A2A43
:105410000C9465280E945E2858F00E94572840F09E
:1054200029F45F3F29F00C944E2851110C949928CF
:105430000C9454280E94762868F39923B1F35523DD
:1054400091F3951B550BBB27AA2762177307840797
:1054500038F09F5F5F4F220F331F441FAA1FA9F32D
:1054600035D00E2E3AF0E0E832D091505040E6951B
:10547000001CCAF72BD0FE2F29D0660F771F881F7C
:10548000BB1F261737074807AB07B0E809F0BB0B6F
:10549000802DBF01FF2793585F4F3AF09E3F510583
:1054A00078F00C944E280C9499285F3FE4F3983ED2
:1054B000D4F3869577956795B795F7959F5FC9F76C
:1054C000880F911D9695879597F90895E1E0660FED
:1054D000771F881FBB1F621773078407BA0720F066
:1054E000621B730B840BBA0BEE1F88F7E0950895CF
:1054F0000E947F2A6894B1110C94992808950E9403
:105500007E2888F09F5798F0B92F9927B751B0F0AF
:10551000E1F0660F771F881F991F1AF0BA95C9F737
:1055200014C0B13091F00E949828B1E008950C9415
:105530009828672F782F8827B85F39F0B93FCCF3C8
:10554000869577956795B395D9F73EF490958095B4
:10555000709561957F4F8F4F9F4F0895DF93CF9345
:105560001F930F93FF92EF92DF927B018C0168945F
:1055700006C0DA2EEF010E94F427FE01E894A591FF
:105580002591359145915591A6F3EF010E943A2955
:10559000FE019701A801DA9469F7DF90EF90FF9080
:1055A0000F911F91CF91DF9108950C9454280E9480
:1055B0007E28D8F3E894E0E0BB279F57F0F02AED6F
:1055C0003FE049EC06C0EE0FBB0F661F771F881F38
:1055D00028F0B23A62077307840728F0B25A620BC8
:1055E000730B840BE3959A9572F7803830F49A9593
:1055F000BB0F661F771F881FD2F790480C94752B3E
:10560000EF93E0FF07C0A2EA2AED3FE049EC5FEB31
:105610000E943A290E9465280F90039401FC90583B
:10562000E5E9F0E00C94882B0E94BD2708F48FEF89
:1056300008959B01AC0160E070E080E89FE30C946A
:10564000062A9F930E94D72A0F9007FCEE5F0C94C6
:10565000002B19F416F40C9454280C94732B0E940C
:105660007E28B8F39923C9F3B6F39F57550B87FFEC
:105670000E94812B0024A0E640EA900180585695B4
:10568000979528F4805C660F771F881F20F02617F7
:105690003707480730F4621B730B840B202931292C
:1056A0004A2BA69517940794202531254A2758F7A9
:1056B000660F771F881F20F026173707480730F43A
:1056C000620B730B840B200D311D411DA09581F7DA
:1056D000B901842F9158880F9695879508959B015D
:1056E000AC010C94E1279F3F31F0915020F4879555
:1056F00077956795B795880F911D9695879597F93A
:10570000089591505040660F771F881FD2F7089573
:105710009F938F937F936F93FF93EF939B01AC01C4
:105720000E94E127EF91FF910E94AE2A2F913F91B5
:105730004F915F910C94E12797FB072E16F400948C
:1057400007D077FD09D00E94D52B07FC05D03EF489
:10575000909581959F4F0895709561957F4F08951D
:10576000052E97FB1EF400940E94C72B57FD07D00F
:105770000E94AF2807FC03D04EF40C94C72B509521
:105780004095309521953F4F4F4F5F4F089590952D
:105790008095709561957F4F8F4F9F4F0895EE0FC5
:1057A000FF1F0590F491E02D0994AA1BBB1B51E14A
:1057B00007C0AA1FBB1FA617B70710F0A61BB70B81
:1057C000881F991F5A95A9F780959095BC01CD0126
:1057D00008950F931F93CF93DF938230910510F4B8
:1057E00082E090E0E0913305F091340530E020E074
:1057F000B0E0A0E0309799F42115310509F44AC0D2
:10580000281B390B24303105D8F58A819B8161151D
:10581000710589F1FB0193838283FE0111C04081F0
:1058200051810281138148175907E0F04817590741
:1058300099F4109761F012960C93129713961C939B
:105840003296CF01DF91CF911F910F910895009370
:10585000330510933405F4CF2115310551F042176B
:10586000530738F0A901DB019A01BD01DF01F801FE
:10587000C1CFEF01F9CF9093340580933305CDCF9D
:10588000FE01E20FF31F8193919322503109398376
:105890002883D7CF2091310530913205232B41F455
:1058A0002091240130912501309332052093310558
:1058B00020912201309123012115310541F42DB7AA
:1058C0003EB74091260150912701241B350BE091F2
:1058D0003105F0913205E217F307A0F42E1B3F0BC0
:1058E0002817390778F0AC014E5F5F4F2417350752
:1058F00048F04E0F5F1F509332054093310581935E
:1059000091939FCFF0E0E0E09CCFCF93DF9300979F
:10591000E9F0FC01329713821282A0913305B09115
:105920003405ED0130E020E01097A1F420813181B1
:10593000820F931F209131053091320528173907C6
:1059400009F061C0F0933205E0933105DF91CF910A
:105950000895EA01CE17DF07E8F54A815B819E01D1
:1059600041155105B1F7E901FB83EA83499159914A
:10597000C40FD51FEC17FD0761F480819181029659
:10598000840F951FE90199838883828193819B838A
:105990008A83F0E0E0E012968D919C911397009736
:1059A000B9F52D913C911197CD010296820F931F6D
:1059B00020913105309132052817390739F6309793
:1059C00051F51092340510923305B0933205A0932F
:1059D0003105BCCFD383C28340815181840F951F91
:1059E000C817D90761F44E5F5F4F88819981480FCE
:1059F000591F518340838A819B8193838283211520
:105A0000310509F0B0CFF0933405E09333059ECF14
:105A1000FD01DC01C0CF13821282D7CF11E0CDE1AE
:105A2000D1E004C0FE010E94CF2B2196CE31D107D8
:065A3000C9F7F894FFCF56
:105A36000000704100004040CDCC4C3D0000A0412C
:105A46000000804000008040E803DC05DC056D05B1
:105A56006D05000035058000000000008D026E0512
:105A66002E02DA025F023D025102000000007610AB
:105A760049106F1232104210080233100000000065
:105A86001A091F0600000000680B6E056F12070258
:065A9600F10BDB0B6F12A7
:00000001FF
